:100000000C9435050C9452050C9452050C94520531
:100010000C9452050C9452050C9452050C94520504
:100020000C9452050C9452050C9466220C945205C3
:100030000C9452050C941C230C9452050C945205FC
:100040000C9452050C9452050C9452050C94D31147
:100050000C9452056E616E00696E660000407A1065
:10006000F35A00A0724E18090010A5D4E80000E869
:100070007648170000E40B54020000CA9A3B0000C7
:1000800000E1F505000080969800000040420F0056
:100090000000A08601000000102700000000E80317
:1000A000000000006400000000000A0000000000E2
:1000B0000100000000002C76D888DC674F0823DFA1
:1000C000C1DFAE59E1B1B796E5E3E453C63AE65174
:1000D000997696E8E6C28426EB898C9B62ED407C9B
:1000E0006FFCEFBC9C9F40F2BAA56FA5F490055A37
:1000F0002AF75C936B6CF9676DC11BFCE0E40D475C
:10010000FEF520E6B500D0ED902E0300943577057E
:100110000080841E080000204E0A000000C80C3336
:100120003333330F986E12831141EF8D2114893BC5
:10013000E65516CFFEE6DB18D1844B381BF77C1D45
:10014000901DA4BBE424203284725E228100C9F198
:1001500024ECA1E53D2745787465726E616C2070D2
:100160006F776572206973206F66662064757269A7
:100170006E672025756425756825756D2575732E48
:1001800000727374636F756E743D256C753B0073FC
:100190006D6F74696F6E3D25756425756825756D85
:1001A0002575733B00666D6F74696F6E3D257564D0
:1001B00025756825756D2575733B0073656E736FC6
:1001C000723D302825756425756825756D25757314
:1001D000293B0067756172643D25643B00286C6FA4
:1001E000772025756425756825756D257573293B00
:1001F000002821293B00766F6C746167653D252ED0
:100200003166560074656D703D25643B0074696D00
:10021000653D25756425756825756D2575733B00ED
:100220004775617264206973206F6E206166746522
:1002300072206D6F74696F6E2074696D65722E0027
:100240004775617264206973206F6E206279206245
:100250007574746F6E2E0020736964650020667279
:100260006F6E7400486F6D6520696E766173696F9B
:100270006E21212100534D53206368616E6E656CC1
:1002800020746573740044657669636520747572C3
:100290006E6564206F6E200041542B434D474441EE
:1002A0003D2244454C20414C4C220D0041542B43EF
:1002B0004D47443D25640D0041542B434D474C3D73
:1002C00022414C4C220D002B434C49503A002B4309
:1002D0004D54493A0041542B434D47533D22257319
:1002E000220D0041542B434D47533D222573220DCF
:1002F0000041542B435245473F0D0041542B43527C
:1003000045473F0D002B435245473A004552524F57
:1003100052004F4B004552524F52004F4B00455236
:10032000524F52004552524F52002B434D474C3AC8
:10033000004154480D0041542B434C49503D310D70
:100340000041542B434E4D493D302C312C302C3044
:100350002C300D0041542B434D47463D310D00419B
:100360005445300D00415426460D0041540D0041C6
:10037000542B4350494E3D222573220D0034383012
:10038000310053494D2050494E00524541445900D7
:100390004552524F520041542B4350494E3F0D009D
:1003A00074656D703D25643B00736964657A6F6E9A
:1003B000653D0066726F6E747A6F6E653D006C65A8
:1003C000646D6F64653D006175746F67756172641B
:1003D0003D0067756172643D0074656D70696E748F
:1003E000657276616C3D0074656D70687973743DFB
:1003F000006D696E74656D703D006D617874656D3A
:10040000703D0074656D70636F6E74726F6C3D004B
:1004100072656C61793D007265706F72743D007633
:100420006F6963653D00746573746D6F64653D004D
:1004300069643D006D7970686F6E653D0064657636
:10044000656C6F70657270686F6E65733D00616496
:100450006D696E70686F6E65733D0075736572705F
:10046000686F6E65733D0061646D696E6D6F646584
:100470003D00616C61726D696E74657276616C3D90
:1004800000627574746F6E696E74657276616C3D2E
:1004900000706F776572696E74657276616C3D008D
:1004A0007265706F727473696E74657276616C3D9B
:1004B00000736D73696E74657276616C3D00726570
:1004C000736574706572696F643D006C65646D6F0F
:1004D00064653D25643B006C65646D6F64653B003D
:1004E000736964657A6F6E653D25643B007369646A
:1004F000657A6F6E653B0066726F6E747A6F6E65BB
:100500003D25643B0066726F6E747A6F6E653B00CA
:100510006175746F67756172643D25643B00617538
:10052000746F67756172643B0067756172643D2525
:10053000643B0067756172643B006572726F723173
:100540003D25643B006572726F723B0074656D708F
:10055000696E74657276616C3D2575683B007465E3
:100560006D70696E74657276616C3B0074656D7058
:10057000687973743D25643B0074656D70687973A8
:10058000743B006D696E74656D703D25643B006D54
:10059000696E74656D703B006D617874656D703D5A
:1005A00025643B006D617874656D703B0074656D0A
:1005B000703D25643B0074656D703B0074656D7023
:1005C000636F6E74726F6C3D25643B0074656D7073
:1005D000636F6E74726F6C3B007369676E616C3D24
:1005E000256464426D3B007369676E616C3B006C0F
:1005F0006173746576656E743D257320256464258A
:10060000646825646D2564732061676F3B006C61CD
:1006100073746576656E743B0072656C61793D2517
:10062000753B0072656C61793B007265706F727426
:100630003D25753B007265706F72743B00766F6983
:1006400063653D25753B00766F6963653B007465A6
:1006500073746D6F64653D25753B00746573746DCF
:100660006F64653B00736D737265736574636F755A
:100670006E743D25753B00736D73726573657463AD
:100680006F756E743B00616C61726D696E7465723A
:1006900076616C3D2575683B00616C61726D696EB9
:1006A00074657276616C3B007374617274696E7408
:1006B000657276616C3D25756D3B00627574746F73
:1006C0006E696E74657276616C3B00706F776572EF
:1006D000696E74657276616C3D25756D3B00706F57
:1006E000776572696E74657276616C3B00726570D5
:1006F0006F727473696E74657276616C3D2575688E
:100700003B007265706F727473696E7465727661A6
:100710006C3B00736D73696E74657276616C3D2518
:1007200075683B00736D73696E74657276616C3BBE
:10073000007265736574706572696F643D257568D4
:100740003B007265736574706572696F643B003B52
:100750000028647572696E672025756425756825A3
:10076000756D2575733B290073656E736F723D253A
:10077000640073656E736F723B00286C6F77206442
:100780007572696E672025756425756825756D25F8
:100790007573293B00286F6B293B00286F766572C3
:1007A000766F6C74616765293B00766F6C74616766
:1007B000653D252E31665600766F6C746167653B2A
:1007C000006D7970686F6E653D25733B006D7970C3
:1007D000686F6E653B003B0025732C006465766591
:1007E0006C6F70657270686F6E65733D00646576DE
:1007F000656C6F70657270686F6E65733B003B006F
:1008000025732C0061646D696E70686F6E65733D51
:100810000061646D696E70686F6E65733B003B00CC
:1008200025732C007573657270686F6E65733D007B
:100830007573657270686F6E65733B0061646D6996
:100840006E6D6F64653D25643B0061646D696E6D1E
:100850006F64653B00727374636F756E743D256CD5
:10086000753B6D646D5F727374636F756E743D2557
:100870006C753B736D735F727374636F756E743DEB
:10088000256C753B00727374636F756E743B006901
:10089000643D25733B0069643B003B00302E312EE4
:1008A000300076657273696F6E3D007665727369AC
:1008B0006F6E3B00736964656D6F74696F6E3D2583
:1008C000756425756825756D2575733B0066726FB7
:1008D0006E746D6F74696F6E3D257564257568253E
:1008E000756D2575733B006C6173746D6F74696F02
:1008F0006E3B0074696D653D2575642575682575C9
:100900006D2575733B0074696D653B0041636365DC
:1009100073732064656E6965640068656C703B0084
:10092000534D53206368616E6E656C2074657374FB
:1009300000526573657420636F6D6D616E64206134
:10094000636365707465642E00416363657373202F
:1009500064656E6965640072657365746D63753B8B
:10096000006F6B00726573657461646D696E6D6FA5
:100970006465212100726573756C74696E6720531C
:100980004D53207465787420697320746F6F206CE8
:100990006F6E67006572726F720041636365737397
:1009A0002064656E696564006765743A00657272FB
:1009B0006F72006F6B004163636573732064656ED3
:1009C000696564007365743A006765743A736574A9
:1009D0003A7573657270686F6E65733B61646D69BB
:1009E0006E70686F6E65733B61646D696E6D6F6488
:1009F000653B766F6C746167653B69643B6C6173E2
:100A0000746D6F74696F6E3B67756172643B61757D
:100A1000746F67756172643B73656E736F723B666A
:100A2000726F6E747A6F6E653B736964657A6F6E10
:100A3000653B727374636F756E743B7265706F7231
:100A40007473696E74657276616C3B7265736574FC
:100A5000706572696F643B000000000000000000D8
:100A60000000000000000000000011241FBECFE5C0
:100A7000D8E0DEBFCDBF10E0A0E6B0E0E8E2F7E5E9
:100A800002C005900D92AC36B107D9F724E0ACE670
:100A9000B0E001C01D92AA39B207E1F70E94D51259
:100AA0000C94922B0C94000083E487B986EC86B9F1
:100AB0000895CF93DF9300D0CDB7DEB784B189839B
:100AC00085B183708A8386EC86B94091720050911B
:100AD00073009A0184E0369527958A95E1F7309363
:100AE00071002093700089819A81840F951F821B69
:100AF000930B90937300809372000F900F90DF918F
:100B0000CF9108958FB7F8942091700030917100C3
:100B10008FBF81E0293F310508F480E008958FB749
:100B2000F89460917000709171008FBF80E090E048
:100B30000E946D2320E030E044E05DE30E94D32377
:100B400008950E948205882349F010926C0010924B
:100B50006D0010926E0010926F00089580916C00ED
:100B600090916D00A0916E00B0916F000196A11D53
:100B7000B11D80936C0090936D00A0936E00B093B4
:100B80006F0008958F929F92AF92BF92CF92DF92A3
:100B9000EF92FF920F931F93CF93DF93CDB7DEB702
:100BA000C15AD1090FB6F894DEBF0FBECDBF8091F8
:100BB0001A0390911B03892B09F488C08FB7F8940E
:100BC000C0906C00D0906D00E0906E00F0906F00CF
:100BD0008FBF20911A0330911B03ACE3B0E00E9459
:100BE0004028C616D706E806F90618F410926000E9
:100BF0006DC080916000811169C0C701B60120E815
:100C000031E541E050E00E941E28122F032F60E8DA
:100C100071E581E090E00E940E28C61AD70AE80A22
:100C2000F90AC701B60120E13EE040E050E00E9431
:100C30001E2849015A0144275527A0E1BEE00E9421
:100C40004F28C61AD70AE80AF90AC701B6012CE3E9
:100C500030E040E050E00E941E286CE3629FC0013B
:100C6000639F900D1124B601681B790B7F936F93DE
:100C70003F932F939F928F920F931F9386E591E05E
:100C80009F938F93CE0101966C019F938F930E9447
:100C90000F2B81E08093600005E613E00FB6F89417
:100CA000DEBF0FBECDBFF12CF80180818B3271F415
:100CB000FF2021F088EE93E00E94FB21B801C601DD
:100CC0000E945D10F394035F1F4FEECFCF55DF4FAF
:100CD0000FB6F894DEBF0FBECDBFDF91CF911F914D
:100CE0000F91FF90EF90DF90CF90BF90AF909F90CB
:100CF0008F900895CF938091160390911703892BBD
:100D000009F478C08091C0038B3209F073C08091E0
:100D100062008823A9F0109262000E947021409125
:100D20001603509117036CE3649F9001659F300D8B
:100D30001124821B930B499690937A00809379003B
:100D40000E9470212091790030917A00821B930BD0
:100D50004091160350911703CCE3C49F9001C59FA7
:100D6000300D11242817390708F041C08091770011
:100D700081110AC060EC73E085E792E00E949A104E
:100D800081E08093770039C00E9470212091790022
:100D900030917A00821B930B4091160350911703F8
:100DA000C49F9001C59F300D1124215F3F4F28172C
:100DB000390718F58091100390911103A091120347
:100DC000B091130380362AEE9207A105B10558F4BD
:100DD0000196A11DB11D8093100390931103A09360
:100DE0001203B093130381E0CF910C94D3121092AD
:100DF000770003C081E080936200CF910895CF9285
:100E0000DF92EF92FF928091140390911503892B4A
:100E1000F9F08FB7F894C090A302D090A402E090AC
:100E2000A502F090A6028FBF209114033091150304
:100E3000A0E1BEE00E9440286C157D058E059F054F
:100E400038F480E0FF90EF90DF90CF900C94D312B5
:100E5000FF90EF90DF90CF900895CF92DF92FF92B6
:100E60000F931F93CF93DF93CDB7DEB7C15AD1094C
:100E70000FB6F894DEBF0FBECDBF8091610088230E
:100E800019F01092610075C080917904811110C031
:100E900080918E0281FF5EC08FB7F8941092970206
:100EA000109298021092990210929A028FBF52C02B
:100EB00080918E02882361F3109279040E94010DC3
:100EC00084E692E09F938F93CE0101966C019F93ED
:100ED0008F930E940F2B8601080F191F80918E029D
:100EE0000F900F900F900F9081FF0EC08DE592E054
:100EF0009F938F931F930F930E940F2B080F191F1F
:100F00000F900F900F900F9080918E0280FF0CC079
:100F100087E592E09F938F931F930F930E940F2B6F
:100F20000F900F900F900F9005E613E0F12CF80151
:100F300080818B3209F0ACCFFF2021F088EE93E066
:100F40000E94FB21B801C6010E945D10F394035F6B
:100F50001F4FEDCF80918E0280FF0BC08FB7F894AA
:100F6000109293021092940210929502109296029F
:100F70008FBF10928E02CF55DF4F0FB6F894DEBFB1
:100F80000FBECDBFDF91CF911F910F91FF90DF90EA
:100F9000CF900895CF92DF92EF92FF921F93CF935D
:100FA000DF938091790481119AC08FB7F894C09132
:100FB0006900D0916A008FBF80917A04811109C0C5
:100FC000CF3F8FEFD80729F081E080937A040E9409
:100FD000090D20911C0330911D034CE3429FC00179
:100FE000439F900D11248C179D0728F5219619F128
:100FF00081E0809379040E94010D8FB7F8942FEF60
:101000003FEF30936A00209369008FBFC5E6D3E0BD
:1010100010E088818B3209F062C0112321F088EE44
:1010200093E00E94FB21BE0180E492E00E949A10AE
:101030001F5F2D96EECF8FB7F894C0909702D09097
:101040009802E0909902F0909A028FBF20911E03BF
:1010500030911F03A0E1BEE00E9440286C157D0581
:101060008E059F05E0F58FB7F894C0909302D0905D
:101070009402E0909502F09096028FBF20911E039B
:1010800030911F030E9440286C157D058E059F0539
:1010900030F580917A04882311F181E080937904FE
:1010A0000E94010D8FB7F8942FEF3FEF30936A0045
:1010B000209369008FBFC5E6D3E010E088818B32B2
:1010C00071F4112321F088EE93E00E94FB21BE0110
:1010D00080E292E00E949A101F5F2D96EFCFDF9181
:1010E000CF911F91FF90EF90DF90CF9008952F92B6
:1010F0003F924F925F926F927F928F929F92AF92A8
:10110000BF92CF92DF92EF92FF920F931F93CF93F4
:10111000DF93CDB7DEB7C85AD1090FB6F894DEBF5A
:101120000FBECDBFC955DF4F99838883C75AD040C2
:101130008FB7F89410929B0210929C0210929D021D
:1011400010929E028FBF8FB7F894C090A302D090E8
:10115000A402E090A502F090A6028FBFC701B601DD
:1011600020E831E541E050E00E941E28122F032FB5
:1011700060E871E581E090E00E940E28C61AD70A67
:10118000E80AF90AC701B60120E13EE040E050E07C
:101190000E941E2849015A0144275527A0E1BEE0BC
:1011A0000E944F28C61AD70AE80AF90AC701B601F1
:1011B0002CE330E040E050E00E941E286CE3629F88
:1011C000C001639F900D1124C81AD90ADF92CF92F3
:1011D0003F932F939F928F920F931F938DE092E0F6
:1011E0009F938F938E010F5F1F4F1F930F930E944A
:1011F0000F2B080F191F80916500282F082E000C57
:10120000330B3F938F9384E092E09F938F931F93D0
:101210000F930E940F2B080F191F0E948F056B015F
:101220007C010FB6F894DEBF0FBECDBF20E030E0EA
:1012300048E651E47D2D8E2D9F2D0E94CE23181659
:1012400064F020E030E040E051E46C2D7D2D8E2DE7
:101250009F2D0E94682387FF88C0FF92EF92DF9244
:10126000CF9286EF91E09F938F931F930F930E94ED
:101270000F2B080F191F0FB6F894DEBF0FBECDBF9E
:1012800020E030E048E651E46C2D7D2D8E2D9F2D21
:101290000E94CE2318167CF481EF91E09F938F93E8
:1012A0001F930F930E940F2B080F191F0F900F9081
:1012B0000F900F905AC08FB7F894C0906C00D090E8
:1012C0006D00E0906E00F0906F008FBFC701B60117
:1012D00020E831E541E050E00E941E28722E632E86
:1012E00060E871E581E090E00E940E28C61AD70AF6
:1012F000E80AF90AC701B60120E13EE040E050E00B
:101300000E941E2849015A0144275527A0E1BEE04A
:101310000E944F28C61AD70AE80AF90AC701B6017F
:101320002CE330E040E050E00E941E286CE3629F16
:10133000C001639F900D1124C81AD90ADF92CF9281
:101340003F932F939F928F926F927F928DED91E0BA
:101350009F938F931F930F930E940F2B080F191FBA
:101360000FB6F894DEBF0FBECDBF809179041F92F7
:101370008F9383ED91E09F938F931F930F930E9420
:101380000F2B1801280E391E0E9477130F900F9013
:101390000F900F900F900F9081115AC08FB7F89453
:1013A000C0908F02D0909002E0909102F090920253
:1013B0008FBFC701B60120E831E541E050E00E944F
:1013C0001E28122F032F60E871E581E090E00E9453
:1013D0000E28C61AD70AE80AF90AC701B60120E1A1
:1013E0003EE040E050E00E941E2849015A01442797
:1013F0005527A0E1BEE00E944F28C61AD70AE80A86
:10140000F90AC701B6012CE330E040E050E00E9449
:101410001E286CE3629FC001639F900D1124C81ABF
:10142000D90ADF92CF923F932F939F928F920F937F
:101430001F938BEB91E09F938F933F922F920E948B
:101440000F2B280E391E0FB6F894DEBF0FBECDBF8E
:101450008FB7F894C0909702D0909802E0909902CC
:10146000F0909A028FBF80E8482E81E5582E6624BE
:101470006394712CC701B601A30192010E941E283A
:10148000890160E871E581E090E00E940E28C61AAB
:10149000D70AE80AF90A90E1892E9EE0992EA12C3C
:1014A000B12CC701B601A50194010E941E28CD559B
:1014B000DF4F288339834A835B83C35AD040442754
:1014C0005527A0E1BEE00E944F28C61AD70AE80AB5
:1014D000F90AC701B6012CE330E040E050E00E9479
:1014E0001E28FCE3F29FC001F39F900D1124C81A3F
:1014F000D90ADF92CF923F932F93CC55DF4F68816B
:10150000C45AD0406F93CD55DF4F8881C35AD04025
:101510008F931F930F9385EA91E09F938F933F9250
:101520002F920E940F2B8101080F191F8FB7F8947B
:10153000C0909302D0909402E0909502F0909602B1
:101540008FBFC701B601A30192010E941E28722E0F
:10155000632E60E871E581E090E00E940E28C61AD3
:10156000D70AE80AF90AC701B601A50194010E9449
:101570001E2849015A0144275527A0E1BEE00E94D8
:101580004F28C61AD70AE80AF90AC701B6012CE3A0
:1015900030E040E050E00E941E28ECE3E29FC001F2
:1015A000E39F900D1124C81AD90ADF92CF923F937E
:1015B0002F939F928F926F927F928FE891E09F93EB
:1015C0008F931F930F930E940F2B20910B032F9348
:1015D00020910A032F93209109032F932091080350
:1015E0002F9321E831E03F932F93800F911F9F931A
:1015F0008F930E940F2B0FB6F894DEBF0FBECDBFA6
:10160000C955DF4FE881F981C75AD040EF2B21F44B
:1016100005E613E0F12C19C0C955DF4F68817981C7
:10162000C75AD040CE0101960E945D1012C0FF2023
:1016300021F088EE93E00E94FB21B801CE010196D3
:101640000E945D10F394035F1F4FF80180818B327D
:1016500071F3C855DF4F0FB6F894DEBF0FBECDBF94
:10166000DF91CF911F910F91FF90EF90DF90CF907E
:10167000BF90AF909F908F907F906F905F904F90B2
:101680003F902F900895CF92DF92EF92FF9280913A
:10169000180390911903892B59F18FB7F894C090D2
:1016A0009B02D0909C02E0909D02F0909E028FBF22
:1016B0002091180330911903A0E1BEE00E94402858
:1016C0006C157D058E059F0598F48FB7F8941092E0
:1016D0009B0210929C0210929D0210929E028FBF5C
:1016E00080E090E0FF90EF90DF90CF900C9477082F
:1016F000FF90EF90DF90CF9008950E946821209195
:10170000750030917600821B930B853B9105BCF0F0
:101710000E94481081110BC0809174008F5F8093EC
:101720007400853030F081E00E94D31202C0109224
:1017300074000E946821909376008093750008954C
:101740009C019FB7F894E199FECF3FBB2EBB6DBBC8
:1017500084E08CBB82E08CBB9FBF0895E199FECFF3
:101760009FBB8EBBE09A8DB30895EF92FF920F93CB
:101770001F93CF93DF938C01060F171FEC017A01A3
:10178000E81AF90AC7018C0F9D1FC017D10721F075
:1017900069910E94A00BF6CFDF91CF911F910F911D
:1017A000FF90EF900895EF92FF920F931F93CF93C6
:1017B000DF938C01060F171FEC017A01E81AF90A72
:1017C000C7018C0F9D1FC017D10721F00E94AE0BDF
:1017D0008993F6CFDF91CF911F910F91FF90EF90FA
:1017E00008952FB7F89480919F029091A002A09144
:1017F000A102B091A2022FBFE4EFF2E080839183B7
:10180000A283B3832FB7F89480919B0290919C029E
:10181000A0919D02B0919E022FBF84839583A683E1
:10182000B7832FB7F8948091970290919802A09176
:101830009902B0919A022FBF80879187A287B387C0
:101840002FB7F8948091930290919402A091950201
:10185000B09196022FBF84879587A687B7872FB749
:10186000F89480918F0290919002A0919102B09192
:1018700092022FBF808B918BA28BB38B40E050E004
:101880006AE871E0CF010C94B50BCF93C82F40E00C
:1018900050E06AE871E084EF92E00E94D30B8091FF
:1018A0007D048B3A09F449C08AE891E0E4EFF2E064
:1018B000DF019C011D9221503040E1F788E090E06B
:1018C000909317038093160388E190E09093190397
:1018D0008093180382E090E090931B0380931A0397
:1018E00083E090E090931D0380931C032CE030E094
:1018F00030931F0320931E0381E080937404809330
:1019000072048093730480937A0493E090937B0431
:1019100043E2409376044FE0409377049093780439
:1019200030932103209320038093750480937C04DB
:101930008BEA80937D040E94F10BCC2309F45FC0F5
:101940008FB7F8944091F4025091F5026091F6023D
:101950007091F70240939F025093A0026093A102FE
:101960007093A2028FBF8FB7F8944091F802509104
:10197000F9026091FA027091FB0240939B0250932E
:101980009C0260939D0270939E028FBF8FB7F89464
:101990004091FC025091FD026091FE027091FF02A5
:1019A00040939702509398026093990270939A0221
:1019B0008FBF8FB7F894409100035091010360915D
:1019C0000203709103034093930250939402609337
:1019D0009502709396028FBF8FB7F89440910403DD
:1019E00050910503609106037091070340938F02A5
:1019F0005093900260939102709392028FBFCF91A7
:101A0000089545E851E061E070E089E794E00C94C6
:101A1000B50B46E851E061E070E08AE794E00C9491
:101A2000B50B41E851E061E070E085E794E00C948B
:101A3000B50B24E6EDECF3E0DF011D922A95E9F702
:101A4000BC01CF010E94742A8FB7F89410929F02B4
:101A50001092A0021092A1021092A2028FBF49ED33
:101A600050E064E670E08DEC93E00C94B50B04B6A6
:101A700003FC04C086E892E00E94190D8FE184BF48
:101A80000895EF92FF920F931F93CF93DF931F92CE
:101A9000CDB7DEB77C010E9460218C010E0D1F1DA9
:101AA0000E946021801B910B1816190654F00E94A9
:101AB00049238823A9F30E943D238983898189834F
:101AC000EACF0F90DF91CF911F910F91FF90EF9090
:101AD00008950E94682120917E0030917F00821B32
:101AE000930B0B9744F080917D00882321F0809325
:101AF000780010927D000E944923882309F451C088
:101B00000E94682190937F0080937E000E943D2375
:101B100090917D00992319F09330C1F042C0882341
:101B200009F43FC08D30E9F18A30D9F18093830008
:101B300021E030E030937C0020937B0093E0909391
:101B40007D008E3371F51092840026C020917B00B9
:101B500030917C00F901ED57FF4F8083A9014F5F61
:101B60005F4F50937C0040937B00411592E05907F2
:101B700038F010927C0010927B0010927D0011C012
:101B80004230510570F0F901EE57FF4F90819D30C2
:101B900041F48A3031F4108210927D0083E890E0A5
:101BA000089580E090E008950E945E1380E00E9416
:101BB00062138CED95E00E94FB210C946013CF938F
:101BC000DF930E94690DEC01009759F16EEC72E011
:101BD0000E94862A892B21F081E08093640024C032
:101BE00067EC72E0CE010E94862A0097E1F06BE27A
:101BF00070E006960E94BD2AEC0160E00E94F81495
:101C0000882359F081E0809381008CE0FE01ABE8ED
:101C1000B4E001900D928A95E1F781E08093800015
:101C200003C080E001C081E0DF91CF910895CF93A0
:101C3000DF93EC010E946021C80FD91F0E94DF0DC5
:101C400081110AC00E9460218C1B9D0B1816190679
:101C5000ACF780E090E002C083E890E0DF91CF91A4
:101C60000895CF93DF93EC010E946021C80FD91F24
:101C70000E94DF0D811109C00E9460218C1B9D0B09
:101C800018161906ACF780E012C06AE273E083E828
:101C900090E00E94862A892B49F464E273E083E88D
:101CA00090E00E94862A892B19F3EDCF81E0DF9125
:101CB000CF910895CF93DF93C82F0E9468218C0F96
:101CC000911DEC010E94DF0D811109C00E94682165
:101CD0008C1B9D0B18161906ACF780E00EC0809186
:101CE00083008E3349F06EE173E083E890E00E9458
:101CF000862A892B39F3F1CF81E0DF91CF910895C6
:101D0000CF93DF93C82F0E9468218C0F911DEC01A7
:101D10000E94DF0D811109C00E9468218C1B9D0B60
:101D200018161906ACF780E012C06BE173E083E887
:101D300090E00E94862A892B49F465E173E083E8EC
:101D400090E00E94862A892B19F3EDCF81E0DF9184
:101D5000CF910895CF93DF93EC010E946021C80FCB
:101D6000D91F0E94DF0D811109C00E9460218C1BC8
:101D70009D0B18161906ACF780E012C062E173E003
:101D800083E890E00E94862A892B49F46CE073E096
:101D900083E890E00E94862A892B19F3EDCF81E039
:101DA000DF91CF9108950F931F93CF93DF9300D0CE
:101DB00000D01F92CDB7DEB784EF91E00E94FB21E7
:101DC00086E993E00E945B2388E893E10E94170E66
:101DD0008C01009709F443C060E973E00E94862AF1
:101DE000892BE9F56AE873E0C8010E94862A892BED
:101DF000A1F562E873E0C8010E94862A892B79F177
:101E000088E893E10E94AA0E84EF91E00E94FB21F2
:101E10008DE793E09F938F938E010F5F1F4F1F936A
:101E20000F930E940F2B1F930F938FE693E09F93C6
:101E30008F9383E890E09F938F930E940F2B83E80A
:101E400090E00E94522388E893E10E94AA0E0FB608
:101E5000F894DEBF0FBECDBF03C081E001C080E0BB
:101E60000F900F900F900F900F90DF91CF911F91D7
:101E70000F9108950F931F93CF930E9468218C01B7
:101E8000085A1D4F809173048823C1F00E949E134D
:101E900082E390E00E94FB210E949A1380EA9FE077
:101EA0000E94FB210E949C1382E390E00E94FB2190
:101EB0000E94A01380EA9FE00E94FB210E946821FB
:101EC000801B910B181619060CF477C00E94D40DD4
:101ED0008FE090E00E9413228BE693E00E945B2348
:101EE00080ED97E00E94AA0E882341F388EE93E0EC
:101EF0000E94FB2185E693E00E945B2388E893E142
:101F00000E94AA0E8823D1F288EE93E00E94FB2162
:101F10008FE593E00E945B2388E893E10E94AA0E7C
:101F2000882361F2C3E088EE93E00E94FB210E94C7
:101F3000D30E813029F0C150B1F7882309F4BECF08
:101F4000C3E088EE93E00E94FB2184E593E00E94C9
:101F50005B2388E893E10E94AA0E813029F0C150EA
:101F600081F7882309F4AACFC3E088EE93E00E94AA
:101F7000FB2181E493E00E945B2388E893E10E94C7
:101F8000AA0E813029F0C15081F7882309F496CF39
:101F9000C3E088EE93E00E94FB2186E393E00E9479
:101FA0005B2388E893E10E94AA0E813041F0C15082
:101FB00081F7882309F482CF02C080E001C081E06C
:101FC000CF911F910F910895CF93C3E084E690E0E5
:101FD0000E94FB2181E393E00E945B2388E893E168
:101FE0000E94AA0E811102C0C15081F7CF910895BD
:101FF0000F931F93CF938C010E946021080F191F2C
:102000000E94DF0DC82F811108C00E946021801B33
:10201000910B18161906A4F701C0C1E08C2FCF91BF
:102020001F910F910895CF93DF93EC010E946021DF
:10203000C80FD91F0E94DF0D811108C00E946021C6
:102040008C1B9D0B18161906ACF71CC065E073E0DD
:1020500083E890E00E94862A009761F36CE270E0CA
:102060000E94BD2A009731F34AE050E060E070E042
:1020700001960E949128DC01CB018B7F0197A1057D
:10208000B10511F080E001C081E0DF91CF910895AA
:1020900084E690E00E94FB218BEF92E00E945B239C
:1020A00088E893E10E941310813019F48093820034
:1020B00008951092820080E008950F931F93CF93AC
:1020C000DF93EC01162F072F0E944810882361F13F
:1020D00084E690E00E94FB210F931F9383EE92E031
:1020E0009F938F9383E890E09F938F930E940F2B91
:1020F00083E890E00E94522384E10E945A0E0F90E0
:102100000F900F900F900F900F90882369F0CE01E1
:102110000E9452238AE10E9464238BE0DF91CF91D9
:102120001F910F910C94800E80E0DF91CF911F9151
:102130000F9108950F931F93CF93DF93EC01162F08
:10214000072F0E944810882361F184E690E00E94E6
:10215000FB210F931F9385ED92E09F938F9383E86C
:1021600090E09F938F930E940F2B83E890E00E9452
:10217000522384E10E945A0E0F900F900F900F90FF
:102180000F900F90882369F0CE010E945B238AE1B3
:102190000E9464238BE0DF91CF911F910F910C94EB
:1021A000800E80E0DF91CF911F910F910895CF9322
:1021B000DF93EC010E946821C80FD91F88EE93E0DD
:1021C0000E94FB2181EF92E00E945B2388E893E16B
:1021D0000E941310813049F00E9468218C1B9D0BD6
:1021E000181619065CF780E001C081E0DF91CF91FD
:1021F0000895FC0120812B3271F431960C962191C7
:1022000030E0205331092A30310528F4E817F90766
:10221000B1F781E0089580E0089584E690E00E949F
:10222000FB2188E992E00E945B238AE00C94800EF7
:10223000AF92BF92CF92DF92EF92FF920F931F93D4
:10224000CF93DF9380916400882361F184E690E06E
:102250000E94FB2188EB92E00E945B2388E893E1D7
:102260000E94310E8130D1F46AE370E083E890E09F
:102270000E94BD2A009791F3AC014F5F5F4F069615
:10228000EA014F5F5F4F288130E0205331092A3047
:10229000310550F04817590799F7E0CF0E940D110A
:1022A0001092640080E06BC04AE050E060E070E0B3
:1022B000CE010E9491286B017C01C114D10481E000
:1022C000E806F10458F66CE270E0CE010E94BD2AE7
:1022D000009721F26CE270E00E94BD2A009709F499
:1022E000BDCF6BE270E00E94BD2AEC01009779F04F
:1022F0000E94F910882309F4B1CF8CE0FE01AEE70B
:10230000B4E001900D928A95E1F710928A0488E872
:1023100093E10E94F80F813009F688EE93E00E9465
:10232000410D83E890E00E942620C3E00CEA12E011
:1023300083E8A82E80E0B82E84E690E00E94FB217E
:10234000DF92CF921F930F93BF92AF920E940F2BF9
:1023500083E890E00E94522388E893E10E94AA0E4D
:102360000F900F900F900F900F900F90813011F001
:10237000C15011F784E690E00E94FB2181E0DF91DB
:10238000CF911F910F91FF90EF90DF90CF90BF9072
:10239000AF90089580E180B9089585EA86BF81E015
:1023A0008093870208951F920F920FB60F92112407
:1023B0008F9380918702823091F08330E1F08130F9
:1023C00069F581B1887F883031F481E983B985E886
:1023D00086BF82E01AC084E986BF82E81CC081B152
:1023E000887F803421F485EC86BF83E00EC084E9C9
:1023F00086BF83E810C081B1887F803549F483B1FE
:102400008093650085E886BF84E0809387020AC0D8
:1024100084E986BF84E88093650002C084E986BFB2
:10242000109287028F910F900FBE0F901F901895FA
:10243000CF92DF92FF920F931F93CF93DF93CDB78D
:10244000DEB7C25AD1090FB6F894DEBF0FBECDBFBA
:102450000E9468212091850230918602821B930B95
:1024600002977CF080918702882319F085E8809399
:1024700065000E94CD110E9468219093860280938E
:10248000850280917504882309F440C0809165001D
:102490008138E1F1282F082E000C330B409176048F
:1024A00050E0241735073CF44091770450E0421780
:1024B00053070CF469C03F938F9380EA93E09F9396
:1024C0008F93CE0101966C019F938F930E940F2BE7
:1024D00005E613E00F900F900F900F900F900F9064
:1024E000F12CF80180818B3271F4FF2021F088EE0D
:1024F00093E00E94FB21B801C6010E945D10F39495
:10250000035F1F4FEECF109275043CC080912003F3
:1025100090912103892BC1F140916500042E000C9C
:10252000550B8091780490E02091760430E0281BD0
:10253000390B421753073CF420917704820F911D09
:10254000841795073CF00E94702190938402809339
:1025500083021AC00E94702120918302309184026C
:10256000821B930B40912003509121036CE3649FE5
:102570009001659F300D11242817390728F481E058
:10258000809375040E94110DCE55DF4F0FB6F8945D
:10259000DEBF0FBECDBFDF91CF911F910F91FF9096
:1025A000DF90CF900895F894FFCF0E94E8130E9427
:1025B00057210E942B2281E00E9408230E9454058B
:1025C0000E94CA11789484E690E00E94FB2181E089
:1025D0000E94450C0E94370D0E94E0138AE090E0B3
:1025E0000E94F4228AE090E00E94F4228AE090E0C7
:1025F0000E94F4220E943A0F81111CC080910C03AA
:1026000090910D03A0910E03B0910F03803828E341
:10261000920721E0A207B10558F40196A11DB11D52
:1026200080930C0390930D03A0930E03B0930F03BC
:10263000F894FFCF0E94782188E592E00E94D7109D
:10264000811102C0F894FFCF81E0809382000E9444
:1026500078218AE090E00E94F4228AE090E00E94D3
:10266000F42288EC90E00E94F4220E9418110E944B
:102670000D110E94181280918B02882311F0F8949A
:10268000FFCF0E9478210E94E0130E9418110E943F
:1026900044210E942D070E94C2050E94FF060E944D
:1026A0007A060E94430B0E94CA070E947D0B0E947B
:1026B00049238823F1F20E94DF0DF9CFD29A0895C1
:1026C000D2980895882311F0DA9A0895DA98089537
:1026D00080B385FB882780F908958AB38C7F8ABBF5
:1026E0008BB38C7F8BBB0895B998C19A089586B33C
:1026F0008695817091E0892708958B9AC3980895F3
:1027000080B383FB882780F991E08927089588B3F7
:102710008F7188BB87B3806E87BB0895C59A089573
:10272000C5980895C69A0895C6980895C79A0895B9
:10273000C7980895AF9A0895AF980895AE9A0895EE
:10274000AE98089599B380917B0489230895CF931F
:102750000E946813882349F00E946813882329F097
:102760000E946813C1E0811101C0C0E0809168003F
:10277000C81719F1C13091F480E00E9408238BB38F
:102780008F708BBB8AB38F708ABB82B38C7B82BB0A
:1027900081B38C7B81BBC298BA980DC0C298BA9A9B
:1027A0008BB38F758BBB8AB3806A8ABB909881E0AC
:1027B00081BB0E940823C09368008C2FCF9108959D
:1027C0000E94A713882319F00E947821F9CF089559
:1027D00018BA84E087BB1BBA80EA8ABB12BA82E1CE
:1027E00081BB85B38F7385BB84B3806C84BB0E942F
:1027F0006D130E9474130E9487130C947D139091A3
:10280000790480917C04992311F0813011F0823099
:1028100039F40E9490130E94941310928A0228C0E7
:1028200080918A02823320F48F5F80938A0202C0F3
:1028300010928A0280918200882339F080918A0266
:10284000853018F40E948E1302C00E9490130E94DB
:102850008205882359F00E94A213882321F08091D9
:102860008A02853018F40E94921302C00E949413C9
:102870008091690090916A00019611F00C94961372
:102880000C9498130E94A213882391F090918902CE
:10289000933020F49F5F9093890208959091670090
:1028A00091110AC080938E0281E0809367000895A1
:1028B000109289021092670008950E948013882365
:1028C000D1F080918802833020F48F5F809388025A
:1028D000089580916600811112C08FB7F89410920C
:1028E0006A00109269008FBF81E08093660084E6E1
:1028F00090E00C943B22109288021092660008959A
:10290000CF92DF92EF92FF920F931F93CF93DF93BB
:10291000EC017B01142F6C0100E0C6010E94F9104C
:10292000882369F00F5F1017A8F1F60184858B33B7
:1029300031F08C3279F5FDE0CF0ED11CEECFC7011E
:10294000AE0120E0021771F03CE0FA01DC010190D9
:102950000D923A95E1F7FC011486435F5F4F2F5FBC
:102960000D96F0CFFDE00F9FC0011124C80FD91FB5
:10297000212F30E0201B31096DE0629FA001639F91
:10298000500D112460E070E08E0D9F1D0E94B62A4C
:10299000CE0102C080E090E0DF91CF911F910F91B6
:1029A000FF90EF90DF90CF900895CF93DF93EC01ED
:1029B0008091A6038B3249F44CE050E066EA73E064
:1029C000CE010E94A02A892B79F08091B3038B322B
:1029D00049F44CE050E063EB73E0CE010E94A02A82
:1029E000892B11F080E001C081E0DF91CF91089543
:1029F000EF92FF920F931F93CF937C01C62F61300C
:102A0000A9F404E213E0F80180818B3241F44CE038
:102A100050E0B801C7010E94A02A892B41F1035F51
:102A20001F4FF3E005361F0771F716C0611114C080
:102A300005E613E0F80180818B3241F44CE050E070
:102A4000B801C7010E94A02A892B89F0035F1F4F9C
:102A5000F3E0063A1F0771F7C150C23050F4C701C6
:102A6000CF911F910F91FF90EF900C94D51481E0BE
:102A700001C080E0CF911F910F91FF90EF900895DA
:102A80002F923F924F925F926F927F928F929F927E
:102A9000AF92BF92CF92DF92EF92FF920F931F936C
:102AA000CF93DF93CDB7DEB72C970FB6F894DEBF88
:102AB0000FBECDBF8C017C876B8745E050E066E0A0
:102AC00079E00E94672A892B09F056C00B5F1F4FDF
:102AD0008FB7F894C090A302D090A402E090A50212
:102AE000F090A6028FBFC701B60120E831E541E0B2
:102AF00050E00E941E28722E632E60E871E581E08E
:102B000090E00E940E28C61AD70AE80AF90AC701FF
:102B1000B60120E13EE040E050E00E941E2849015D
:102B20005A0144275527A0E1BEE00E944F28C61A4B
:102B3000D70AE80AF90AC701B6012CE330E040E001
:102B400050E00E941E286CE3629FC001639F900DBD
:102B50001124C81AD90ADF92CF923F932F939F92E4
:102B60008F926F927F9283EF98E09F938F932C8543
:102B70002F933B853F9331C34BE050E067EE78E005
:102B8000C8010E94672A892B09F0D8C0B801655F87
:102B90007F4F7E836D838FB7F894C0909702D0905B
:102BA0009802E0909902F0909A028FBF50E8452E6B
:102BB00051E5552E66246394712CC701B601A3011B
:102BC00092010E941E28890160E871E581E090E091
:102BD0000E940E28C61AD70AE80AF90A60E1862E72
:102BE0006EE0962EA12CB12CC701B601A50194016F
:102BF0000E941E2829833A834B835C8344275527F0
:102C0000A0E1BEE00E944F28A7019601261B370BCA
:102C1000480B590B2F83388749875A877CE3C72E87
:102C2000D12CE12CF12CCA01B901A70196010E9417
:102C30001E286CE3629FC001639F900D1124EF81F9
:102C4000F885E81BF90BCF019F93EF933F932F93E8
:102C5000FA81FF9329812F931F930F938DEC98E0B6
:102C60009F938F933C853F934B854F930E940F2BEF
:102C70001C018FB7F89420919302309194024091F7
:102C800095025091960229833A834B835C838FBFD0
:102C900069817A818B819C81A30192010E941E2807
:102CA000122F032F60E871E581E090E00E940E286A
:102CB00049805A806B807C80461A570A680A790AD4
:102CC000C301B201A50194010E941E2849015A01C5
:102CD00044275527A0E1BEE00E944F28461A570A14
:102CE000680A790AC301B201A70196010E941E2851
:102CF0006CE3629FC001639F900D1124481A590A2A
:102D00005F924F923F932F939F928F920F931F93B7
:102D100084EB98E09F938F938B859C85820D931D08
:102D20009A8389839F938F930E940F2B0FB6F894F9
:102D3000DEBF0FBECDBF8D819E8146C548E050E00D
:102D40006BEA78E0C8010E94672A892B39F5085F91
:102D50001F4F82EA98E09F938F93FC85FF932B850A
:102D60002F930E940F2B4B855C85480F591F5A8368
:102D700049838CE998E09F938F935F934F930E94D0
:102D80000F2B2AE938E03F932F9369817A81860FD0
:102D9000971F9F938F930E940F2BF0C343E050E047
:102DA00066E978E0C8010E94672A892B49F40D5F23
:102DB0001F4F81E394E09F938F938FE898E0C1C405
:102DC00049E050E065E878E0C8010E94672A892B55
:102DD00089F5075F1F4F809113038F938091120332
:102DE0008F93809111038F93809110038F93809123
:102DF0000F038F9380910E038F9380910D038F9318
:102E000080910C038F9380910B038F9380910A0321
:102E10008F93809109038F93809108038F9385E5A9
:102E200098E09F938F93FC85FF932B852F930E94AF
:102E30000F2BA4C34AE050E06AE478E0C8010E9486
:102E4000672A892B49F4065F1F4F809123031F9245
:102E50008F938CE398E043C44BE050E060E378E06C
:102E6000C8010E94672A892B09F04BC0055F1F4FDC
:102E700084E298E09F938F937C857F938B858F93DB
:102E80000E940F2BEB85FC85E80FF91FFA83E9837D
:102E900035E6E32E33E0F32E0F900F900F900F9056
:102EA000D12C40E2A42E48E0B42EF70180818B3271
:102EB00019F0DD2019F11DC0FF92EF92BF92AF9281
:102EC000FA81FF9329812F930E940F2B49815A8108
:102ED000480F591F5A834983D3945DE0E50EF11CD6
:102EE0000F900F900F900F900F900F9065E0D612FB
:102EF000DCCF89819A8101979A8389838EE198E05A
:102F0000EEC14CE050E061E178E0C8010E94672A20
:102F1000892B09F04BC0045F1F4F84E098E09F931A
:102F20008F93FC85FF932B852F930E940F2B4B854E
:102F30005C85480F591F5A83498394E2E92E93E038
:102F4000F92E0F900F900F900F90D12C20E0A22E11
:102F500028E0B22EF70180818B3219F0DD2019F1C3
:102F60001DC0FF92EF92BF92AF92FA81FF93298129
:102F70002F930E940F2B49815A81480F591F5A8362
:102F80004983D3945DE0E50EF11C0F900F900F90F4
:102F90000F900F900F9065E0D612DCCF89819A8157
:102FA00001979A8389838EEF97E099C140E150E0C1
:102FB0006DEE77E0C8010E94672A892B09F05DC099
:102FC000005F1F4F8CED97E09F938F93FC85FF93DD
:102FD0002B852F930E940F2B4B855C85480F591F23
:102FE0005A8349830F900F900F900F908091A60302
:102FF0008B32D1F586EA93E09F938F9388EDE82E8C
:1030000087E0F82EFF92EF925F934F930E940F2B71
:1030100069817A81680F791F7A83698383EB93E0F2
:103020000F900F900F900F900F900F902091B3037F
:103030002B32A1F49F938F93FF92EF927F936F9324
:103040000E940F2BE981FA81E80FF91FFA83E983C7
:103050000F900F900F900F900F900F9069817A81D1
:10306000615071097A83698386ED97E09F938F930E
:10307000FA81FF9329812F9338C148E050E06DEC2D
:1030800077E0C8010E94672A892B49F4085F1F4F27
:1030900080EC93E09F938F9381EC97E083C348E0AB
:1030A00050E068EB77E0C8010E94672A892B09F09D
:1030B00097C0085F1F4F0E948F056B017C01FF9234
:1030C0008F93DF926F938AEA97E09F938F935C854B
:1030D0005F936B856F930E940F2BEB85FC85E80F48
:1030E000F91FFA83E9830FB6F894DEBF0FBECDBF98
:1030F00020E030E048E651E46C2D7D2D8E2D9F2D93
:103100000E94CE2318164CF48BE997E09F938F937F
:103110003A813F9349814F93E8C00E9482058823FA
:1031200049F085E997E09F938F935A815F93698176
:103130006F93DBC08FB7F894C0906C00D0906D0097
:10314000E0906E00F0906F008FBFC701B60120E8DD
:1031500031E541E050E00E941E28722E632E60E8A7
:1031600071E581E090E00E940E28C61AD70AE80AAD
:10317000F90AC701B60120E13EE040E050E00E94BC
:103180001E2849015A0144275527A0E1BEE00E94AC
:103190004F28C61AD70AE80AF90AC701B6012CE374
:1031A00030E040E050E00E941E286CE3629FC001C6
:1031B000639F900D1124C81AD90ADF92CF923F93D2
:1031C0002F939F928F926F927F928AE797E09F93BF
:1031D0008F937A817F9389818F930E940F2BCEC129
:1031E00047E050E062E777E0C8010E94672A892B38
:1031F00009F082C0095F1F4F0E947713F82E1F92BB
:103200008F9388E697E09F938F93FC85FF932B85A0
:103210002F930E940F2B4B855C85480F591F5A83B3
:1032200049830F900F900F900F900F900F90F11017
:1032300054C08FB7F894C0908F02D0909002E09065
:103240009102F09092028FBFC701B60120E831E5EC
:1032500041E050E00E941E28722E632E60E871E566
:1032600081E090E00E940E28C61AD70AE80AF90AFF
:10327000C701B60120E13EE040E050E00E941E2878
:1032800049015A0144275527A0E1BEE00E944F287A
:10329000C61AD70AE80AF90AC701B6012CE330E0DA
:1032A00040E050E00E941E286CE3629FC001639FD3
:1032B000900D1124C81AD90ADF92CF923F932F9311
:1032C0009F928F926F927F9281E597E09F938F9369
:1032D0005A815F9369816F9380CF8FE497E09F93CA
:1032E0008F939A819F93E981EF930E940F2B0F9008
:1032F0000F900F900F9064C24CE050E062E477E0D2
:10330000C8010E94672A892B59F4045F1F4F8091DE
:1033100015038F93809114038F9381E397E02AC262
:103320004CE050E064E277E0C8010E94672A892BF4
:1033300059F4045F1F4F809117038F9380911603F8
:103340008F9383E197E02EC240E150E062E077E0A6
:10335000C8010E94672A892B59F4005F1F4F809192
:1033600019038F93809118038F938DEE96E0B7C168
:103370004EE050E06EED76E0C8010E94672A892B8E
:1033800059F4025F1F4F80911B038F9380911A03A2
:103390008F938BEC96E0BBC14FE050E06BEB76E097
:1033A000C8010E94672A892B59F4015F1F4F809141
:1033B0001D038F9380911C038F9388EA96E0C1C10F
:1033C0004EE050E069E976E0C8010E94672A892B47
:1033D00059F4025F1F4F80911F038F9380911E034A
:1033E0008F9386E896E0C6C14EE050E067E776E04E
:1033F000C8010E94672A892BC9F4025F1F4F809180
:1034000013038F93809112038F93809111038F93F5
:10341000809110038F9385E696E09F938F933C8570
:103420003F934B854F930E940F2BA8C049E050E07B
:103430006BE576E0C8010E94672A892B49F4075F93
:103440001F4F809174041F928F938EE496E05FC1AA
:1034500046E050E067E476E0C8010E94672A892BC5
:1034600049F40A5F1F4F809172041F928F938DE37E
:1034700096E067C147E050E065E376E0C8010E944E
:10348000672A892B49F4095F1F4F809122031F92FD
:103490008F938AE296E06EC146E050E063E276E008
:1034A000C8010E94672A892B49F40A5F1F4F809147
:1034B00073041F928F9389E196E074C14AE050E053
:1034C0006EE076E0C8010E94672A892B09F05CC093
:1034D0008FB7F894C0909F02D090A002E090A10214
:1034E000F090A2028FBF065F1F4FC701B60120E810
:1034F00031E541E050E00E941E28B22EA22FB0E03C
:1035000020E831E541E050E00E944F28C61AD70A72
:10351000E80AF90AC701B60120E13EE040E050E0C8
:103520000E941E28A22E30E0A0E1BEE00E944028AA
:10353000C61AD70AE80AF90AC701B6012CE330E037
:1035400040E050E00E941E285CE3259FC018112433
:103550001F92CF921F922F931F92AF921F92BF92F2
:103560008DEC93E09F938F938FEE95E09F938F93D5
:103570006C856F937B857F930E940F2B0FB6F89419
:10358000DEBF0FBECDBF1CC147E050E067EE75E067
:10359000C8010E94672A892B69F4095F1F4F809137
:1035A0006300282F082E000C330B3F938F9389ED77
:1035B00095E0C7C04CE050E06CEC75E0C8010E949B
:1035C000672A892B49F4045F1F4F809175041F926D
:1035D0008F938CEB95E0CEC045E050E066EB75E054
:1035E000C8010E94672A892B69F40B5F1F4F8091E5
:1035F0006500282F082E000C330B3F938F938DEA24
:1036000095E0D0C048E050E064EA75E0C8010E944F
:10361000672A892B49F4085F1F4F809176041F9217
:103620008F9388E995E05BC048E050E06FE875E073
:10363000C8010E94672A892B49F4085F1F4F8091B7
:1036400077041F928F9383E895E061C049E050E0D2
:1036500069E775E0C8010E94672A892B49F4075F72
:103660001F4F809178041F928F938CE695E069C07C
:103670004DE050E06EE575E0C8010E94672A892B95
:1036800059F4035F1F4F809121038F938091200392
:103690008F938CE495E06EC046E050E065E475E001
:1036A000C8010E94672A892B49F40A5F1F4F809145
:1036B00078001F928F938AE395E074C046E050E053
:1036C00063E375E0C8010E94672A892B79F40A5FD9
:1036D0001F4F809179041F928F9389E295E09F9309
:1036E0008F935C855F936B856F9362C04AE050E077
:1036F0006EE175E0C8010E94672A892B79F4065FA4
:103700001F4F80917A041F928F9380E195E09F93E1
:103710008F937C857F938B858F934AC04AE050E0DE
:1037200065E075E0C8010E94672A892B89F4065F6D
:103730001F4F80917B04869581701F928F9387EF36
:1037400094E09F938F939C859F93EB85EF9330C07C
:1037500049E050E06DEE74E0C8010E94672A892BB1
:1037600081F4075F1F4F80917B0481701F928F93BC
:1037700080EE94E09F938F93FC85FF932B852F938E
:1037800017C048E050E067ED74E0C8010E94672A66
:10379000892BC1F4085F1F4F80917C041F928F9387
:1037A0008BEC94E09F938F933C853F934B854F9395
:1037B0000E940F2B0F900F900F900F900F900F9073
:1037C000C80102C080E090E02C960FB6F894DEBFEE
:1037D0000FBECDBFDF91CF911F910F91FF90EF9062
:1037E000DF90CF90BF90AF909F908F907F906F9021
:1037F0005F904F903F902F900895CF92DF92EF927D
:10380000FF920F931F93CF93DF9300D0CDB7DEB716
:103810009A8389838C014CE050E06EEB74E00E9447
:10382000672A892B31F5C8010C969A838983F801A0
:10383000248530E0205331092A30310518F080E02A
:1038400090E0F9C34AE050E0BE016F5F7F4F0E94F5
:1038500091286136FAEE7F078105910580F7E981AD
:10386000FA8120812B3359F7709315036093140369
:10387000B3C24CE050E061EB74E0C8010E94672ADB
:10388000892B21F5C8010C969A838983F801248538
:1038900030E0205331092A30310588F64AE050E003
:1038A000BE016F5F7F4F0E9491286136FAEE7F075D
:1038B0008105910520F6E981FA8120812B3309F0F9
:1038C000BECF709317036093160386C240E150E0A9
:1038D00060EA74E0C8010E94672A892B31F5C801AB
:1038E00040969A838983F801208930E0205331097A
:1038F0002A30310508F0A3CF4AE050E0BE016F5FE7
:103900007F4F0E9491286136FAEE7F07810591056D
:1039100008F095CFE981FA8120812B3309F08FCF10
:10392000709319036093180357C24EE050E061E9A9
:1039300074E0C8010E94672A892B31F5C8010E96F0
:103940009A838983F801268530E0205331092A3093
:10395000310508F074CF4AE050E0BE016F5F7F4F41
:103960000E9491286136FAEE7F078105910508F0E3
:1039700066CFE981FA8120812B3309F060CF709303
:103980001B0360931A0328C24FE050E061E874E023
:10399000C8010E94672A892B31F5C8010F969A83C6
:1039A0008983F801278530E0205331092A30310519
:1039B00008F045CF4AE050E0BE016F5F7F4F0E94A4
:1039C00091286136FAEE7F078105910508F037CF1F
:1039D000E981FA8120812B3309F031CF70931D03E7
:1039E00060931C03F9C14EE050E062E774E0C80147
:1039F0000E94672A892B31F5C8010E969A83898324
:103A0000F801268530E0205331092A30310508F0CD
:103A100016CF4AE050E0BE016F5F7F4F0E949128B1
:103A20006136FAEE7F078105910508F008CFE9813C
:103A3000FA8120812B3309F002CF70931F0360932A
:103A40001E03CAC14AE050E067E674E0C8010E9464
:103A5000672A892BD9F4C8010A969A838983F801C9
:103A60008285803329F0813309F0E9CE81E001C0FD
:103A700080E09801255F3F4F3A832983F8019385C1
:103A80009B3309F0DCCE80932303A8C24BE050E0C7
:103A90006BE574E0C8010E94672A892B41F4C801D4
:103AA0000B969A83898345E065E673E021C04CE07C
:103AB00050E06EE474E0C8010E94672A892B41F44B
:103AC000C8010C969A83898345E064E273E010C0D4
:103AD00040E150E06DE374E0C8010E94672A892B41
:103AE00051F4C80140969A83898342E066EA73E004
:103AF0000E948014A0C248E050E064E374E0C80172
:103B00000E94672A892B41F4C80108969A83898309
:103B100041E060EC73E0ECCF43E050E060E374E040
:103B2000C8010E94672A892B19F56801F3E0CF0EBE
:103B3000D11CDA82C9826BE370E0C6010E94BD2A03
:103B40008C01009709F47BCE7C01EC18FD0821E480
:103B5000E216F10408F073CEA701B60181E394E008
:103B60000E94AD2AF701EF5CFB4F1082C80135C1FE
:103B700049E050E066E274E0C8010E94672A892BA0
:103B800011F58EE794E00E94D514882309F457CEEE
:103B9000C80109969A838983F8018185803329F0C9
:103BA000813309F04CCE81E001C080E09801265FAE
:103BB0003F4F3A832983F80192859B3309F03FCE2A
:103BC0008093740436C246E050E06FE174E0C801AF
:103BD0000E94672A892B11F58EE794E00E94D51484
:103BE000882309F42CCEC80106969A838983F801AC
:103BF0008681803329F0813309F021CE81E001C034
:103C000080E09801295F3F4F3A832983F80197812B
:103C10009B3309F014CE809372045EC047E050E0FD
:103C200067E174E0C8010E94672A892B59F58EE785
:103C300094E00E94D514882309F401CEC8010796A8
:103C40009A838983F801278130E0205331092A3093
:103C5000310508F0F4CD4AE050E0BE016F5F7F4FC0
:103C60000E9491286F3F71058105910511F008F0C0
:103C7000E6CDE981FA8120812B3309F0E0CD609314
:103C80002203AAC046E050E060E174E0C8010E944F
:103C9000672A892B21F58EE794E00E94D5148823AA
:103CA00009F4CDCDC80106969A838983F8018681EF
:103CB000803329F0813309F0C2CD81E001C080E07A
:103CC0009801295F3F4F3A832983F80197819B33FD
:103CD00009F0B5CD80937304C8010896ACC14CE0DF
:103CE00050E063E074E0C8010E94672A892BE9F480
:103CF000C8010C969A838983F8018485803329F062
:103D0000813309F09CCD81E001C080E09801235F00
:103D10003F4F3A832983F80195859B3309F08FCD76
:103D200080937504C8010E9686C148E050E06AEFA2
:103D300073E0C8010E94672A892B19F5C80108960B
:103D40009A838983F801208530E0205331092A3095
:103D5000310508F074CD4AE050E0BE016F5F7F4F3F
:103D60000E949128613871058105910508F067CDA1
:103D7000E981FA8120812B3309F061CD60937604CB
:103D80002BC048E050E061EF73E0C8010E94672A51
:103D9000892B29F5C80108969A838983F801208523
:103DA00030E0205331092A30310508F048CD4AE08F
:103DB00050E0BE016F5F7F4F0E949128613871050E
:103DC0008105910508F03BCDE981FA8120812B33F3
:103DD00009F035CD60937704CF0101962CC149E0FD
:103DE00050E067EE73E0C8010E94672A892B49F50D
:103DF000C80109969A838983F801218530E0205310
:103E000031092A30310508F01ACD4AE050E0BE01F0
:103E10006F5F7F4F0E9491288B019C010150110917
:103E2000210931090A3011052105310508F007CDB6
:103E3000E981FA8120812B3309F001CD6093780468
:103E4000CBCF4DE050E069ED73E0C8010E94672AD6
:103E5000892B59F5C8010D969A838983F801258528
:103E600030E0205331092A30310508F0E8CC4AE02F
:103E700050E0BE016F5F7F4F0E9491288B019C0133
:103E800001501109210931090C3211402105310578
:103E900008F0D5CCE981FA8120812B3309F0CFCC11
:103EA000709321036093200397CF46E050E062EDCA
:103EB00073E0C8010E94672A892BD9F4C8010696CD
:103EC0009A838983F8018681803329F0813309F050
:103ED000B6CC81E001C080E09801295F3F4F3A8372
:103EE0002983F80197819B3309F0A9CC8093790449
:103EF000F3CE4AE050E067EC73E0C8010E94672A05
:103F0000892BD9F4C8010A969A838983F80182859E
:103F1000803329F0813309F092CC81E001C080E048
:103F20009801255F3F4F3A832983F80193859B339E
:103F300009F085CC80937A0451C048E050E06EEBE4
:103F400073E0C8010E94672A892B09F5C801089609
:103F50009A838983F8018085803339F0813339F081
:103F6000823309F06CCC82E003C080E001C081E0C4
:103F70009801275F3F4F3A832983F80191859B334E
:103F800009F05DCC80937C04C8010A9654C04AE0D5
:103F900050E063EB73E0C8010E94672A892B09F5A2
:103FA000C8010A969A838983F8018285803329F0B3
:103FB000813309F044CC82E001C080E09801255FA4
:103FC0003F4F3A832983F80193859B3309F037CC1F
:103FD00090917B049D7F892B80937B04C8010C9674
:103FE0002AC049E050E069EA73E0C8010E94672AEC
:103FF000892B09F024CCC80109969A838983F8019A
:104000008185803329F0813309F019CC81E001C02A
:1040100080E09801265F3F4F3A832983F80192851B
:104020009B3309F00CCC90917B049E7F892B80936D
:104030007B04C8010B960F900F90DF91CF911F91D9
:104040000F91FF90EF90DF90CF900895EF92FF9245
:104050000F931F93CF93DF93CDB7DEB7C054D140FA
:104060000FB6F894DEBF0FBECDBF8C018AE090E0A2
:104070000E94F42244E050E064EC79E0C8010E9420
:10408000672A892BB1F561E08EE794E00E94F8146D
:10409000811109C080912303813029F46EE774E017
:1040A00086EB99E0E1C0C801049600E010E00097BB
:1040B00019F411110DC015C0FC0120812223C9F390
:1040C0000E94FD1B009711F01F5FF1CF01E0EFCFC1
:1040D000011107C00E94F10B6EE774E083EB99E0D9
:1040E000C3C080E00E94450C6EE774E08DEA99E061
:1040F000BBC044E050E068EA79E0C8010E94672A4A
:10410000892BE1F561E08EE794E00E94F8148111BB
:1041100009C080912303813029F46EE774E08AE9B5
:1041200099E0A2C0C8010496198210E09E012F5F99
:104130003F4F7901009709F48AC0FC0120812223B6
:1041400009F485C0F70101900020E9F7BF01615033
:1041500071090E944015009709F482C01F5FF701A2
:1041600001900020E9F73197EE19FF09E13AF105D6
:1041700008F36EE774E085E799E076C040E150E02F
:1041800064E679E0C8010E94672A892B49F41092FD
:1041900023030E94F10B6EE774E081E699E064C0AE
:1041A00049E050E067E579E0C8010E94672A892B61
:1041B000C1F461E08EE794E00E94F8146EE774E0C9
:1041C000811107C080912303813019F489E499E0BB
:1041D0004BC081E399E00E949A1081E080938B02AA
:1041E00045C040E150E060E279E0C8010E94672AE2
:1041F000892B89F44CE050E060EC73E08EE794E0AA
:104200000E94A02A892B91F50E94702190937A0038
:10421000809379002BC045E050E06AE179E0C80165
:104220000E94672A892B11F561E08EE794E00E94D5
:10423000F8146EE774E0811107C080912303813088
:1042400019F48CE099E010C089EC99E00DC01123BD
:1042500069F06EE774E0CE0101960E945D1006C021
:104260006EE774E084E999E00E949A10C05CDE4F2A
:104270000FB6F894DEBF0FBECDBFDF91CF911F9177
:104280000F91FF90EF90089580918000882371F046
:104290000E94E40F1092800080918100882331F009
:1042A0008BE894E00E9477081092810008958DE0D9
:1042B00083BF12BE87E48CBF89B7826089BF08952F
:1042C0002FB7F8948091B0029091B1022FBF08955A
:1042D0002FB7F8948091AE029091AF022FBF08954E
:1042E0002FB7F8948091AC029091AD022FBF089542
:1042F0008FB7F8941092A8021092A7028FBF08956A
:104300008091CD038823D1F080919F029091A002EB
:10431000A091A102B091A20280382EED920728E26E
:10432000A207B10558F40196A11DB11D80939F020B
:104330009093A002A093A102B093A202089580914D
:104340009B0290919C02A0919D02B0919E020196C9
:10435000A11DB11D80939B0290939C02A0939D028E
:10436000B0939E0208958091970290919802A09137
:104370009902B0919A020196A11DB11D80939702F6
:1043800090939802A0939902B0939A02809193021D
:1043900090919402A0919502B09196020196A11D70
:1043A000B11D8093930290939402A0939502B093D1
:1043B000960208950E947713882349F010928F0285
:1043C00010929002109291021092920208958091A0
:1043D0008F0290919002A0919102B0919202019669
:1043E000A11DB11D80938F0290939002A093910222
:1043F000B09392020895CF93DF93EC010E94602165
:10440000C80FD91F0E9460218C1B9D0B181619061E
:104410003CF00E9449238823A9F30E94DF0DF9CFC5
:10442000DF91CF910895CF93DF93EC010E94682133
:10443000C80FD91F0E9468218C1B9D0B18161906E6
:104440003CF00E9449238823A9F30E94DF0DF9CF95
:10445000DF91CF91089580E18FBD88E08EBD93E01C
:104460009BBD88EE8ABD99BD88BD08958EB58260DA
:104470008EBD8C9A0895F89421E02093AB0290931E
:10448000AA028093A9020E943622789408958EB5DC
:10449000887F8EBD8C9808958091AB028823A9F007
:1044A0008091A9029091AA028A30910530F00A9772
:1044B0009093AA028093A90208951092AA021092E2
:1044C000A9021092AB020C94472208951F920F92FA
:1044D0000FB60F9211242F933F934F935F936F93D7
:1044E0007F938F939F93AF93BF93EF93FF930E941C
:1044F00059050E94FF130E9442140E945D140E94FD
:104500004C228091B0029091B1020A969093B10230
:104510008093B00280918D028F5F843618F480936F
:104520008D0251C010928D028091AE029091AF0227
:1045300001969093AF028093AE028091A302909176
:10454000A402A091A502B091A6020196A11DB11DE1
:104550008093A3029093A402A093A502B093A60215
:104560008091690090916A008F3F2FEF920729F0A8
:10457000019690936A00809369008091A7029091C0
:10458000A80201969093A8028093A70280918C02C2
:104590008F5F8C3318F480938C020BC010928C02C6
:1045A0008091AC029091AD0201969093AD02809300
:1045B000AC020E94A1050E9480210E949F210E94BE
:1045C000B3210E94DA21FF91EF91BF91AF919F91AA
:1045D0008F917F916F915F914F913F912F910F90AC
:1045E0000FBE0F901F901895CF93DF93EC01809131
:1045F0007204813011F40E943622CE010E94FB2108
:104600000E9447228EE190E0DF91CF910C94FB2134
:104610001BB8882341F088E98AB986E880BD10BCC0
:1046200083E089B904C01AB810BC10BC19B8109244
:10463000B2021092B30208951F920F920FB60F921A
:1046400011248F939F93EF93FF938BB19CB18C7147
:1046500059F48091B302E82FF0E0EC54FD4F9083C1
:104660008F5F8F738093B302FF91EF919F918F9132
:104670000F900FBE0F901F9018959091B202E92FE6
:10468000F0E0EC54FD4F80819F5F9F739093B202E6
:10469000089581E02091B3029091B202291301C0E4
:1046A00080E00895FC019191992321F05D9BFECF5C
:1046B0009CB9F9CF0895FC019591992321F05D9B58
:1046C000FECF9CB9F9CF08955D9BFECF8CB90895BC
:1046D0000E94AA2308F481E00895E89409C097FB9A
:1046E0003EF490958095709561957F4F8F4F9F4FC9
:1046F0009923A9F0F92F96E9BB279395F69587950D
:1047000077956795B795F111F8CFFAF4BB0F11F4CF
:1047100060FF1BC06F5F7F4F8F4F9F4F16C0882376
:1047200011F096E911C0772321F09EE8872F762FAC
:1047300005C0662371F096E8862F70E060E02AF0ED
:104740009A95660F771F881FDAF7880F96958795D9
:1047500097F90895990F0008550FAA0BE0E8FEEFAE
:1047600016161706E807F907C0F012161306E40735
:10477000F50798F0621B730B840B950B39F40A262E
:1047800061F0232B242B252B21F408950A2609F40C
:10479000A140A6958FEF811D811D08950E94AA2337
:1047A00008F48FEF08950E94E6230C9457240E948A
:1047B000492438F00E94502420F0952311F00C94E5
:1047C00040240C94462411240C948B240E946824C9
:1047D00070F3959FC1F3950F50E0551F629FF00154
:1047E000729FBB27F00DB11D639FAA27F00DB11D6D
:1047F000AA1F649F6627B00DA11D661F829F2227F6
:10480000B00DA11D621F739FB00DA11D621F839F7C
:10481000A00D611D221F749F3327A00D611D231F52
:10482000849F600D211D822F762F6A2F11249F57A0
:1048300050409AF0F1F088234AF0EE0FFF1FBB1FA3
:10484000661F771F881F91505040A9F79E3F510562
:1048500080F00C9440240C948B245F3FE4F3983E4A
:10486000D4F3869577956795B795F795E7959F5F0C
:10487000C1F7FE2B880F911D9695879597F908959E
:1048800097F99F6780E870E060E008959FEF80EC03
:10489000089500240A9416161706180609060895A6
:1048A00000240A9412161306140605060895092E0C
:1048B0000394000C11F4882352F0BB0F40F4BF2B7B
:1048C00011F460FF04C06F5F7F4F8F4F9F4F0895BB
:1048D00057FD9058440F551F59F05F3F71F04795B1
:1048E000880F97FB991F61F09F3F79F08795089596
:1048F000121613061406551FF2CF4695F1DF08C0B5
:10490000161617061806991FF1CF869571056105D1
:1049100008940895E894BB2766277727CB0197F979
:104920000895A0E1B0E0E7E9F4E20C945A287C0194
:104930001B016A01FC0117821682838181FF44C337
:104940009E012F5F3F4F3901F7019381F10193FDE4
:10495000859193FF81911F01882309F431C385322A
:1049600039F493FD859193FF81911F01853239F4CC
:10497000B70190E00E94D32A56016501E5CF10E00F
:10498000512C912CFFE1F915D8F08B3279F038F4E5
:10499000803279F08332A1F4F92DF0612EC08D328E
:1049A00061F0803369F4292D21602DC0392D3260EA
:1049B000932E892D8460982E2AC0E92DE86015C0B9
:1049C00097FC2DC020ED280F2A3088F496FE06C0F3
:1049D0003AE0139F200D1124122F19C08AE0589E2F
:1049E000200D1124522EE92DE0629E2E10C08E3231
:1049F00031F496FCE5C2F92DF0649F2E08C08C3688
:104A000021F4292D2068922E02C0883641F4F1014C
:104A100093FD859193FF81911F018111B3CF9BEB92
:104A2000980F933020F4992D9061805E07C09BE928
:104A3000980F933008F066C1992D9F7E96FF16E07F
:104A40009F73992E853619F49064992E08C0863686
:104A500021F4392F3068932E02C01111115097FEA6
:104A600007C01C3350F444244394410E27E00BC08C
:104A7000183038F027E017E005C027E09CE3492E06
:104A800002C0212F412C560184E0A80EB11CF60172
:104A90006081718182819381042DA3010E94862906
:104AA0006C01F981FC87F0FF02C0F3FF06C091FCA6
:104AB00006C092FE06C000E205C00DE203C00BE294
:104AC00001C000E08C858C7019F001115AC29BC2A4
:104AD00097FE10C04C0CFC85F4FF04C08A81813322
:104AE00009F44A94141474F528E0241578F588E044
:104AF000482E2CC096FC2AC0812F90E08C159D0575
:104B00009CF03CEFC3163FEFD30674F0892D80680C
:104B1000982E0AC0E2E0F0E0EC0FFD1FE10FF11D5E
:104B20008081803319F411501111F4CF97FE0EC01B
:104B300044244394410E812F90E0C816D9062CF4EA
:104B40001C1904C04424439401C010E097FE06C021
:104B50001C141D0434F4C601019605C085E090E0E4
:104B600002C081E090E001110196112331F0212F64
:104B700030E02F5F3F4F820F931F252D30E08217CB
:104B8000930714F4581A01C0512C892D897049F4E7
:104B9000552039F0B70180E290E00E94D32A5A9460
:104BA000F7CF002329F0B701802F90E00E94D32A8D
:104BB00093FC09C0552039F0B70180E390E00E94D2
:104BC000D32A5A94F7CF97FE4CC04601D7FE02C0B5
:104BD000812C912CC60188199909F301E80FF91F5E
:104BE000FE87ED87960124193109388B2F87012F15
:104BF00010E01195019511093FEF8316930629F4F2
:104C0000B7018EE290E00E94D32AC814D9044CF078
:104C10008F8598898815990524F4ED85FE85818115
:104C200001C080E3F1E08F1A91082D853E852F5F4A
:104C30003F4F3E872D87801691062CF0B70190E0FC
:104C40000E94D32AD9CFC814D90441F49A8196334B
:104C500020F4953319F43C8534FF81E3B70190E0EB
:104C60004EC08A81813319F09C859F7E9C87B70155
:104C700090E00E94D32A111105C094FC18C085E66B
:104C800090E017C0B7018EE290E00E94D32A1E5F29
:104C900082E001E0080FF301E80FF11D8081B70108
:104CA00090E00E94D32A802F0113F3CFE6CF85E452
:104CB00090E0B7010E94D32AD7FC06C0C114D104EA
:104CC00041F4EC85E4FF05C0D194C194D1088DE294
:104CD00001C08BE2B70190E00E94D32A80E32AE072
:104CE000C216D1042CF08F5FFAE0CF1AD108F7CFAB
:104CF000B70190E00E94D32AB701C601C0960E9476
:104D0000D32A54C1833631F0833779F0833509F0E3
:104D100056C020C0560132E0A30EB11CF6018081BE
:104D2000898301E010E0630112C05601F2E0AF0E8A
:104D3000B11CF601C080D18096FE03C0612F70E0E7
:104D400002C06FEF7FEFC6010E94C82A8C01F92DC7
:104D5000FF7714C0560122E0A20EB11CF601C080FC
:104D6000D18096FE03C0612F70E002C06FEF7FEF2D
:104D7000C6010E947B2A8C01F92DF0689F2EF3FD5D
:104D80001AC0852D90E008171907A8F4B70180E232
:104D900090E00E94D32A5A94F4CFF60197FC8591B3
:104DA00097FE81916F01B70190E00E94D32A5110C4
:104DB0005A94015011090115110579F7F7C084368D
:104DC00011F0893661F5560197FE09C024E0A20E64
:104DD000B11CF60160817181828193810AC0F2E089
:104DE000AF0EB11CF60160817181072E000C880B9B
:104DF000990BF92DFF769F2E97FF09C0909580950E
:104E0000709561957F4F8F4F9F4FF0689F2E2AE0DE
:104E100030E0A3010E94312BC82EC6183FC0092DD7
:104E2000853721F40F7E2AE030E01DC0097F8F36E0
:104E300091F018F4883559F0C3C0803719F08837DD
:104E400011F0BEC0006104FF09C0046007C094FEF9
:104E500008C0066006C028E030E005C020E130E070
:104E600002C020E132E0560107FF09C084E0A80E2D
:104E7000B11CF601608171818281938108C0F2E0EA
:104E8000AF0EB11CF6016081718180E090E0A3015A
:104E90000E94312BC82EC6180F77902E96FE0BC09D
:104EA000092D0E7FC11650F494FE0AC092FC08C072
:104EB000092D0E7E05C0DC2C092D03C0DC2C01C0A1
:104EC000D12E04FF0DC0FE01EC0DF11D8081803359
:104ED00011F4097E09C002FF06C0D394D39404C024
:104EE000802F867809F0D39403FD11C000FF06C01F
:104EF0001C2DD51480F4150D1D190DC0D51458F4B2
:104F0000B70180E290E00E94D32AD394F7CFD51462
:104F100010F45D1801C0512C04FF10C0B70180E3EC
:104F200090E00E94D32A02FF17C001FD03C088E76A
:104F300090E002C088E590E0B7010CC0802F867831
:104F400059F001FF02C08BE201C080E207FD8DE253
:104F5000B70190E00E94D32AC11638F4B70180E36C
:104F600090E00E94D32A1150F7CFCA94F301EC0DC0
:104F7000F11D8081B70190E00E94D32AC110F5CFC6
:104F800015C0F4E0F51560F584E0581A93FE1FC0D3
:104F9000011127C02C8523FF2AC004E510E0392D1C
:104FA0003071932EF8018491811124C0552009F4A9
:104FB000E4CCB70180E290E00E94D32A5A94F6CF65
:104FC000F7018681978126C08FEF9FEF23C0B7013D
:104FD00080E290E00E94D32A5A945110F8CFD8CFA3
:104FE000512CB701802F90E00E94D32AD3CF08E53F
:104FF00010E0D5CF91108052B70190E00E94D32AE3
:105000000F5F1F4FCFCF23E0251510F483E0BDCFF6
:10501000512CC0CF6096E2E10C947628DB018F938F
:105020009F930E944F28BF91AF91A29F800D911D29
:10503000A39F900DB29F900D11240895A1E21A2E06
:10504000AA1BBB1BFD010DC0AA1FBB1FEE1FFF1F2C
:10505000A217B307E407F50720F0A21BB30BE40B7C
:10506000F50B661F771F881F991F1A9469F76095C3
:105070007095809590959B01AC01BD01CF0108957D
:10508000A29FB001B39FC001A39F700D811D112489
:10509000911DB29F700D811D1124911D08950E94D4
:1050A0004028A59F900DB49F900DA49F800D911D49
:1050B000112408952F923F924F925F926F927F92A8
:1050C0008F929F92AF92BF92CF92DF92EF92FF9218
:1050D0000F931F93CF93DF93CDB7DEB7CA1BDB0BC4
:1050E0000FB6F894DEBF0FBECDBF09942A88398869
:1050F00048885F846E847D848C849B84AA84B98470
:10510000C884DF80EE80FD800C811B81AA81B9817B
:10511000CE0FD11D0FB6F894DEBF0FBECDBFED018F
:105120000895A0E0B0E0E7E9F8E20C945B285C01A8
:105130006B017A016115710519F0FB019183808380
:10514000E114F10429F0C7010297839708F0C9C060
:10515000E5012196F5011081812F90E00E945E2AE1
:10516000892B11F05E01F4CF1D3229F42196F5014F
:10517000118101E007C01B3221F4E5012296F501FF
:10518000118100E0E114F104B1F0F0E1EF16F10457
:1051900029F4B0C010E3E114F10401F12AE0E216B1
:1051A000F104B1F180E1E816F10471F0E8E0EE16E7
:1051B000F104F1F413C0103341F588818F7D8835F7
:1051C00049F7198122960260F0E1EF2EF12C882434
:1051D0008A94982CA82CAFE0BA2E20C078E0E72E55
:1051E000F12C88248A94982CA82CEFE1BE2E16C0AE
:1051F0006FEF7FEFCB0197010F2C000C440B550B89
:105200000E941E2849015A0109C08AE0E82EF12CAB
:1052100069E9862E982CA82C69E1B62E40E060E062
:1052200070E0CB0127010F2C000C66087708FE0107
:1052300050ED352E310E29E0231570F42FEB210FA0
:105240002A3118F439EC332E06C02FE9210F2A3108
:1052500030F529EA322E310E232D30E02E153F0590
:10526000F4F44F3FC9F086169706A806B90688F0F1
:10527000A30192010E940E28232D30E040E050E06F
:10528000620F731F841F951F6217730784079507AA
:1052900010F44FEF01C041E021961081C8CFC11436
:1052A000D10451F0442311F0219703C001FF04C041
:1052B0002297F601D183C08300FF07C090958095A7
:1052C000709561957F4F8F4F9F4F4F3F79F482E2EA
:1052D00090E090939904809398043FEF2FEF9FEF15
:1052E0000DC040E030E020E090E008C0462F372FAE
:1052F000282F04C0103309F067CF5FCF642F732FBE
:10530000822FCDB7DEB7E1E10C947728283008F082
:1053100027E03327DA01990F311D87FD9160009650
:105320006105710539F432602E5F3D9330E32A95B3
:10533000E1F708959F3F30F080387105610509F06D
:105340003C5F3C5F3D93913008F08068911DDF9396
:10535000CF931F930F93FF92EF92192F987F9695FB
:10536000E92F96959695E90FFF27EA54FF4F992765
:105370003327EE24FF24A701E70105900894079442
:1053800028F4360FE71EF81E491F511D660F771FC0
:10539000881F991F0694A1F70590079428F4E70E3B
:1053A000F81E491F561FC11D770F881F991F661FC2
:1053B0000694A1F70590079428F4F80E491F561F8C
:1053C000C71FD11D880F991F661F771F0694A1F76D
:1053D0000590079420F4490F561FC71FD81F990F37
:1053E000661F771F881F0694A9F784911095177080
:1053F00041F0D695C79557954795F794E7941A9538
:10540000C1F7ECE5F0E06894159015913591659140
:10541000959105907FE27395E118F10A430B560BC5
:10542000C90BD009C0F7E10CF11E431F561FC91F5D
:10543000D01D7EF4703311F48A95E6CFE8940150C4
:1054400030F0080F0AF40027021708F4202F2395E4
:10545000022F7A3328F079E37D932A95E9F710C07B
:105460007D932A9589F606949795679537951795B4
:105470001794E118F10A430B560BC90BD00998F0A9
:1054800023957E9173957A3308F070E37C93201313
:10549000B8F77E9170617D9330F0839571E37D93D1
:1054A00070E32A95E1F71124EF90FF900F911F917F
:1054B000CF91DF91992787FD9095089591110C94D4
:1054C0008F2B803219F089508550C8F70895FB0161
:1054D000DC0104C08D910590801921F441505040A9
:1054E000C8F7881B990B0895FB01DC0105900D920C
:1054F0000020E1F70895FC01059061507040011013
:10550000D8F7809590958E0F9F1F0895FB015591B8
:105510005523A9F0BF01DC014D9145174111E1F779
:1055200059F4CD010590002049F04D9140154111ED
:10553000C9F3FB014111EFCF81E090E0019708959D
:10554000FB01DC0104C08D910190801921F44150D0
:105550005040C8F7881B990B0895FB01DC0102C07D
:1055600001900D9241505040D8F70895DC0101C0E0
:105570006D9341505040E0F70895FC0181918617EA
:1055800021F08823D9F7992708953197CF010895FD
:10559000FC016150704001900110D8F78095909502
:1055A0008E0F9F1F08950F931F93CF93DF93FB01DF
:1055B000238121FD03C08FEF9FEF2CC022FF16C077
:1055C00046815781248135814217530744F4A081D5
:1055D000B1819D012F5F3F4F318320838C932681C2
:1055E00037812F5F3F4F3783268314C08B01EC0137
:1055F000FB010084F185E02D0995892BE1F6D801A6
:1056000016968D919C911797019617969C938E9361
:105610001697CE01DF91CF911F910F910895AEE0C3
:10562000B0E0E5E1FBE20C9468280D891E898EE06C
:105630008C831A8309838FEF9FE79E838D83AE014E
:10564000475E5F4F6F89788DCE0101960E9491244D
:10565000EF81F885E00FF11F10822E96E4E00C94A4
:105660008428FA01AA27283051F1203181F1E894E9
:105670006F936E7F6E5F7F4F8F4F9F4FAF4FB1E045
:105680003ED0B4E03CD0670F781F891F9A1FA11D40
:10569000680F791F8A1F911DA11D6A0F711D811D41
:1056A000911DA11D20D009F468943F912AE0269F06
:1056B00011243019305D3193DEF6CF010895462F65
:1056C0004770405D4193B3E00FD0C9F7F6CF462F46
:1056D0004F70405D4A3318F0495D31FD40524193AF
:1056E00002D0A9F7EACFB4E0A6959795879577956C
:1056F0006795BA95C9F700976105710508959B01F3
:10570000AC010A2E06945795479537952795BA957B
:10571000C9F7620F731F841F951FA01D0895992755
:0857200088270895F894FFCFDB
:0C572800010101FF01810101FEFFFF00F3
:00000001FF
