:100000000C94B2070C94CF070C94CF070C94CF0735
:100010000C94CF070C94CF070C94CF070C94CF0708
:100020000C94CF070C94CF070C9461240C94CF0749
:100030000C94CF070C94EF240C94CF070C94CF07AB
:100040000C94CF070C94CF070C94CF070C94CF07D8
:100050000C94CF076E616E00696E660000407A10E6
:10006000F35A00A0724E18090010A5D4E80000E869
:100070007648170000E40B54020000CA9A3B0000C7
:1000800000E1F505000080969800000040420F0056
:100090000000A08601000000102700000000E80317
:1000A000000000006400000000000A0000000000E2
:1000B0000100000000002C76D888DC674F0823DFA1
:1000C000C1DFAE59E1B1B796E5E3E453C63AE65174
:1000D000997696E8E6C28426EB898C9B62ED407C9B
:1000E0006FFCEFBC9C9F40F2BAA56FA5F490055A37
:1000F0002AF75C936B6CF9676DC11BFCE0E40D475C
:10010000FEF520E6B500D0ED902E0300943577057E
:100110000080841E080000204E0A000000C80C3336
:100120003333330F986E12831141EF8D2114893BC5
:10013000E65516CFFEE6DB18D1844B381BF77C1D45
:10014000901DA4BBE424203284725E228100C9F198
:1001500024ECA1E53D2768747470004E6F20496E51
:100160007465726E657420636F6E6E656374696F1B
:100170006E2E20446576696365206973207265730D
:10018000657474696E672E005475726E206F6E20F0
:100190007365727665722066726F6D2061646D6939
:1001A0006E20534D532025732E2053756363657362
:1001B000732E005365727665722072656365697689
:1001C000656420636F6D6D616E6420746F2077616C
:1001D0006B652075702E005475726E206F6E2073E3
:1001E00065727665722066726F6D2061646D696EEE
:1001F00020534D532025732E204661696C2E0046F6
:1002000061696C20746F207475726E206F6E20733C
:1002100065727665722066726F6D2061646D696EBD
:1002200020534D532E204465766963652069732001
:10023000726573657474696E672E004E6F20636F0C
:100240006E6E656374696F6E20776974682073657C
:10025000727665722E005475726E206F666620731A
:1002600065727665722066726F6D20627574746F48
:100270006E20707573682E20537563636573732EDB
:10028000005475726E206F666620736572766572B3
:100290002066726F6D20757365722063616C6C20CF
:1002A00025732E20537563636573732E0053657237
:1002B00076657220726563656976656420636F6D2B
:1002C0006D616E6420746F207368757420646F773D
:1002D0006E2E005475726E206F666620736572769E
:1002E00065722066726F6D20627574746F6E207017
:1002F0007573682E204661696C2E204465766963AB
:100300006520697320726573657474696E67005443
:1003100075726E206F6666207365727665722066F0
:10032000726F6D207075736820627574746F6E2EB5
:10033000204661696C2E005475726E206F666620CF
:100340007365727665722066726F6D207573657263
:100350002063616C6C2025732E204661696C2E0031
:100360005475726E206F66662073657276657220B2
:1003700066726F6D20757365722063616C6C2E20E0
:100380004661696C2E204465766963652069732037
:10039000726573657474696E67004E6F20636F6E6B
:1003A0006E656374696F6E20776974682073657217
:1003B0007665722E000D0A00417574686F72697A55
:1003C0006174696F6E3A20426561726572202573AF
:1003D0000D0A00474554202F757020485454502F63
:1003E000312E310D0A486F73743A2025733A257502
:1003F0000D0A00474554202F646F776E20485454EF
:10040000502F312E310D0A486F73743A2025733AFC
:1004100025750D0A0022646F776E22002275702206
:100420000022726573706F6E73652200226F6B22FB
:10043000002273746174757322000D0A0041757493
:10044000686F72697A6174696F6E3A204265617291
:1004500065722025730D0A00474554202F7374617F
:1004600074757320485454502F312E310D0A486F43
:1004700073743A2025733A25750D0A004465766930
:100480006365207475726E6564206F6E20007777E7
:10049000772E79616E6465782E72750041542B4316
:1004A0004950434C4F53450D0041542B4349504351
:1004B0004C4F53450D0041542B434950534855541C
:1004C0000D0041542B43495053454E440D004154B7
:1004D0002B43495053544152543D22544350222CF3
:1004E000222573222C222564220D0041542B4344E3
:1004F0004E534F5249503D310D0041542B43444E11
:10050000534F5249503D300D00434F4E4E454354DA
:10051000204F4B0041542B43494653520D00495044
:1005200020475052534143540049502047505253A2
:100530004143540041542B43495053544154555363
:100540000D0041542B43494943520D00495020535B
:100550005441525400495020535441525400415484
:100560002B4349505354415455530D0041542B4390
:100570005354540D00495020494E495449414C00B0
:10058000434F4E4E454354494E4700495020494E33
:100590004400495020434F4E4649470041542B43A5
:1005A00049505354415455530D0041542B434D472A
:1005B00044413D2244454C20414C4C220D004154C5
:1005C0002B434D47443D25640D0041542B434D477B
:1005D0004C3D22414C4C220D002B434C49503A00DB
:1005E0002B434D54493A0041542B434D47533D2230
:1005F0002573220D0041542B434D47533D22257353
:10060000220D002B4353513A0041542B4353510DBB
:100610000041542B435245473F0D0041542B435258
:1006200045473F0D002B435245473A002B434F505F
:10063000533A0041542B434F50533F0D0041542B2C
:10064000434F50533D332C320D002B49504400533F
:10065000454E44204641494C0053454E44204F4BA3
:1006600000434F4E4E454354204641494C00434FB2
:100670004E4E454354204F4B004552524F52004F6F
:100680004B004552524F52004F4B004552524F5271
:10069000004552524F52002B434D474C3A004154B3
:1006A000480D0041542B434950484541443D310DCC
:1006B0000041542B43474154543D310D0041542BCC
:1006C000434C49503D310D0041542B434E4D493D63
:1006D000302C312C302C302C300D0041542B434D1C
:1006E00047463D310D00415445300D0041542646EA
:1006F0000D0041540D0041542B4350494E3D2225DD
:1007000073220D00343830310053494D2050494E8A
:10071000005245414459004552524F520041542B1A
:100720004350494E3F0D002B4950440041542B4348
:100730004950435347503D312C222573222C22250A
:1007400073222C222573220D00A9610000696E74AA
:1007500065726E65742E6D74732E727500000000E4
:1007600000000000000000000000000000006D74A8
:100770007300000000000000000000000000000006
:100780000000006D74730000000000000000000015
:100790000000000000000000AA610000696E74659E
:1007A000726E657400000000000000000000000090
:1007B000000000000000000000000000006764610D
:1007C0007461000000000000000000000000000054
:1007D0000000676461746100000000000000000018
:1007E00000000000000000BC610000696E746572CA
:1007F0006E65742E74656C65322E72750000000093
:1008000000000000000000000000000074656C653E
:1008100032000000000000000000000000000000A6
:100820000074656C653200000000000000000000EC
:100830000000000000000B620000696E7465726EBB
:1008400065742E6265656C696E652E7275000000B8
:1008500000000000000000000000006265656C6997
:100860006E650000000000000000000000000000B5
:100870006265656C696E65000000000000000000A4
:100880000000000000B3610000696E7465726E655F
:10089000742E796F746100000000000000000000F9
:1008A00000000000000000000000796F746100008B
:1008B00000000000000000000000000000000079BF
:1008C0006F746100000000000000000000000000E4
:1008D000000000004E6574776F726B20706172616A
:1008E0006D73206E6F7420636F6E666967757265D5
:1008F000642E005368757474696E6720646F776E38
:10090000207365727665722E205375636365737309
:100910002077696C6C206265207265706F727465F7
:10092000642E0053657276657220697320616C7263
:100930006561647920646F776E2E0072656C6179F1
:100940003D00636F6E6E6563743D0070726F6D7015
:10095000743D00616E737765723D00696E746572F7
:1009600076616C3D007265706F72743D00766F69E0
:1009700063653D00746573746D6F64653D00696403
:100980003D00746F6B656E3D00646576656C6F70DD
:10099000657270686F6E65733D0061646D696E703D
:1009A000686F6E65733D007573657270686F6E6514
:1009B000733D0025752E25752E25752E257500692C
:1009C000703D0061646D696E6D6F64653D007077A8
:1009D000643D00756E616D653D0061706E3D006F38
:1009E00070657261746F726E756D6265723D006CD8
:1009F0006F6E6770726573733D00706F72743D0047
:100A00007777772E005757572E0074657374646F8D
:100A10006D656E3D007777772E005757572E00642F
:100A20006F6D656E3D00636F6E6E6563743D25642A
:100A30003B00636F6E6E6563743B0070726F6D7028
:100A4000743D25643B0070726F6D70743B0065727D
:100A5000726F72313D25642C6572726F72323D2562
:100A6000643B006572726F723B00706572696F64FF
:100A70003D2564733B00696E74657276616C3B0062
:100A8000616E737765723D2564733B00616E7377A9
:100A900065723B007369676E616C3D256464426DED
:100AA0003B007369676E616C3B006E6F2065766515
:100AB0006E747320647572696E6720706173742040
:100AC0006D6F6E74683B006C6173746576656E74EF
:100AD0003D25732025646425646825646D25647351
:100AE0002061676F3B006C6173746576656E743B63
:100AF0000072656C61793D25753B0072656C6179AA
:100B00003B007265706F72743D25753B00726570B5
:100B10006F72743B00766F6963653D25753B0076A7
:100B20006F6963653B00746573746D6F64653D2523
:100B3000753B00746573746D6F64653B006C6F6E1C
:100B40006770726573733D25753B006C6F6E6770DF
:100B5000726573733B00286C6F7720647572696EE1
:100B6000672025756425756825756D257573293B86
:100B700000286F6B293B00286F766572766F6C7466
:100B8000616765293B00766F6C746167653D252E52
:100B900031665600766F6C746167653B00554E4B4D
:100BA0004E4F574E3B00444F574E3B0055503B0075
:100BB00073657276657273746174653D00736572F6
:100BC00076657273746174653B003B0025732C007D
:100BD000646576656C6F70657270686F6E65733D85
:100BE00000646576656C6F70657270686F6E6573B2
:100BF0003B003B0025732C0061646D696E70686F6B
:100C00006E65733D0061646D696E70686F6E6573CB
:100C10003B003B0025732C007573657270686F6E26
:100C200065733D007573657270686F6E65733B0028
:100C300061646D696E6D6F64653D25643B00616440
:100C40006D696E6D6F64653B00746F6B656E3D25FD
:100C5000733B00746F6B656E3B00756E616D653D37
:100C600025733B00756E616D653B007077643D25B3
:100C7000733B007077643B0061706E3D25733B00F1
:100C800061706E3B006F70657261746F726E756D2E
:100C90006265723D256C753B006F70657261746FA3
:100CA000726E756D6265723B00727374636F756E00
:100CB000743D256C753B6D646D5F727374636F7505
:100CC0006E743D256C753B00727374636F756E7442
:100CD0003B00706F72743D25753B00706F72743B02
:100CE0000074657374646F6D656E3D25733B0074AD
:100CF000657374646F6D656E3B003D25733B0064E6
:100D00006F6D656E00697000646F6D656E3B003DD0
:100D100025733B00646F6D656E0069700069703B00
:100D2000003D25733B706F72743D25753B746F6B8E
:100D3000656E3D25733B00646F6D656E00697000E4
:100D40006E6574706172616D733B003B00302E30D4
:100D50002E300076657273696F6E3D007665727332
:100D6000696F6E3B0069643D25733B0069643B001D
:100D70006572726F72733D256C753B006572726FA0
:100D800072733B0074696D653D2575642575682532
:100D9000756D2575733B0074696D653B0041636338
:100DA0006573732064656E6965640068656C703B8B
:100DB00000526573657420636F6D6D616E642061B0
:100DC000636365707465642E0041636365737320AB
:100DD00064656E6965640072657365746D63753B07
:100DE000004E6574776F726B20706172616D732055
:100DF0006E6F7420636F6E666967757265642E002E
:100E0000436F6D6D616E64206163636570746564CA
:100E10002E20537563636573732077696C6C206251
:100E200065207265706F727465642E00536572760A
:100E3000657220697320616C7265616479207570D8
:100E40002E004163636573732064656E6965640099
:100E500073657276657275703B006F6B00726573B7
:100E6000657461646D696E6D6F64652121007265E2
:100E700073756C74696E6720534D53207465787474
:100E800020697320746F6F206C6F6E6700657272DB
:100E90006F72004163636573732064656E69656496
:100EA000006765743A006572726F72006F6B004183
:100EB00063636573732064656E696564007365744C
:100EC0003A0073657276657275703B0D0A676574DA
:100ED0003A7365743A0D0A7573657270686F6E6562
:100EE000733B61646D696E70686F6E65733B6164BE
:100EF0006D696E6D6F64653B736572766572737450
:100F00006174653B76657273696F6E3B69703B64B3
:100F10006F6D656E3B706F72743B746F6B656E3B8B
:100F20006C6F6E6770726573733B6C61737465761A
:100F3000656E743B766F6C746167653B6E6574704B
:100F40006172616D733B69643B000000000000004A
:100F50000000000000000000000000000000000091
:100F60000000000011241FBECFE5D8E0DEBFCDBFDA
:100F700010E0A0E6B0E0E4EEFAE502C005900D92C4
:100F8000A436B107D9F725E0A4E6B0E001C01D9270
:100F9000A73EB207E1F70E9472160C94702D0C94D4
:100FA000000083E487B986EC86B90895CF93DF9378
:100FB00000D0CDB7DEB784B1898385B183708A83D1
:100FC00086EC86B940916A0050916B009A0184E0EA
:100FD000369527958A95E1F730936900209368004C
:100FE00089819A81840F951F821B930B90936B00CC
:100FF00080936A000F900F90DF91CF9108958FB783
:10100000F89420916800309169008FBF81E0293FFA
:10101000310508F480E008958FB7F8946091680076
:10102000709169008FBF80E090E00E943B2520E036
:1010300030E044E05DE30E947D2508950E94FF07B3
:10104000882349F0109264001092650010926600A7
:101050001092670008958091640090916500A091BE
:101060006600B09167000196A11DB11D80936400D8
:1010700090936500A0936600B0936700089508956B
:101080000F931F93CF93DF938B010E945D2CEC0194
:10109000892B69F1C8010E94492C8C0F9D1FFC010E
:1010A00020E030E04191442311F123363105F9F07D
:1010B000403211F0493019F42F5F3F4FF3CF4A33DC
:1010C000B1F42F5F3F4F280F391F50E0C901F901DC
:1010D00040812F5F3F4F442351F0533641F040325F
:1010E00011F0493011F45F5FF1CF423211F080E02E
:1010F00090E0DF91CF911F910F9108951F93CF93AF
:10110000DF9310927300109274006BE770E00E94FE
:10111000942C009789F161E374E00E944008EC018F
:10112000009751F144E050E06CE274E00E94352CED
:10113000892B11F511E01093740061E274E0CE0187
:101140000E944008EC010097B9F044E050E06CE1E7
:1011500074E00E94352C892B19F4109373000CC095
:1011600046E050E065E174E0CE010E94352C892B09
:1011700019F482E080937300DF91CF911F9108955D
:10118000EF92FF920F931F93CF93DF93CDB7DEB70C
:10119000C15AD1090FB6F894DEBF0FBECDBF809102
:1011A000EA048F938091E9048F9387EA94E09F93F8
:1011B0008F9388E594E09F938F939E012F5F3F4F1D
:1011C00079013F932F930E94ED2C8701080F191F7F
:1011D0008BEE94E00FB6F894DEBF0FBECDBF20912A
:1011E000EB04222391F09F938F938DE394E09F93E0
:1011F0008F931F930F930E94ED2C080F191F0F90D0
:101200000F900F900F900F900F908AE394E09F93B0
:101210008F931F930F930E94ED2C4091E9045091FE
:10122000EA042EE738E067EA74E0C7010E944F1431
:101230000F900F900F900F90813051F490917300A8
:101240009093710090938700911110C080E00EC0C0
:1012500090917100911106C020917200211102C07D
:10126000109287009093720010927100CF55DF4F5B
:101270000FB6F894DEBF0FBECDBFDF91CF911F91A7
:101280000F91FF90EF900895FF920F931F93CF93CC
:10129000DF93CDB7DEB7C15AD1090FB6F894DEBFE0
:1012A0000FBECDBF882311F1813009F076C0809147
:1012B000EA048F938091E9048F9387EA94E09F93E7
:1012C0008F9383ED93E09F938F938E010F5F1F4F5A
:1012D0001F930F930E94ED2C080F191F0FB6F8945F
:1012E000DEBF0FBECDBFFF24F3941EC08091EA0481
:1012F0008F938091E9048F9387EA94E09F938F9373
:1013000083EF93E09F938F938E010F5F1F4F1F9387
:101310000F930E94ED2C080F191F0FB6F894DEBF33
:101320000FBECDBF82E0F82E8BEE94E02091EB044F
:10133000222391F09F938F9388EB93E09F938F9359
:101340001F930F930E94ED2C080F191F0F900F9001
:101350000F900F900F900F9085EB93E09F938F93DA
:101360001F930F930E94ED2C4091E9045091EA04E1
:101370002EE738E067EA74E0CE0101960E944F1430
:101380000F900F900F900F90813039F4809174007E
:10139000813019F4F092870001C080E0CF55DF4F13
:1013A0000FB6F894DEBF0FBECDBFDF91CF911F9176
:1013B0000F91FF9008958091A704882361F0809198
:1013C000E9049091EA04892B29F081E0909185004D
:1013D000911101C080E008950F931F93CF93DF9385
:1013E000CDB7DEB7C15AD1090FB6F894DEBF0FBE34
:1013F000CDBF86E591E09F938F938E010F5F1F4FC6
:101400001F930F930E94ED2C20E030E040E550E068
:1014100068EC74E0C8010E944F1491E00F900F90A7
:101420000F900F90813009F090E0892FCF55DF4F5A
:101430000FB6F894DEBF0FBECDBFDF91CF911F91E5
:101440000F91089520918D042B3289F42091BF05CE
:10145000222369F06DE874E00E941F138091BF059C
:1014600081508093BF050E94FA0C81E0089580E0CE
:101470000895CF92DF92EF92FF920F931F93CF9335
:10148000DF939091670380918600911103C08823B8
:1014900009F4D0C0882321F08AE090E00E94C7249C
:1014A0000E94C7238C579C4F6C010FE013E0CDE4E2
:1014B000D5E087E3E82E83E0F82E80E00E9444091F
:1014C00081115BC00E94C7238C199D09181619064B
:1014D0000CF04DC080918600882341F168ED75E0E5
:1014E0008AE993E00E941F13882321F080E693E0AD
:1014F0000E94220A88ED95E09F938F93FF92EF92CE
:10150000DF93CF930E94ED2C8FB7F894109268036D
:101510001092690310926A0310926B038FBF0F90B1
:101520000F900F900F900F900F901DC08091670348
:101530008823C9F01F930F93DF93CF930E94ED2C64
:101540008FB7F894109268031092690310926A039F
:1015500010926B038FBF83ED92E00E94220A0F90DE
:101560000F900F900F900E947B0C0E94701680913C
:10157000C40590E00E940E24A0CF88E893E10E9469
:10158000F62380918600882361F1109286001092E4
:1015900089001092880068ED75E08DEA92E00E9463
:1015A0001F1388ED95E09F938F9381E892E09F93BE
:1015B0008F938DE495E09F938F930E94ED2C8FB7CE
:1015C000F894109268031092690310926A031092C3
:1015D0006B038FBF0F900F900F900F900F900F9095
:1015E0001FC0809167038823D9F01092670386E5B6
:1015F00092E09F938F938DE495E09F938F930E9449
:10160000ED2C8FB7F8941092680310926903109232
:101610006A0310926B038FBF0F900F900F900F9083
:10162000DF91CF911F910F91FF90EF90DF90CF90BE
:101630000C947B0CDF91CF911F910F91FF90EF9055
:10164000DF90CF900895EF92FF920F931F93CF9367
:10165000DF9380916503813009F079C00E94C72330
:101660008C579C4F7C01C7EDD1E00DE415E081E083
:101670000E9444098130C1F10E94C7238E199F093D
:10168000181619065CF569EC75E08BE392E00E9490
:101690001F13882321F08FEF91E00E94220A89EC2A
:1016A00095E09F938F93DF93CF931F930F930E94A7
:1016B000ED2C8FB7F8941092680310926903109282
:1016C0006A0310926B038FBF0E947B0C0E947016FE
:1016D0000F900F900F900F900F900F908091C40576
:1016E00090E00E940E24C3CF88EE93E00E94F62380
:1016F0001092650369EC75E083EB91E00E941F1383
:1017000089EC95E09F938F9388E891E09F938F9366
:101710008DE495E09F938F930E94ED2C8FB7F89402
:10172000109268031092690310926A0310926B037F
:101730008FBF0F900F900F900F900F900F90DF9131
:10174000CF911F910F91FF90EF900C947B0CDF9144
:10175000CF911F910F91FF90EF900895CF938091BB
:101760006000882369F0109260000E94C7232091D6
:10177000C405821B910905969093700080936F00B9
:101780000E94C72320916F0030917000821B930B41
:101790002091C40530E0281739070CF059C00E9489
:1017A0005F1280916E00863058F50E94C008C82FE5
:1017B000813039F410926E0010926D0010926C001E
:1017C00041C00E94DB098823E9F180916E008F5FA0
:1017D00080936E008091770090917800A0917900BD
:1017E000B0917A000196A11DB11D8093770090936E
:1017F0007800A0937900B0937A00C093750022C05E
:1018000080916C0090916D00019690936D00809393
:101810006C008835924010F00E9470160E94EC090E
:10182000811106C080916E008F5F80936E0002C0B0
:1018300010926E0080916E00883020F08BE591E070
:101840000E94220A0E94C7239093700080936F0029
:10185000CF9108959C019FB7F894E199FECF3FBBCB
:101860002EBB6DBB84E08CBB82E08CBB9FBF089518
:10187000E199FECF9FBB8EBBE09A8DB30895EF92A6
:10188000FF920F931F93CF93DF938C01060F171FC7
:10189000EC017A01E81AF90AC7018C0F9D1FC017E5
:1018A000D10721F069910E942A0CF6CFDF91CF91E8
:1018B0001F910F91FF90EF900895EF92FF920F9379
:1018C0001F93CF93DF938C01060F171FEC017A0152
:1018D000E81AF90AC7018C0F9D1FC017D10721F024
:1018E0000E94380C8993F6CFDF91CF911F910F9111
:1018F000FF90EF9008952FB7F8948091680390912E
:101900006903A0916A03B0916B032FBF8093B10567
:101910009093B205A093B305B093B40540E050E0B6
:101920006CE072E08BEB93E00C943F0C40E050E0F5
:101930006CE072E08BEB93E00E945D0C8091C1053E
:101940008F3F61F58CE092E0EBEBF3E0DF019C016F
:101950001D9221503040E1F781E08093C1058093D2
:10196000C0058093C20589E18093C30598E79093F1
:10197000C4059FE09093C5058093C6058EE894E06A
:101980009F938F9388EC94E09F938F930E94ED2C0C
:101990000E947B0C0F900F900F900F908FB7F894D0
:1019A000409168035091690360916A0370916B03E1
:1019B0008FBF8091B1059091B205A091B305B09110
:1019C000B405481759076A077B0798F48FB7F8944E
:1019D0004091B1055091B2056091B3057091B40585
:1019E000409368035093690360936A0370936B0399
:1019F0008FBF089544E052E061E070E08FEB95E026
:101A00000C943F0C04B603FC20C0EDE4F5E084E642
:101A1000DF011D928A95E9F78CE794E09F938F93FD
:101A2000FF93EF930E94ED2C8FB7F8941092680308
:101A30001092690310926A0310926B038FBF0E9489
:101A40007B0C0F900F900F900F908FE184BF089543
:101A5000EF92FF920F931F93CF93DF931F92CDB717
:101A6000DEB77C010E94BF238C010E0D1F1D0E945A
:101A7000BF23801B910B1816190654F00E941C25D9
:101A80008823A9F30E941025898389818983EACF5D
:101A90000F90DF91CF911F910F91FF90EF900895DC
:101AA000CF92DF92EF92FF920E94C7232091830092
:101AB00030918400821B930B0B9744F0809182003D
:101AC000882321F080937600109282000E941C25CA
:101AD000882309F4D6C00E94C72390938400809382
:101AE00083000E94102590918200933029F118F410
:101AF000992341F0C6C0943009F457C0953009F4D9
:101B0000A1C0BFC0882309F4BCC08D3009F4B9C09E
:101B10008A3009F4B6C080938F0021E030E0309322
:101B200081002093800093E0909382008E3309F02F
:101B3000A8C010929000A0C0209180003091810038
:101B4000F901E157FF4F8083A9014F5F5F4F509329
:101B5000810040938000403D92E0590728F01092A8
:101B600081001092800032C04230510508F489C0D3
:101B7000F901E257FF4F90819D3021F48A3011F432
:101B800010827AC04530510509F07BC044E050E036
:101B900067E277E08FE890E00E94352C892B09F00E
:101BA00070C084E0809382006CC0209180003091EE
:101BB0008100F901E157FF4F80832F5F3F4F309342
:101BC0008100209380002930310518F010928200A6
:101BD00058C08A3309F055C08091930090E0C097B7
:101BE0000A97A0F74AE050E060E070E083E990E0F7
:101BF0000E945F2A20918000309181006B017C015E
:101C0000C20ED31EE11CF11C40EDC41642E0D40606
:101C1000E104F104D8F67093D7056093D605620FFE
:101C2000731F70937F0060937E0021573F4F309366
:101C3000C8052093C70585E080938200603D72400F
:101C400028F61FC02091800030918100F901E157F2
:101C5000FF4F8083C901019690938100809380009B
:101C6000803D22E0920708F07ACF20917E003091EB
:101C70007F008217930728F0109282008FE890E08F
:101C800002C080E090E0FF90EF90DF90CF90089549
:101C90000E94FB1680E00E94FF168CED95E00E94EA
:101CA000F6230C94FD16CF93DF930E94500DEC01A8
:101CB000009759F160EE75E00E945D2C892B21F0B0
:101CC00081E08093620024C069ED75E0CE010E943E
:101CD0005D2C0097E1F06BE270E006960E94942C78
:101CE000EC0160E00E946D18882359F081E0809338
:101CF00089008CE0FE01A8EDB5E001900D928A9577
:101D0000E1F781E08093880003C080E001C081E0BA
:101D1000DF91CF910895CF93DF93EC010E94BF2311
:101D2000C80FD91F0E94530E81110AC00E94BF2301
:101D30008C1B9D0B18161906ACF780E090E002C0D2
:101D40008FE890E0DF91CF910895CF93DF93EC017E
:101D50000E94BF23C80FD91F0E94530E811109C0D2
:101D60000E94BF238C1B9D0B18161906ACF780E050
:101D700012C067E976E08FE890E00E945D2C892B25
:101D800049F461E976E08FE890E00E945D2C892BB0
:101D900019F3EDCF81E0DF91CF910895CF93DF93D9
:101DA000C82F0E94C7238C0F911DEC010E94530E77
:101DB000811109C00E94C7238C1B9D0B18161906A0
:101DC000ACF780E00EC080918F008E3349F06BE855
:101DD00076E08FE890E00E945D2C892B39F3F1CFFB
:101DE00081E0DF91CF910895CF93DF93C82F0E94B8
:101DF000C7238C0F911DEC010E94530E811109C065
:101E00000E94C7238C1B9D0B18161906ACF780E0A7
:101E100012C068E876E08FE890E00E945D2C892B84
:101E200049F462E876E08FE890E00E945D2C892B0F
:101E300019F3EDCF81E0DF91CF910895CF93DF9338
:101E4000EC010E94BF23C80FD91F0E94530E8111BD
:101E500009C00E94BF238C1B9D0B18161906ACF7F6
:101E600080E012C06FE776E08FE890E00E945D2C82
:101E7000892B49F469E776E08FE890E00E945D2CB9
:101E8000892B19F3EDCF81E0DF91CF9108957F92F7
:101E90008F929F92AF92BF92CF92DF92EF92FF927A
:101EA0000F931F93CF93DF93CDB7DEB7CB54D109F8
:101EB0000FB6F894DEBF0FBECDBF4091BC0350916A
:101EC000BD036091BE037091BF0380918B00909120
:101ED0008C00A0918D00B0918E00481759076A07B9
:101EE0007B0749F4452B462B472B09F479C02091F9
:101EF000C003211123C0893A21E69207A105B1054B
:101F000009F472C08A3A31E69307A105B10509F4D4
:101F10006DC08C3B21E69207A105B10509F468C0AC
:101F20008B3032E69307A105B10509F463C0833B0A
:101F30009146A105B10509F053C05EC02091E103AF
:101F40002223C9F260EC73E0CE0101960E949F2C1F
:101F500061EE73E0CE01C7960E949F2C66EF73E09E
:101F6000CE0182960E949F2C83E0782E8E010E5D1A
:101F70001F4F7E0137E3E30EF11CCE0101964C01A9
:101F80009CE2C92E97E0D92E2FE8A22E20E0B22E97
:101F900084E690E00E94F6231F930F93FF92EF9246
:101FA0009F928F92DF92CF92BF92AF920E94ED2CC0
:101FB0008FE890E00E94252588E893E10E941E0F9B
:101FC0000FB6F894DEBF0FBECDBF813029F07A94F2
:101FD0007110DECF882331F091E09093850027C007
:101FE0008FEF25C080E023C000E007C001E005C0FE
:101FF00002E003C003E001C004E03FE4039F80016E
:102000001124B801635B784FCE0101960E94422CE7
:10201000B8016259784FCE01C7960E94422CB80190
:102020006D57784FCE0182960E94422C9DCFC55BA2
:10203000DF4F0FB6F894DEBF0FBECDBFDF91CF915B
:102040001F910F91FF90EF90DF90CF90BF90AF90D6
:102050009F908F907F9008950F931F93CF93DF935E
:1020600000D000D01F92CDB7DEB784EF91E00E9480
:10207000F6238DE197E00E942E2588E893E10E94E7
:102080008B0E8C01009709F443C067E177E00E9452
:102090005D2C892BE9F561E177E0C8010E945D2C98
:1020A000892BA1F569E077E0C8010E945D2C892B9E
:1020B00079F188E893E10E941E0F84EF91E00E947D
:1020C000F62384E097E09F938F938E010F5F1F4F5D
:1020D0001F930F930E94ED2C1F930F9386EF96E0B2
:1020E0009F938F938FE890E09F938F930E94ED2CA6
:1020F0008FE890E00E94252588E893E10E941E0F5A
:102100000FB6F894DEBF0FBECDBF03C081E001C0A3
:1021100080E00F900F900F900F900F90DF91CF9174
:102120001F910F9108950F931F93CF930E94C72380
:102130008C01085A1D4F8091C2058823C1F00E946E
:10214000241782E390E00E94F6230E94201780EA81
:102150009FE00E94F6230E94221782E390E00E94F3
:10216000F6230E94261780EA9FE00E94F6230E9431
:10217000C723801B910B181619060CF49FC00E94F0
:10218000480E8FE090E00E940E2482EF96E00E94BD
:102190002E2580ED97E00E941E0F882341F388EEE4
:1021A00093E00E94F6238CEE96E00E942E2588E8AC
:1021B00093E10E941E0F8823D1F288EE93E00E94E3
:1021C000F62386EE96E00E942E2588E893E10E9491
:1021D0001E0F882361F2C3E088EE93E00E94F6238D
:1021E0000E942C10813029F0C150B1F7882309F4E6
:1021F000BECFC3E088EE93E00E94F6238BED96E01D
:102200000E942E2588E893E10E941E0F813029F05C
:10221000C15081F7882309F4AACFC3E088EE93E088
:102220000E94F62388EC96E00E942E2588E893E130
:102230000E941E0F813029F0C15081F7882309F4D4
:1022400096CFC3E088EE93E00E94F6238DEB96E0F4
:102250000E942E2588E893E10E941E0F813029F00C
:10226000C15081F7882309F482CFC3E088EE93E060
:102270000E94F62381EB96E00E942E2588E893E1E8
:102280000E941E0F813029F0C15081F7882309F484
:102290006ECFC3E088EE93E00E94F62383EA96E0D7
:1022A0000E942E2588E893E10E941E0F813041F0A4
:1022B000C15081F7882309F45ACF02C080E001C0E1
:1022C00081E0CF911F910F910895CF93C3E084E6F1
:1022D00090E00E94F6238EE996E00E942E2588E881
:1022E00093E10E941E0F811102C0C15081F7CF916E
:1022F0000895CF93DF93C82F0E94C7238C0F911DA1
:10230000EC010E94530E811109C00E94C7238C1B4F
:102310009D0B18161906ACF780E012C06EE676E049
:102320008FE890E00E945D2C892B49F461E676E00D
:102330008FE890E00E945D2C892B19F3EDCF81E0AE
:10234000DF91CF910895CF93DF93C82F0E94C723C9
:102350008C0F911DEC010E94530E811109C00E9447
:10236000C7238C1B9D0B18161906ACF780E012C012
:1023700069E576E08FE890E00E945D2C892B49F4B6
:102380006FE476E08FE890E00E945D2C892B19F3D2
:10239000EDCF81E0DF91CF9108950F931F93CF93FD
:1023A000C82F0E94C7238C010C0F111D0E94530ED1
:1023B000C82F811108C00E94C723801B910B1816DB
:1023C0001906A4F70BC044E050E06AE476E08FE819
:1023D00090E00E94352C892B49F7C1E08C2FCF91DA
:1023E0001F910F9108950F931F93CF938C010E941B
:1023F000BF23080F191F0E94530EC82F811108C058
:102400000E94BF23801B910B18161906A4F701C068
:10241000C1E08C2FCF911F910F910895CF93DF933F
:102420000E94C723EC0164960E94C7238C1B9D0B5E
:102430001816190614F480E03FC084E690E00E946C
:10244000F6238DE396E00E942E2588E893E10E9412
:102450001E0F813049F784E690E00E94F62383E363
:1024600096E00E942E2588E893E10E94F3118130C6
:10247000D9F66CE276E08FE890E00E945D2C009740
:1024800091F362E270E00E94942C009761F34AE0BD
:1024900050E060E070E001960E945F2A61157105CE
:1024A0008105910541F260938B0070938C008093BD
:1024B0008D0090938E0081E0DF91CF91089584E6A6
:1024C00090E00E94F62389E096E00E942E2588EB9A
:1024D0009BE00E94F311811104C08FEF8093610093
:1024E000089563E076E08FE890E00E945D2C00970D
:1024F00071F36AE370E00E94942C009771F3FC0181
:10250000228130E0205331092A30310530F74AE08A
:1025100050E060E070E002960E945F2A6032710530
:1025200081059105D0F6660F6157609361000895AB
:10253000CF93DF93EC010E94BF23C80FD91F0E94E5
:10254000530E811108C00E94BF238C1B9D0B1816CF
:102550001906ACF71CC065E276E08FE890E00E94B7
:102560005D2C009761F36CE270E00E94942C009760
:1025700031F34AE050E060E070E001960E945F2A8B
:10258000DC01CB018B7F0197A105B10511F080E043
:1025900001C081E0DF91CF91089584E690E00E9430
:1025A000F6238BE196E00E942E2588E893E10E94B5
:1025B0009812813019F480938A00089510928A004D
:1025C00080E008950F931F93CF93DF93EC01162FB4
:1025D000072F0E94CD12882361F184E690E00E94CB
:1025E000F6230F931F9385EF95E09F938F938FE8CA
:1025F00090E09F938F930E94ED2C8FE890E00E94D3
:10260000252584E10E94CE0E0F900F900F900F9021
:102610000F900F90882369F0CE010E9425258AE152
:102620000E9437258BE0DF91CF911F910F910C9481
:10263000F40E80E0DF91CF911F910F9108950F93D9
:102640001F93CF93DF93EC01162F072F0E94CD121B
:10265000882361F184E690E00E94F6230F931F9394
:1026600087EE95E09F938F938FE890E09F938F93F1
:102670000E94ED2C8FE890E00E94252584E10E94C5
:10268000CE0E0F900F900F900F900F900F90882309
:1026900069F0CE010E942E258AE10E9437258BE049
:1026A000DF91CF911F910F910C94F40E80E0DF9198
:1026B000CF911F910F910895CF93DF93EC010E946A
:1026C000C723C80FD91F88EE93E00E94F62381E14B
:1026D00096E00E942E2588E893E10E9498128130AE
:1026E00049F00E94C7238C1B9D0B181619065CF736
:1026F00080E001C081E0DF91CF910895FC0120814D
:102700002B3271F431960C96219130E0205331092F
:102710002A30310528F4E817F907B1F781E0089568
:1027200080E0089584E690E00E94F6238AEA95E02E
:102730000E942E258AE00C94F40EAF92BF92CF92A5
:10274000DF92EF92FF920F931F93CF93DF938091CD
:102750006200882361F184E690E00E94F6238AEC0F
:1027600095E00E942E2588E893E10E94A50E813015
:10277000D1F46AE370E08FE890E00E94942C009717
:1027800091F3AC014F5F5F4F0696EA014F5F5F4FD9
:10279000288130E0205331092A30310550F04817A4
:1027A000590799F7E0CF0E9492131092620080E0DF
:1027B0006BC04AE050E060E070E0CE010E945F2A0A
:1027C0006B017C01C114D10481E0E806F10458F6E4
:1027D0006CE270E0CE010E94942C009721F26CE232
:1027E00070E00E94942C009709F4BDCF6BE270E07A
:1027F0000E94942CEC01009779F00E947E138823AC
:1028000009F4B1CF8CE0FE01A9ECB5E001900D9286
:102810008A95E1F71092D50588E893E10E94F311BB
:10282000813009F688EE93E00E94280D8FE890E051
:102830000E945822C3E00EEB15E08FE8A82E80E03E
:10284000B82E84E690E00E94F623DF92CF921F9389
:102850000F93BF92AF920E94ED2C8FE890E00E9400
:10286000252588E893E10E941E0F0F900F900F908E
:102870000F900F900F90813011F0C15011F784E646
:1028800090E00E94F62381E0DF91CF911F910F919C
:10289000FF90EF90DF90CF90BF90AF9008957F9220
:1028A0008F929F92AF92BF92CF92DF92EF92FF9260
:1028B0000F931F93CF93DF937C01FB0180818823CB
:1028C00009F400C24115510509F490C18901EA01DA
:1028D0004B010E94CD12882309F48AC1F3E0DF2E58
:1028E00084E690E00E94F6238CE995E00E942E2574
:1028F00088EB9BE00E941E0F813031F0DA94D110FA
:10290000EFCF882309F476C188EB9BE00E94F31196
:10291000882309F471C162E975E08FE890E00E94B4
:102920005D2C892B09F06AC16BE875E08FE890E0B7
:102930000E945D2C892B09F061C160E875E08FE889
:1029400090E00E945D2C892B09F05AC165E775E083
:102950008FE890E00E945D2C892B09F449C0E3E0E8
:10296000DE2E84E690E00E94F6238CE695E00E943D
:102970002E2580E797E10E941E0F813019F0DA942E
:10298000D110EFCF0E94C7230A965C0188EE93E036
:102990000E94F62373E0D72E84E690E00E94F6238F
:1029A0008EE595E00E942E2588EB9BE00E941E0F8D
:1029B000813031F0DA94D110EFCF882309F422C1AD
:1029C00088EB9BE00E94F311882309F41DC165E5A3
:1029D00075E08FE890E00E945D2C892B49F40E94FD
:1029E000C7238A199B091816190684F686E06AC15E
:1029F0006CE475E08FE890E00E945D2C892B09F46F
:102A00004CC063E0D62E84E690E00E94F62382E478
:102A100095E00E942E2580E797E10E941E0F8130ED
:102A200031F0DA94D110EFCF882309F4EFC00E947F
:102A3000C7230A965C0188EE93E00E94F62353E0D8
:102A4000D52E84E690E00E94F62384E395E00E9470
:102A50002E2588E893E10E941E0F813031F0DA9430
:102A6000D110EFCF882309F4D3C088E893E10E9406
:102A7000F311882309F4CEC069E275E08FE890E095
:102A80000E945D2C892B49F40E94C7238A199B0957
:102A90001816190684F68AE015C16EE175E08FE814
:102AA00090E00E945D2C892B61F469E075E08FE86D
:102AB00090E00E945D2C892B09F0B2C043E0D42E37
:102AC00024C033E0D32E84E690E00E94F62384E114
:102AD00095E00E942E2588E893E10E94F311813051
:102AE00021F3DA94D110EFCF8111DFCF8BE0EAC070
:102AF0008BEE94E00E942E2588E893E10E941E0F41
:102B0000813099F0DA94DD2069F084E690E00E944B
:102B1000F6238091A70490E0C0970A9748F78AEFC0
:102B200094E0E8CF882309F477C083E0782E9EEC08
:102B3000C92E94E0D92E2FE8A22E20E0B22E84E6F2
:102B400090E00E94F623DF93CF939F928F92DF92C3
:102B5000CF92BF92AF920E94ED2C8FE890E00E943E
:102B6000252588E893E10E941E0FEDB7FEB7389641
:102B70000FB6F894FEBF0FBEEDBF813031F07A94EE
:102B80007110DDCF882309F449C08091C6050E94E9
:102B90007911882309F446C084E690E00E94F62368
:102BA00082EC94E00E942E258091C5050E94CE0EF5
:102BB0008130D1F5C7010E9425258AE10E94372581
:102BC0008AE00E94A311813089F58091C3050E949B
:102BD000CD11813069F50115110509F465C08091A9
:102BE000C7059091C805F80109955EC080E06AC0EC
:102BF00083E168C082E066C083E064C08CE062C0AC
:102C000084E160C084E05EC085E05CC087E05AC0BB
:102C100088E058C089E056C08DE054C08EE052C0B4
:102C2000C3E107C0CFE005C0C2E103C0C1E101C0FC
:102C3000C0E180917D008F3F19F08F5F80937D0010
:102C400080917D00813031F40E94C72390937C00F5
:102C500080937B000E94C72320917B0030917C00F1
:102C6000821B930B2091C40530E0821793077CF000
:102C700010927D0084E690E00E94F62386EB94E0BB
:102C80000E942E2588E893E10E941E0F0BC084E667
:102C900090E00E94F62389EA94E00E942E258AE0C3
:102CA0000E94F40E8C2F0EC010927D0084E690E0FE
:102CB0000E94F6238CE994E00E942E258AE00E946F
:102CC000F40E81E0DF91CF911F910F91FF90EF9073
:102CD000DF90CF90BF90AF909F908F907F9008959E
:102CE000F894FFCF0E9481170E94B6230E942624E9
:102CF00081E00E94DB240E94D107789484E690E072
:102D00000E94F6230E94960C0E94020D0E947917E1
:102D10008AE090E00E94C7248AE090E00E94C724E5
:102D20008AE090E00E94C7240E94931081111CC089
:102D30008091B7059091B805A091B905B091BA05F9
:102D4000803828E3920721E0A207B10558F40196E4
:102D5000A11DB11D8093B7059093B805A093B90547
:102D6000B093BA05F894FFCF0E94CF2388E592E094
:102D70000E945C13811102C0F894FFCF0E94CF2300
:102D80000E940E12811102C0F894FFCF0E94470FDB
:102D9000811102C0F894FFCF0E94CF238AE090E017
:102DA0000E94C7248AE090E00E94C72488EC90E04B
:102DB0000E94C7240E949D130E9492138091640375
:102DC000882311F0F894FFCF0E94390A0E94230B48
:102DD0000E94AE0B0E94CF230E9479170E949D1380
:102DE0000E948A230E943F080E941C25882331F3F9
:102DF0000E94530EF9CFD29A0895D298089588234D
:102E000011F0DA9A0895DA98089580B385FB88273F
:102E100080F908958B98939A089588B38F7188BB31
:102E200087B3806E87BB0895C59A0895C5980895A5
:102E3000C69A0895C6980895C79A0895C7980895A0
:102E4000AF9A0895AF980895AE9A0895AE980895F0
:102E50008091630381110AC083990FC083990DC0CB
:102E600083990BC081E08093630307C0839B05C0F7
:102E7000839B03C083991092630380916303089539
:102E8000CF930E940517882349F00E9405178823D5
:102E900029F00E940517C1E0811101C0C0E08091B6
:102EA0006300C81719F1C13091F480E00E94DB245F
:102EB0008BB38F708BBB8AB38F708ABB82B38C7BD2
:102EC00082BB81B38C7B81BBC298BA980DC0C2987B
:102ED000BA9A8BB38F758BBB8AB3806A8ABB909882
:102EE00081E081BB0E94DB24C09363008C2FCF91D3
:102EF00008950E944017882319F00E94CF23F9CF2C
:102F0000089518BA84E087BB1BBA80EA8ABB12BA5C
:102F100082E181BB85B38F7385BB84B3806C84BB36
:102F20000E940A170C940D17809162038F5F8B34F7
:102F300018F48093620302C01092620380918700AC
:102F4000813031F0823049F480916203811103C0F5
:102F50000E94141704C0883011F40E9416170E94B2
:102F6000FF07882319F00E941C170AC00E941E1731
:102F700080916203811102C00C941817883011F4FB
:102F80000C941A1708950E942817882339F180910C
:102F90006003909161032091B5053091B605281723
:102FA000390730F00A969093610380936003089587
:102FB00080915F03811118C080918700823039F0C1
:102FC0000E94DB09882319F081E08093670381E088
:102FD00080935F0384E690E00C94362410926103A2
:102FE0001092600310925F030895CF92DF92EF92E8
:102FF000FF920F931F93CF93DF93EC017B01142F6C
:103000006C0100E0C6010E947E13882369F00F5F07
:103010001017A8F1F60184858B3331F08C3279F5E5
:10302000FDE0CF0ED11CEECFC701AE0120E00217AC
:1030300071F03CE0FA01DC0101900D923A95E1F764
:10304000FC011486435F5F4F2F5F0D96F0CFFDE0CC
:103050000F9FC0011124C80FD91F212F30E0201B62
:1030600031096DE0629FA001639F500D112460E063
:1030700070E08E0D9F1D0E948D2CCE0102C080E05D
:1030800090E0DF91CF911F910F91FF90EF90DF9033
:10309000CF900895CF93DF93EC0180918D048B3214
:1030A00049F44CE050E06DE874E0CE010E94772CCA
:1030B000892B79F080919A048B3249F44CE050E0EE
:1030C0006AE974E0CE010E94772C892B11F080E030
:1030D00001C081E0DF91CF910895EF92FF920F93AD
:1030E0001F93CF937C01C62F6130A9F40BE014E04D
:1030F000F80180818B3241F44CE050E0B801C70107
:103100000E94772C892B41F1035F1F4FF4E00C34B0
:103110001F0771F716C0611114C00CE414E0F80128
:1031200080818B3241F44CE050E0B801C7010E942D
:10313000772C892B89F0035F1F4FF4E00D381F07B0
:1031400071F7C150C23050F4C701CF911F910F9158
:10315000FF90EF900C944A1881E001C080E0CF917D
:103160001F910F91FF90EF9008956F927F928F9231
:103170009F92AF92BF92CF92DF92EF92FF920F9306
:103180001F93CF93DF93EC018B0145E050E067E99B
:103190007DE00E94352C892B09F05DC025968FB704
:1031A000F894C0906C03D0906D03E0906E03F090A3
:1031B0006F038FBFC701B60120E831E541E050E061
:1031C0000E94EC29722E632E60E871E581E090E0A8
:1031D0000E94DC29C61AD70AE80AF90AC701B60113
:1031E00020E13EE040E050E00E94EC2949015A0114
:1031F00044275527A0E1BEE00E941D2AC61AD70A1F
:10320000E80AF90AC701B6012CE330E040E050E0DB
:103210000E94EC296CE3629FC001639F900D112412
:10322000C81AD90ADF92CF923F932F939F928F9221
:103230006F927F9284E89DE09F938F931F930F93EB
:103240000E94ED2C8DB79EB70C960FB6F8949EBFDA
:103250000FBE8DBFC1C447E050E06CE77DE0CE01FA
:103260000E94352C892BF1F4279680917A008F9358
:10327000809179008F93809178008F93809177006F
:103280008F9380E79DE09F938F931F930F930E94EE
:10329000ED2CEDB7FEB738960FB6F894FEBF0FBE13
:1032A000EDBF9AC443E050E06CE67DE0CE010E94A1
:1032B000352C892B41F423968CE095E09F938F93D6
:1032C00085E69DE07DC448E050E06CE57DE0CE0100
:1032D0000E94352C892B31F5289683E59DE09F933C
:1032E0008F931F930F930E94ED2C080F191F8DE4ED
:1032F0009DE09F938F931F930F930E94ED2C2BE4DF
:103300003DE03F932F93800F911F9F938F930E94D7
:10331000ED2C8DB79EB70C960FB6F8949EBF0FBEDE
:103320008DBF5AC44AE050E060E47DE0CE010E94C7
:10333000352C892BB9F52A968091A70490E0C09787
:103340000A9718F48DE39DE002C087E39DE09F9308
:103350008F931F930F930E94ED2C800F911F0F905E
:103360000F900F900F902BEE34E03F932F9320910E
:10337000EA042F932091E9042F9327EA34E03F9346
:103380002F9321E23DE03F932F939F938F930E94D1
:10339000ED2CEDB7FEB73A960FB6F894FEBF0FBE10
:1033A000EDBF1AC443E050E06DE17DE0CE010E9424
:1033B000352C892BF9F423968091A70490E0C097CF
:1033C0000A9718F48AE19DE002C084E19DE09F9392
:1033D0008F931F930F930E94ED2C800F911F0F90DE
:1033E0000F900F900F9027EA34E03F932F932FE038
:1033F0003DE027C046E050E068E07DE0CE010E945D
:10340000352C892B19F526968091A70490E0C0975A
:103410000A9718F485E09DE002C08FEF9CE09F932F
:103420008F931F930F930E94ED2C800F911F0F908D
:103430000F900F900F9027EA34E03F932F932AEFDD
:103440003CE03F932F939F938F93BEC34AE050E09D
:103450006FEE7CE0CE010E94352C892B41F42A9638
:1034600088EC94E09F938F9381EE9CE0A9C345E0A4
:1034700050E06BED7CE0CE010E94352C892B51F49D
:1034800025968091EA048F938091E9048F9382EDD1
:103490009CE096C349E050E068EC7CE0CE010E94DD
:1034A000352C892B51F529968091BA058F938091FF
:1034B000B9058F938091B8058F938091B7058F934D
:1034C0008091BE058F938091BD058F938091BC053F
:1034D0008F938091BB058F9389EA9CE09F938F9394
:1034E0001F930F930E94ED2C8DB79EB70C960FB6CD
:1034F000F8949EBF0FBE8DBF6FC34FE050E069E9E7
:103500007CE0CE010E94352C892BF1F42F9680911E
:10351000BF038F938091BE038F938091BD038F93E0
:103520008091BC038F9385E89CE09F938F931F93BA
:103530000F930E94ED2CEDB7FEB738960FB6F894B6
:10354000FEBF0FBEEDBF48C344E050E060E87CE042
:10355000CE010E94352C892B41F4249680EC93E017
:103560009F938F9388E79CE02BC344E050E063E790
:103570007CE0CE010E94352C892B41F4249686EF05
:1035800093E09F938F938BE69CE01AC346E050E054
:1035900064E67CE0CE010E94352C892B41F426960E
:1035A00081EE93E09F938F938AE59CE009C346E008
:1035B00050E063E57CE0CE010E94352C892B41F47C
:1035C00026968BEE94E09F938F9389E49CE0F8C25B
:1035D0004AE050E06EE37CE0CE010E94352C892B5E
:1035E00041F42A968091BB031F928F9380E39CE065
:1035F000E7C24BE050E064E27CE0CE010E94352C53
:10360000892BD9F52B9688E19CE09F938F931F938C
:103610000F930E94ED2C080F191F3CE4E32E34E0B9
:10362000F32E0F900F900F900F90D12C44E1A42E09
:103630004CE0B42EF70180818B3219F0DD20D1F0FF
:1036400017C0FF92EF92BF92AF921F930F930E9409
:10365000ED2C080F191FD394FDE0EF0EF11C0F9015
:103660000F900F900F900F900F9025E0D212E2CFA5
:103670000150110982E19CE01DC24CE050E065E080
:103680007CE0CE010E94352C892BD9F52C9688EF51
:103690009BE09F938F931F930F930E94ED2C080F35
:1036A000191F9BE0E92E94E0F92E0F900F900F90D8
:1036B0000F90D12C24EFA22E2BE0B22EF7018081A7
:1036C0008B3219F0DD20D1F017C0FF92EF92BF923C
:1036D000AF921F930F930E94ED2C080F191FD394E4
:1036E000FDE0EF0EF11C0F900F900F900F900F90D8
:1036F0000F9025E0D212E2CF0150110982EF9BE03A
:10370000D9C140E150E061EE7BE0CE010E94352C52
:10371000892B09F044C0609680ED9BE09F938F93C6
:103720001F930F930E94ED2C080F191F0F900F90FD
:103730000F900F9080918D048B3271F58DE894E09D
:103740009F938F938CECE82E8BE0F82EFF92EF92F4
:103750001F930F930E94ED2C080F191F8AE994E024
:103760000F900F900F900F900F900F9020919A0450
:103770002B3281F49F938F93FF92EF921F930F93BD
:103780000E94ED2C080F191F0F900F900F900F90B3
:103790000F900F90015011098AEC9BE08BC14CE017
:1037A00050E06DEB7BE0CE010E94352C892B11F5AA
:1037B0002C9680EB9BE09F938F931F930F930E9417
:1037C000ED2C800F911F0F900F900F900F90209174
:1037D0008700213029F0223031F426EA3BE005C091
:1037E0002CEA3BE002C02DE93BE03F932F939F93EF
:1037F0008F9364C148E050E064E97BE0CE010E9411
:10380000352C892B09F08DC028960E940C086B017D
:103810007C01FF928F93DF926F9386E89BE09F93EA
:103820008F931F930F930E94ED2C080F191F8DB7D4
:103830009EB708960FB6F8949EBF0FBE8DBF20E0CE
:1038400030E048E651E46C2D7D2D8E2D9F2D0E9499
:10385000782518161CF487E79BE02CC10E94FF070F
:10386000882319F081E79BE025C18FB7F894C090B9
:103870006400D0906500E0906600F09067008FBF14
:10388000C701B60120E831E541E050E00E94EC2993
:10389000722E632E60E871E581E090E00E94DC29E1
:1038A000C61AD70AE80AF90AC701B60120E13EE0C4
:1038B00040E050E00E94EC2949015A014427552775
:1038C000A0E1BEE00E941D2AC61AD70AE80AF90A3A
:1038D000C701B6012CE330E040E050E00E94EC2943
:1038E0006CE3629FC001639F900D1124C81AD90A2E
:1038F000DF92CF923F932F939F928F926F927F92FE
:1039000086E59BE09F938F931F930F930E94ED2C6E
:10391000EDB7FEB73C960FB6F894FEBF0FBEEDBFF5
:103920005BC14AE050E06BE47BE0CE010E94352CA5
:10393000892B51F42A968091B6058F938091B50515
:103940008F938DE39BE03CC149E050E063E37BE073
:10395000CE010E94352C892B41F429968091C10516
:103960001F928F9386E29BE02BC146E050E06FE10F
:103970007BE0CE010E94352C892B41F42696809164
:10398000C0051F928F9385E19BE01AC147E050E08C
:103990006DE07BE0CE010E94352C892B41F4279607
:1039A0008091BF051F928F9382E09BE009C146E0A2
:1039B00050E06BEF7AE0CE010E94352C892B41F468
:1039C00026968091C2051F928F9381EF9AE0F8C0EE
:1039D0004AE050E066EE7AE0CE010E94352C892B59
:1039E00009F073C08FB7F894C0906803D090690352
:1039F000E0906A03F0906B038FBF2A96D701C6014F
:103A00000197A109B1098F379E4DA842B10508F071
:103A10004FC0C701B60120E831E541E050E00E9407
:103A2000EC29B22EA32E60E871E581E090E00E94BF
:103A3000DC29C61AD70AE80AF90AC701B60120E14B
:103A40003EE040E050E00E94EC29922E30E0A0E100
:103A5000BEE00E940E2AC61AD70AE80AF90AC70170
:103A6000B6012CE330E040E050E00E94EC298CE30A
:103A7000289FC01811241F92CF921F922F931F923C
:103A80009F92AF92BF928DE495E09F938F9387ECC6
:103A90009AE09F938F931F930F930E94ED2CEDB7A5
:103AA000FEB73E960FB6F894FEBF0FBEEDBF94C0B2
:103AB0008AEA9AE09F938F931F930F930E94ED2CB5
:103AC0000F900F900F900F9087C047E050E062EA90
:103AD0007AE0CE010E94352C892B61F427968091E3
:103AE0006100282F082E000C330B3F938F9384E93D
:103AF0009AE066C047E050E06CE87AE0CE010E94B0
:103B0000352C892B41F427968091C3051F928F9302
:103B100080E89AE055C049E050E066E77AE0CE01DF
:103B20000E94352C892B41F429968091C4051F925F
:103B30008F938AE69AE044C046E050E063E67AE07C
:103B4000CE010E94352C892BD1F4269680917500E8
:103B50001F928F93809176001F928F938EE49AE04C
:103B60009F938F931F930F930E94ED2C8DB79EB759
:103B700008960FB6F8949EBF0FBE8DBF2DC047E0CC
:103B800050E066E47AE0CE010E94352C892B41F4A6
:103B900027968091C5051F928F938BE39AE010C002
:103BA00048E050E062E37AE0CE010E94352C892B98
:103BB000A9F428968091C6051F928F9386E29AE019
:103BC0009F938F931F930F930E94ED2C0F900F9054
:103BD0000F900F900F900F90CE0102C080E090E008
:103BE000DF91CF911F910F91FF90EF90DF90CF90D9
:103BF000BF90AF909F908F907F906F900895CF92DD
:103C0000DF92EF92FF920F931F93CF93DF9300D039
:103C100000D000D0CDB7DEB79E838D838C0146E007
:103C200050E06FE17AE00E94352C892B71F5680134
:103C300026E0C20ED11CDE82CD8244E050E06AE173
:103C40007AE0C6010E94352C892B51F044E050E007
:103C500065E17AE0C6010E94352C892B09F0A0C1EC
:103C6000F8013A9604E010E020E09191903209F4D6
:103C700097C19E3219F09B3311F4EBC321E00F5F23
:103C80001F4F0F31110589F78BC14AE050E06AE000
:103C90007AE0C8010E94352C892B71F568013AE061
:103CA000C30ED11CDE82CD8244E050E065E07AE0B4
:103CB000C6010E94352C892B51F044E050E060E0B1
:103CC0007AE0C6010E94352C892B09F069C1F80100
:103CD0003E9604E010E020E09191903209F460C13A
:103CE0009E3219F09B3311F4C2C321E00F5F1F4FC6
:103CF0000F31110589F754C145E050E06AEF79E0D2
:103D0000C8010E94352C892B31F5C80105969E8388
:103D10008D83F801258130E0205331092A303105A7
:103D200008F03EC14AE050E0BE016B5F7F4F0E9449
:103D30005F2A61157105F1E08F07910508F030C128
:103D4000ED81FE8120812B3309F02AC17093EA04B2
:103D50006093E9044DC34AE050E06FEE79E0C8019A
:103D60000E94352C892B31F5C8010A969E838D83DC
:103D7000F801228530E0205331092A30310508F05E
:103D80000FC14AE050E0BE016B5F7F4F0E945F2A87
:103D90006131F7E27F078105910508F001C1ED81EE
:103DA000FE8120812B3309F0FBC07093B605609330
:103DB000B5051EC34FE050E06FED79E0C8010E94E9
:103DC000352C892B59F5C8010F969E838D83F801F8
:103DD000278530E0205331092A30310508F0E0C052
:103DE0004AE050E0BE016B5F7F4F0E945F2A603A5D
:103DF000F6E87F07F1E08F07910508F0D1C0ED816B
:103E0000FE8120812B3309F0CBC06093BC037093FB
:103E1000BD038093BE039093BF03EAC244E050E029
:103E20006AED79E0C8010E94352C892B11F56801F3
:103E300024E0C20ED11CDE82CD826BE370E0C601AD
:103E40000E94942C8C01009709F4AAC07C01EC1804
:103E5000FD0831E2E316F10408F0A2C0A701B601A3
:103E600080EC93E00E94842CF701E554FC4F15820E
:103E700062C146E050E063ED79E0C8010E94352C54
:103E8000892B11F5680186E0C80ED11CDE82CD8237
:103E90006BE370E0C6010E94942C8C01009709F43A
:103EA0007FC07C01EC18FD0895E1E916F10408F0EB
:103EB00077C0A701B60181EE93E00E94842CF70140
:103EC000E554FC4F16A237C144E050E06EEC79E0B7
:103ED000C8010E94352C892B11F56801E4E0CE0E53
:103EE000D11CDE82CD826BE370E0C6010E94942C6F
:103EF0008C01009709F454C07C01EC18FD08F5E131
:103F0000EF16F10408F04CC0A701B60186EF93E06C
:103F10000E94842CF701E554FC4F13AE0CC14AE01B
:103F200050E063EC79E0C8010E94352C892BD9F46C
:103F3000C8010A969E838D83F8018285803321F023
:103F4000813371F581E001C080E09801255F3F4F2A
:103F50003E832D83F80193859B3311F58093BB033A
:103F6000C8010C9696C243E050E06FEB79E0C801BF
:103F70000E94352C892B09F055C0C80103969E83F9
:103F80008D839E012F5F3F4F790110E08D819E81CF
:103F9000FC01208130E0205331092A30310518F02E
:103FA00080E090E076C24AE050E0BE016B5F7F4F58
:103FB0000E945F2A6F3F71058105910509F080F726
:103FC000F70161937F01ED81FE81133019F080814B
:103FD0008E3231F7CF0101969E838D831F5F14309F
:103FE000A9F680818B33E1F68C811F928F938B81B0
:103FF0001F928F938A811F928F9389811F928F9333
:1040000083EB99E09F938F9387EA94E09F938F933C
:104010000E94ED2C8D819E810FB6F894DEBF0FBEFD
:10402000CDBF37C24BE050E067EA79E0C8010E949B
:10403000352C892B41F4C8010B969E838D8345E076
:104040006CE474E021C04CE050E06AE979E0C8011A
:104050000E94352C892B41F4C8010C969E838D83D8
:1040600045E06BE074E010C040E150E069E879E0C1
:10407000C8010E94352C892B51F4C80140969E83BB
:104080008D8342E06DE874E00E94F51702C246E0BD
:1040900050E062E879E0C8010E94352C892B09F5CF
:1040A000680136E0C30ED11CDE82CD826BE370E086
:1040B000C6010E94942C8C01009709F471CF7C01F9
:1040C000EC18FD0881E2E816F10408F069CFA701B9
:1040D000B6018BEE94E00E94842CF701E551FB4F72
:1040E00029C043E050E06EE779E0C8010E94352C1A
:1040F000892B19F5680193E0C90ED11CDE82CD82AF
:104100006BE370E0C6010E94942C8C01009709F4C7
:1041100047CF7C01EC18FD08E1E4EE16F10408F04D
:104120003FCFA701B6018CE095E00E94842CF701F7
:10413000E45FFA4F1082C8015CC149E050E064E7D7
:1041400079E0C8010E94352C892B21F589EC95E096
:104150000E944A18882309F423CFC80109969E8338
:104160008D83F8018185803329F0813309F018CFE0
:1041700081E001C080E09801265F3F4F3E832D83A0
:10418000F80192859B3309F00BCF8093C105C801DC
:104190000B967FC146E050E06DE679E0C8010E94D1
:1041A000352C892B11F589EC95E00E944A1888235B
:1041B00009F4F6CEC80106969E838D83F8018681A8
:1041C000803329F0813309F0EBCE81E001C080E03B
:1041D0009801295F3F4F3E832D83F80197819B33E0
:1041E00009F0DECE8093C00531C147E050E065E6BE
:1041F00079E0C8010E94352C892B59F589EC95E0AE
:104200000E944A18882309F4CBCEC80107969E83E2
:104210008D83F801278130E0205331092A303105A0
:1042200008F0BECE4AE050E0BE016B5F7F4F0E94B7
:104230005F2A6F3F71058105910511F008F0B0CE3E
:10424000ED81FE8120812B3309F0AACE6093BF055A
:10425000CFC049E050E06BE579E0C8010E94352C01
:10426000892B59F589EC95E00E944A18882309F4B6
:1042700097CEC80109969E838D83F801218530E091
:10428000205331092A30310508F08ACE4AE050E047
:10429000BE016B5F7F4F0E945F2A6F3F71058105F2
:1042A000910511F008F07CCEED81FE8120812B3349
:1042B00009F076CE6093C4059BC047E050E063E50B
:1042C00079E0C8010E94352C892B59F589EC95E0DD
:1042D0000E944A18882309F463CEC80107969E837A
:1042E0008D83F801278130E0205331092A303105D0
:1042F00008F056CE4AE050E0BE016B5F7F4F0E944F
:104300005F2A6F3F71058105910511F008F048CED5
:10431000ED81FE8120812B3309F042CE6093C305ED
:1043200067C047E050E06BE479E0C8010E94352C9B
:10433000892B59F589EC95E00E944A18882309F4E5
:104340002FCEC80107969E838D83F801278130E028
:10435000205331092A30310508F022CE4AE050E0DE
:10436000BE016B5F7F4F0E945F2A6F3F7105810521
:10437000910511F008F014CEED81FE8120812B33E0
:1043800009F00ECE6093C50533C048E050E062E40A
:1043900079E0C8010E94352C892B69F589EC95E0FC
:1043A0000E944A18882309F4FBCDC80108969E8311
:1043B0008D83F801208530E0205331092A30310502
:1043C00008F0EECD4AE050E0BE016B5F7F4F0E94E7
:1043D0005F2A6F3F71058105910511F008F0E0CD6E
:1043E000ED81FE8120812B3309F0DACD6093C60583
:1043F000CF0101964EC046E050E06BE379E0C80182
:104400000E94352C892B09F0CBCD89EC95E00E94D8
:104410004A18882309F4C4CDC80106969E838D836B
:10442000F8018681803329F0813309F0B9CD81E02C
:1044300001C080E09801295F3F4F3E832D83F80142
:1044400097819B3309F0ACCD8093C205C8010896D3
:1044500020C0222309F4A4CDA801B60187EA94E084
:104460000E94842CF801FF27E955FB4F0DC0222341
:1044700009F496CDA801B60188EC94E00E94842C42
:10448000F801FF27E853FB4F1082C80101968C0DFD
:104490009D1D26960FB6F894DEBF0FBECDBFDF91EF
:1044A000CF911F910F91FF90EF90DF90CF900895E3
:1044B000EF92FF920F931F93CF93DF93CDB7DEB7A9
:1044C000C054D1400FB6F894DEBF0FBECDBF8C01F3
:1044D0008AE090E00E94C72444E050E06DEB7EE06B
:1044E000C8010E94352C892BA9F561E089EC95E083
:1044F0000E946D18811109C08091BB03813029F49D
:1045000069EC75E08FEA9EE0F5C0C801049600E012
:1045100010E0009719F411110DC015C0FC012081A5
:104520002223C9F30E94FF1D009711F01F5FF1CFF6
:1045300001E0EFCF011107C00E947B0C69EC75E030
:104540008CEA9EE0D7C00E94960C69EC75E086EA82
:104550009EE0D0C044E050E061EA7EE0C8010E94E5
:10456000352C892BE1F561E089EC95E00E946D180E
:10457000811109C08091BB03813029F469EC75E099
:1045800083E99EE0B7C0C8010496198210E09E013D
:104590002F5F3F4F7901009709F49FC0FC012081F4
:1045A000222309F49AC0F70101900020E9F7BF0126
:1045B000615071090E94B518009709F497C01F5FF8
:1045C000F70101900020E9F73197EE19FF09E13A70
:1045D000F10508F369EC75E08EE69EE08BC040E1E2
:1045E00050E06DE57EE0C8010E94352C892B49F42E
:1045F0001092BB030E947B0C69EC75E08AE59EE09B
:1046000079C049E050E060E57EE0C8010E94352CA9
:10461000892B31F561E089EC95E00E946D188111DC
:1046200005C069EC75E082E49EE064C0809187007B
:10463000813029F469EC75E08CE29EE05BC00E9459
:10464000DB0969EC75E0882341F080E09EE00E9480
:104650001F1381E0809365034FC081EE9DE04AC047
:1046600049E050E067ED7DE0C8010E94352C892BC0
:10467000C1F461E089EC95E00E946D1869EC75E089
:10468000811107C08091BB03813019F489EC9DE052
:1046900031C081EB9DE00E941F1381E08093640391
:1046A0002BC045E050E06BEA7DE0C8010E94352C4C
:1046B000892B11F561E089EC95E00E946D1869EC99
:1046C00075E0811107C08091BB03813019F48DE939
:1046D0009DE010C082EC9EE00DC0112369F069ECF2
:1046E00075E0CE0101960E94E21206C069EC75E009
:1046F0008DE89EE00E941F13C05CDE4F0FB6F89459
:10470000DEBF0FBECDBFDF91CF911F910F91FF9004
:10471000EF90089580918800882339F10E946511F7
:1047200010928800809189008823F9F08091870099
:10473000823049F468ED75E083E299E00E941F132E
:104740001092890008950E94DB09882341F081E0DE
:104750008093860068ED75E083EF98E004C068ED13
:1047600075E084ED98E00C941F1308958DE083BFED
:1047700012BE88E48CBF89B7826089BF08952FB7C5
:10478000F89480917703909178032FBF08952FB705
:10479000F89480917503909176032FBF08958FB799
:1047A000F89410927103109270038FBF0895809156
:1047B0004D058823D1F08091680390916903A09101
:1047C0006A03B0916B0380382EED920728E2A207AE
:1047D000B10558F40196A11DB11D80936803909313
:1047E0006903A0936A03B0936B030895CF93DF939B
:1047F000EC010E94BF23C80FD91F0E94BF238C1B4E
:104800009D0B181619063CF00E941C258823A9F35D
:104810000E94530EF9CFDF91CF910895CF93DF938C
:10482000EC010E94C723C80FD91F0E94C7238C1B0D
:104830009D0B181619063CF00E941C258823A9F32D
:104840000E94530EF9CFDF91CF91089580E18FBD83
:1048500088E08EBD93E09BBD88EE8ABD99BD88BD82
:1048600008958EB582608EBD8C9A0895F89421E0EB
:104870002093740390937303809372030E943124F6
:10488000789408958EB5887F8EBD8C980895809118
:1048900074038823A9F080917203909173038A3086
:1048A000910530F00A9790937303809372030895F3
:1048B0001092730310927203109274030C944224AA
:1048C00008951F920F920FB60F9211242F933F93CA
:1048D0004F935F936F937F938F939F93AF93BF9308
:1048E000EF93FF930E94D6070E9494170E94C3176C
:1048F0000E94472480917703909178030A969093C1
:10490000780380937703809166038F5F843618F471
:10491000809366032BC0109266038091750390917B
:1049200076030196909376038093750380916C03D0
:1049300090916D03A0916E03B0916F030196A11D3C
:10494000B11D80936C0390936D03A0936E03B0939D
:104950006F0380917003909171030196909371039E
:10496000809370030E941E080E94D723FF91EF914D
:10497000BF91AF919F918F917F916F915F914F9177
:104980003F912F910F900FBE0F901F901895CF93CE
:10499000DF93EC018091C005813011F40E94312435
:1049A000CE010E94F6230E9442248EE190E0DF9126
:1049B000CF910C94F6231BB8882341F088E98AB97B
:1049C00086E880BD10BC83E089B904C01AB810BC69
:1049D00010BC19B81092790310927A0308951F92AF
:1049E0000F920FB60F9211248F939F93EF93FF9323
:1049F0008BB19CB18C7159F480917A03E82FF0E06F
:104A0000E558FC4F90838F5F8F7380937A03FF91FB
:104A1000EF919F918F910F900FBE0F901F9018955F
:104A200090917903E92FF0E0E558FC4F80819F5F7A
:104A30009F7390937903089581E020917A03909178
:104A40007903291301C080E00895FC019191992315
:104A500021F05D9BFECF9CB9F9CF0895FC019591A3
:104A6000992321F05D9BFECF9CB9F9CF08955D9B02
:104A7000FECF8CB90895E89409C097FB3EF4909559
:104A80008095709561957F4F8F4F9F4F9923A9F027
:104A9000F92F96E9BB279395F695879577956795B6
:104AA000B795F111F8CFFAF4BB0F11F460FF1BC0FA
:104AB0006F5F7F4F8F4F9F4F16C0882311F096E98D
:104AC00011C0772321F09EE8872F762F05C066233B
:104AD00071F096E8862F70E060E02AF09A95660FF4
:104AE000771F881FDAF7880F9695879597F90895AD
:104AF0000E94EA2508F48FEF08950E9490250C94F7
:104B000025260E94172638F00E941E2620F09523A5
:104B100011F00C940E260C94142611240C94592692
:104B20000E94362670F3959FC1F3950F50E0551FF4
:104B3000629FF001729FBB27F00DB11D639FAA27F2
:104B4000F00DB11DAA1F649F6627B00DA11D661F41
:104B5000829F2227B00DA11D621F739FB00DA11D62
:104B6000621F839FA00D611D221F749F3327A00D1C
:104B7000611D231F849F600D211D822F762F6A2FB8
:104B800011249F5750409AF0F1F088234AF0EE0F1D
:104B9000FF1FBB1F661F771F881F91505040A9F74A
:104BA0009E3F510580F00C940E260C9459265F3FD1
:104BB000E4F3983ED4F3869577956795B795F79586
:104BC000E7959F5FC1F7FE2B880F911D96958795FE
:104BD00097F90895990F0008550FAA0BE0E8FEEF2A
:104BE00016161706E807F907C0F012161306E407B1
:104BF000F50798F0621B730B840B950B39F40A26AA
:104C000061F0232B242B252B21F408950A2609F487
:104C1000A140A6958FEF811D811D089597F99F678B
:104C200080E870E060E008959FEF80EC0895002434
:104C30000A941616170618060906089500240A9401
:104C400012161306140605060895092E0394000C87
:104C500011F4882352F0BB0F40F4BF2B11F460FF16
:104C600004C06F5F7F4F8F4F9F4F089557FD90583F
:104C7000440F551F59F05F3F71F04795880F97FB20
:104C8000991F61F09F3F79F08795089512161306DA
:104C90001406551FF2CF4695F1DF08C01616170609
:104CA0001806991FF1CF869571056105089408953E
:104CB000E894BB2766277727CB0197F90895A0E1F1
:104CC000B0E0E5E6F6E20C94282A7C011B016A01BB
:104CD000FC0117821682838181FF44C39E012F5FEE
:104CE0003F4F3901F7019381F10193FD859193FFC6
:104CF00081911F01882309F431C3853239F493FD72
:104D0000859193FF81911F01853239F4B70190E0BD
:104D10000E94B12C56016501E5CF10E0512C912C79
:104D2000FFE1F915D8F08B3279F038F4803279F060
:104D30008332A1F4F92DF0612EC08D3261F0803301
:104D400069F4292D21602DC0392D3260932E892DD3
:104D50008460982E2AC0E92DE86015C097FC2DC00C
:104D600020ED280F2A3088F496FE06C03AE0139F03
:104D7000200D1124122F19C08AE0589E200D1124F5
:104D8000522EE92DE0629E2E10C08E3231F496FC38
:104D9000E5C2F92DF0649F2E08C08C3621F4292D30
:104DA0002068922E02C0883641F4F10193FD85916E
:104DB00093FF81911F018111B3CF9BEB980F93302B
:104DC00020F4992D9061805E07C09BE9980F933085
:104DD00008F066C1992D9F7E96FF16E09F73992E6D
:104DE000853619F49064992E08C0863621F4392F3F
:104DF0003068932E02C01111115097FE07C01C336A
:104E000050F444244394410E27E00BC0183038F08E
:104E100027E017E005C027E09CE3492E02C0212FC0
:104E2000412C560184E0A80EB11CF601608171810D
:104E300082819381042DA3010E94542B6C01F9817E
:104E4000FC87F0FF02C0F3FF06C091FC06C092FE93
:104E500006C000E205C00DE203C00BE201C000E0A5
:104E60008C858C7019F001115AC29BC297FE10C03C
:104E70004C0CFC85F4FF04C08A81813309F44A9408
:104E8000141474F528E0241578F588E0482E2CC019
:104E900096FC2AC0812F90E08C159D059CF03CEF7C
:104EA000C3163FEFD30674F0892D8068982E0AC090
:104EB000E2E0F0E0EC0FFD1FE10FF11D8081803397
:104EC00019F411501111F4CF97FE0EC044244394ED
:104ED000410E812F90E0C816D9062CF41C1904C08D
:104EE0004424439401C010E097FE06C01C141D0426
:104EF00034F4C601019605C085E090E002C081E06F
:104F000090E001110196112331F0212F30E02F5F45
:104F10003F4F820F931F252D30E08217930714F423
:104F2000581A01C0512C892D897049F4552039F047
:104F3000B70180E290E00E94B12C5A94F7CF002391
:104F400029F0B701802F90E00E94B12C93FC09C09A
:104F5000552039F0B70180E390E00E94B12C5A94BB
:104F6000F7CF97FE4CC04601D7FE02C0812C912C92
:104F7000C60188199909F301E80FF91FFE87ED872B
:104F8000960124193109388B2F87012F10E01195D4
:104F9000019511093FEF8316930629F4B7018EE2BC
:104FA00090E00E94B12CC814D9044CF08F859889E8
:104FB0008815990524F4ED85FE85818101C080E383
:104FC000F1E08F1A91082D853E852F5F3F4F3E8778
:104FD0002D87801691062CF0B70190E00E94B12C2D
:104FE000D9CFC814D90441F49A81963320F495336B
:104FF00019F43C8534FF81E3B70190E04EC08A810B
:10500000813319F09C859F7E9C87B70190E00E94B8
:10501000B12C111105C094FC18C085E690E017C0B2
:10502000B7018EE290E00E94B12C1E5F82E001E0A9
:10503000080FF301E80FF11D8081B70190E00E9495
:10504000B12C802F0113F3CFE6CF85E490E0B701B8
:105050000E94B12CD7FC06C0C114D10441F4EC85E8
:10506000E4FF05C0D194C194D1088DE201C08BE268
:10507000B70190E00E94B12C80E32AE0C216D1046F
:105080002CF08F5FFAE0CF1AD108F7CFB70190E08C
:105090000E94B12CB701C601C0960E94B12C54C128
:1050A000833631F0833779F0833509F056C020C05C
:1050B000560132E0A30EB11CF6018081898301E024
:1050C00010E0630112C05601F2E0AF0EB11CF60110
:1050D000C080D18096FE03C0612F70E002C06FEFE8
:1050E0007FEFC6010E94A62C8C01F92DFF7714C01A
:1050F000560122E0A20EB11CF601C080D18096FEBE
:1051000003C0612F70E002C06FEF7FEFC6010E9405
:10511000522C8C01F92DF0689F2EF3FD1AC0852DBD
:1051200090E008171907A8F4B70180E290E00E9408
:10513000B12C5A94F4CFF60197FC859197FE81919A
:105140006F01B70190E00E94B12C51105A940150A8
:1051500011090115110579F7F7C0843611F0893668
:1051600061F5560197FE09C024E0A20EB11CF601BC
:1051700060817181828193810AC0F2E0AF0EB11C1F
:10518000F60160817181072E000C880B990BF92DB7
:10519000FF769F2E97FF09C0909580957095619539
:1051A0007F4F8F4F9F4FF0689F2E2AE030E0A30182
:1051B0000E940F2DC82EC6183FC0092D853721F437
:1051C0000F7E2AE030E01DC0097F8F3691F018F481
:1051D000883559F0C3C0803719F0883711F0BEC048
:1051E000006104FF09C0046007C094FE08C00660A7
:1051F00006C028E030E005C020E130E002C020E138
:1052000032E0560107FF09C084E0A80EB11CF60188
:10521000608171818281938108C0F2E0AF0EB11C80
:10522000F6016081718180E090E0A3010E940F2D62
:10523000C82EC6180F77902E96FE0BC0092D0E7F34
:10524000C11650F494FE0AC092FC08C0092D0E7ECF
:1052500005C0DC2C092D03C0DC2C01C0D12E04FFBD
:105260000DC0FE01EC0DF11D8081803311F4097E2B
:1052700009C002FF06C0D394D39404C0802F86785F
:1052800009F0D39403FD11C000FF06C01C2DD514F6
:1052900080F4150D1D190DC0D51458F4B70180E226
:1052A00090E00E94B12CD394F7CFD51410F45D1880
:1052B00001C0512C04FF10C0B70180E390E00E94B0
:1052C000B12C02FF17C001FD03C088E790E002C0C7
:1052D00088E590E0B7010CC0802F867859F001FF77
:1052E00002C08BE201C080E207FD8DE2B70190E0D1
:1052F0000E94B12CC11638F4B70180E390E00E94FF
:10530000B12C1150F7CFCA94F301EC0DF11D80813F
:10531000B70190E00E94B12CC110F5CF15C0F4E0A8
:10532000F51560F584E0581A93FE1FC0011127C0DF
:105330002C8523FF2AC004E510E0392D3071932E0F
:10534000F8018491811124C0552009F4E4CCB701FF
:1053500080E290E00E94B12C5A94F6CFF70186814A
:10536000978126C08FEF9FEF23C0B70180E290E0C6
:105370000E94B12C5A945110F8CFD8CF512CB701BC
:10538000802F90E00E94B12CD3CF08E510E0D5CF5C
:1053900091108052B70190E00E94B12C0F5F1F4F17
:1053A000CFCF23E0251510F483E0BDCF512CC0CF23
:1053B0006096E2E10C94442ADB018F939F930E9454
:1053C0001D2ABF91AF91A29F800D911DA39F900DAB
:1053D000B29F900D11240895A1E21A2EAA1BBB1BA7
:1053E000FD010DC0AA1FBB1FEE1FFF1FA217B307B1
:1053F000E407F50720F0A21BB30BE40BF50B661FC7
:10540000771F881F991F1A9469F76095709580958A
:1054100090959B01AC01BD01CF010895A29FB00101
:10542000B39FC001A39F700D811D1124911DB29FD8
:10543000700D811D1124911D08950E940E2AA59FB3
:10544000900DB49F900DA49F800D911D112408957F
:105450002F923F924F925F926F927F928F929F9284
:10546000AF92BF92CF92DF92EF92FF920F931F9372
:10547000CF93DF93CDB7DEB7CA1BDB0B0FB6F89423
:10548000DEBF0FBECDBF09942A88398848885F8463
:105490006E847D848C849B84AA84B984C884DF80D4
:1054A000EE80FD800C811B81AA81B981CE0FD11DB8
:1054B0000FB6F894DEBF0FBECDBFED010895A0E09A
:1054C000B0E0E5E6FAE20C94292A5C016B017A016E
:1054D0006115710519F0FB0191838083E114F104DA
:1054E00029F0C7010297839708F0C9C0E50121960A
:1054F000F5011081812F90E00E942C2C892B11F056
:105500005E01F4CF1D3229F42196F501118101E0ED
:1055100007C01B3221F4E5012296F501118100E05C
:10552000E114F104B1F0F0E1EF16F10429F4B0C098
:1055300010E3E114F10401F12AE0E216F104B1F103
:1055400080E1E816F10471F0E8E0EE16F104F1F400
:1055500013C0103341F588818F7D883549F7198153
:1055600022960260F0E1EF2EF12C88248A94982C88
:10557000A82CAFE0BA2E20C078E0E72EF12C8824CA
:105580008A94982CA82CEFE1BE2E16C06FEF7FEF07
:10559000CB0197010F2C000C440B550B0E94EC29FA
:1055A00049015A0109C08AE0E82EF12C69E9862EEA
:1055B000982CA82C69E1B62E40E060E070E0CB01A9
:1055C00027010F2C000C66087708FE0150ED352EE0
:1055D000310E29E0231570F42FEB210F2A3118F436
:1055E00039EC332E06C02FE9210F2A3130F529EA94
:1055F000322E310E232D30E02E153F05F4F44F3FAF
:10560000C9F086169706A806B90688F0A30192018C
:105610000E94DC29232D30E040E050E0620F731F30
:10562000841F951F621773078407950710F44FEFC7
:1056300001C041E021961081C8CFC114D10451F0BE
:10564000442311F0219703C001FF04C02297F60103
:10565000D183C08300FF07C09095809570956195B8
:105660007F4F8F4F9F4F4F3F79F482E290E09093AE
:10567000E6058093E5053FEF2FEF9FEF0DC040E07B
:1056800030E020E090E008C0462F372F282F04C0DC
:10569000103309F067CF5FCF642F732F822FCDB700
:1056A000DEB7E1E10C94452A283008F027E03327E3
:1056B000DA01990F311D87FD916000966105710532
:1056C00039F432602E5F3D9330E32A95E1F7089577
:1056D0009F3F30F080387105610509F03C5F3C5F09
:1056E0003D93913008F08068911DDF93CF931F9315
:1056F0000F93FF92EF92192F987F9695E92F969529
:105700009695E90FFF27EA54FF4F99273327EE2498
:10571000FF24A701E70105900894079428F4360FA9
:10572000E71EF81E491F511D660F771F881F991F1E
:105730000694A1F70590079428F4E70EF81E491F78
:10574000561FC11D770F881F991F661F0694A1F76A
:105750000590079428F4F80E491F561FC71FD11D46
:10576000880F991F661F771F0694A1F7059007946D
:1057700020F4490F561FC71FD81F990F661F771FA8
:10578000881F0694A9F784911095177041F0D6955B
:10579000C79557954795F794E7941A95C1F7ECE5A7
:1057A000F0E068941590159135916591959105906B
:1057B0007FE27395E118F10A430B560BC90BD00930
:1057C000C0F7E10CF11E431F561FC91FD01D7EF408
:1057D000703311F48A95E6CFE894015030F0080F49
:1057E0000AF40027021708F4202F2395022F7A339A
:1057F00028F079E37D932A95E9F710C07D932A95E7
:1058000089F6069497956795379517951794E1183B
:10581000F10A430B560BC90BD00998F023957E91E2
:1058200073957A3308F070E37C932013B8F77E9178
:1058300070617D9330F0839571E37D9370E32A95D9
:10584000E1F71124EF90FF900F911F91CF91DF911D
:10585000992787FD9095089591110C946D2D8032B4
:1058600019F089508550C8F70895FB01DC0104C088
:105870008D910590801921F441505040C8F7881B44
:10588000990B0895FB01DC0105900D920020E1F7D2
:105890000895FC0105900020E9F7809590958E0F02
:1058A0009F1F0895FC010590615070400110D8F7CA
:1058B000809590958E0F9F1F0895FB01559155235C
:1058C000A9F0BF01DC014D9145174111E1F759F4F1
:1058D000CD010590002049F04D9140154111C9F3CB
:1058E000FB014111EFCF81E090E001970895FB01AA
:1058F000DC0104C08D910190801921F44150504089
:10590000C8F7881B990B0895FB01DC0102C00190C8
:105910000D9241505040D8F70895DC0101C06D93BD
:1059200041505040E0F70895FC018191861721F025
:105930008823D9F7992708953197CF010895FB015E
:10594000DC0101900D920020E1F70895FC01615007
:10595000704001900110D8F7809590958E0F9F1F91
:1059600008950F931F93CF93DF93FB01238121FDB4
:1059700003C08FEF9FEF2CC022FF16C046815781D6
:10598000248135814217530744F4A081B1819D01E0
:105990002F5F3F4F318320838C93268137812F5F88
:1059A0003F4F3783268314C08B01EC01FB01008439
:1059B000F185E02D0995892BE1F6D80116968D9198
:1059C0009C911797019617969C938E931697CE01EC
:1059D000DF91CF911F910F910895AEE0B0E0E3EF1A
:1059E000FCE20C94362A0D891E898EE08C831A8382
:1059F00009838FEF9FE79E838D83AE01475E5F4FE4
:105A00006F89788DCE0101960E945F26EF81F8851F
:105A1000E00FF11F10822E96E4E00C94522AFA0156
:105A2000AA27283051F1203181F1E8946F936E7FDD
:105A30006E5F7F4F8F4F9F4FAF4FB1E03ED0B4E0CE
:105A40003CD0670F781F891F9A1FA11D680F791F0F
:105A50008A1F911DA11D6A0F711D811D911DA11D20
:105A600020D009F468943F912AE0269F1124301930
:105A7000305D3193DEF6CF010895462F4770405DCB
:105A80004193B3E00FD0C9F7F6CF462F4F70405D7A
:105A90004A3318F0495D31FD4052419302D0A9F7D5
:105AA000EACFB4E0A6959795879577956795BA95CF
:105AB000C9F700976105710508959B01AC010A2E95
:105AC00006945795479537952795BA95C9F7620F6C
:105AD000731F841F951FA01D089599278827089577
:045AE000F894FFCF68
