:100000000C9417080C9434080C9434080C9434089D
:100010000C9434080C9434080C9434080C94340870
:100020000C9434080C9434080C94F4260C94340882
:100030000C9434080C949D270C9434080C943408C8
:100040000C9434080C9434080C9434080C94340840
:100050000C9434086E616E00696E660000407A1080
:10006000F35A00A0724E18090010A5D4E80000E869
:100070007648170000E40B54020000CA9A3B0000C7
:1000800000E1F505000080969800000040420F0056
:100090000000A08601000000102700000000E80317
:1000A000000000006400000000000A0000000000E2
:1000B0000100000000002C76D888DC674F0823DFA1
:1000C000C1DFAE59E1B1B796E5E3E453C63AE65174
:1000D000997696E8E6C28426EB898C9B62ED407C9B
:1000E0006FFCEFBC9C9F40F2BAA56FA5F490055A37
:1000F0002AF75C936B6CF9676DC11BFCE0E40D475C
:10010000FEF520E6B500D0ED902E0300943577057E
:100110000080841E080000204E0A000000C80C3336
:100120003333330F986E12831141EF8D2114893BC5
:10013000E65516CFFEE6DB18D1844B381BF77C1D45
:10014000901DA4BBE424203284725E228100C9F198
:1001500024ECA1E53D27534D53206368616E6E6525
:100160006C20746573740068747470004E6F20495D
:100170006E7465726E657420636F6E6E656374690C
:100180006F6E2E2044657669636520697320726501
:1001900073657474696E672E005475726E206F6E8D
:1001A000207365727665722066726F6D2061646D72
:1001B000696E20534D532025732E2053756363655C
:1001C00073732E005365727665722072656365697C
:1001D00076656420636F6D6D616E6420746F207747
:1001E000616B652075702E005475726E206F6E20E5
:1001F0007365727665722066726F6D2061646D69D9
:100200006E20534D532025732E204661696C2E00BD
:100210004661696C20746F207475726E206F6E2059
:100220007365727665722066726F6D2061646D69A8
:100230006E20534D532E20446576696365206973A3
:1002400020726573657474696E672E004E6F20634B
:100250006F6E6E656374696F6E2077697468207362
:1002600065727665722E005475726E206F66662018
:100270007365727665722066726F6D206275747434
:100280006F6E20707573682E20537563636573738A
:100290002E005475726E206F6666207365727665E7
:1002A000722066726F6D20757365722063616C6C6D
:1002B0002025732E20537563636573732E00536579
:1002C0007276657220726563656976656420636F16
:1002D0006D6D616E6420746F207368757420646F37
:1002E000776E2E005475726E206F6666207365728D
:1002F0007665722066726F6D20627574746F6E2001
:10030000707573682E204661696C2E20446576698D
:10031000636520697320726573657474696E670024
:100320005475726E206F66662073657276657220F2
:1003300066726F6D207075736820627574746F6E6D
:100340002E204661696C2E005475726E206F6666B1
:10035000207365727665722066726F6D20757365A5
:10036000722063616C6C2025732E204661696C2EAF
:10037000005475726E206F666620736572766572C2
:100380002066726F6D20757365722063616C6C2ED0
:10039000204661696C2E2044657669636520697327
:1003A00020726573657474696E67004E6F20636FA9
:1003B0006E6E656374696F6E20776974682073650B
:1003C000727665722E000D0A00417574686F72694D
:1003D0007A6174696F6E3A20426561726572202598
:1003E000730D0A00474554202F757020485454500F
:1003F0002F312E310D0A486F73743A2025733A2538
:10040000750D0A00474554202F646F776E204854BD
:1004100054502F312E310D0A486F73743A202573D2
:100420003A25750D0A0022646F776E2200227570DE
:10043000220022726573706F6E73652200226F6BEB
:1004400022002273746174757322000D0A004175D5
:1004500074686F72697A6174696F6E3A204265617F
:100460007265722025730D0A00474554202F73745E
:100470006174757320485454502F312E310D0A4841
:100480006F73743A2025733A25750D0A004465761A
:10049000696365207475726E6564206F6E200077E5
:1004A00077772E79616E6465782E72750041542BD2
:1004B000434950434C4F53450D0041542B43495041
:1004C000434C4F53450D0041542B4349505348551D
:1004D000540D0041542B43495053454E440D0041A7
:1004E000542B43495053544152543D2254435022BB
:1004F0002C222573222C222564220D0041542B43EB
:10050000444E534F5249503D310D0041542B43440A
:100510004E534F5249503D300D00434F4E4E4543D0
:1005200054204F4B0041542B43494653520D004930
:100530005020475052534143540049502047505295
:10054000534143540041542B434950535441545553
:10055000530D0041542B43494943520D004950204B
:100560005354415254004950205354415254004175
:10057000542B4349505354415455530D0041542B6F
:10058000435354540D00495020494E495449414C5D
:1005900000434F4E4E454354494E47004950204971
:1005A0004E4400495020434F4E4649470041542B8A
:1005B0004349505354415455530D0041542B434D1E
:1005C0004744413D2244454C20414C4C220D0041C2
:1005D000542B434D47443D25640D0041542B434D5E
:1005E000474C3D22414C4C220D002B434C49503A84
:1005F000002B434D54493A0041542B434D47533D42
:10060000222573220D0041542B434D47533D222593
:1006100073220D002B4353513A0041542B43535145
:100620000D0041542B435245473F0D0041542B438D
:100630005245473F0D002B435245473A002B434F4D
:1006400050533A0041542B434F50533F0D004154F7
:100650002B434F50533D332C320D002B4950440057
:1006600053454E44204641494C0053454E44204F8B
:100670004B00434F4E4E454354204641494C0043A6
:100680004F4E4E454354204F4B004552524F52005F
:100690004F4B004552524F52004F4B004552524F64
:1006A00052004552524F52002B434D474C3A0041A5
:1006B00054480D0041542B434950484541443D3175
:1006C0000D0041542B43474154543D310D004154DA
:1006D0002B434C49503D310D0041542B434E4D4965
:1006E0003D302C312C302C302C300D0041542B431C
:1006F0004D47463D310D00415445300D00415426D3
:10070000460D0041540D0041542B4350494E3D22AB
:100710002573220D00343830310053494D205049A3
:100720004E005245414459004552524F52004154E7
:100730002B4350494E3F0D002B4950440041542B50
:10074000434950435347503D312C222573222C22DC
:100750002573222C222573220D00A9610000696EE9
:100760007465726E65742E6D74732E727500000060
:100770000000000000000000000000000000006D0C
:100780007473000000000000000000000000000082
:10079000000000006D747300000000000000000005
:1007A000000000000000000000AA610000696E74F3
:1007B00065726E657400000000000000000000001B
:1007C000000000000000000000000000000067645E
:1007D00061746100000000000000000000000000E3
:1007E0000000006764617461000000000000000008
:1007F0000000000000000000BC610000696E74652C
:10080000726E65742E74656C65322E727500000010
:100810000000000000000000000000000074656C93
:100820006532000000000000000000000000000031
:10083000000074656C6532000000000000000000DC
:10084000000000000000000B620000696E74657219
:100850006E65742E6265656C696E652E727500003A
:100860000000000000000000000000006265656CF0
:10087000696E65000000000000000000000000003C
:10088000006265656C696E65000000000000000094
:10089000000000000000B3610000696E7465726EB4
:1008A00065742E796F746100000000000000000084
:1008B0000000000000000000000000796F7461007B
:1008C0000000000000000000000000000000000028
:1008D000796F74610000000000000000000000005B
:1008E00000000000004E6574776F726B20706172BB
:1008F000616D73206E6F7420636F6E6669677572C9
:1009000065642E005368757474696E6720646F7730
:100910006E207365727665722E20537563636573FE
:10092000732077696C6C206265207265706F7274D9
:1009300065642E0053657276657220697320616C60
:10094000726561647920646F776E2E0072656C61E8
:10095000793D0073656E643D00636F6E6E65637410
:100960003D0070726F6D70743D00616E73776572DB
:100970003D00696E74657276616C3D007265706FE2
:1009800072743D00766F6963653D00746573746DC4
:100990006F64653D0069643D00746F6B656E3D007A
:1009A0006D7970686F6E653D00646576656C6F701B
:1009B000657270686F6E65733D0061646D696E701D
:1009C000686F6E65733D007573657270686F6E65F4
:1009D000733D0025752E25752E25752E257500690C
:1009E000703D0061646D696E6D6F64653D00707788
:1009F000643D00756E616D653D0061706E3D006F18
:100A000070657261746F726E756D6265723D0073B0
:100A10006D73696E74657276616C3D0072657365A5
:100A200074706572696F643D006C6F6E677072659B
:100A300073733D00706F72743D007777772E0057A7
:100A400057572E0074657374646F6D656E3D007743
:100A500077772E005757572E00646F6D656E3D00F7
:100A600073656E643D25643B0073656E643B006393
:100A70006F6E6E6563743D25643B00636F6E6E65DB
:100A800063743B0070726F6D70743D25643B007041
:100A9000726F6D70743B006572726F72313D2564C8
:100AA0002C6572726F72323D25643B006572726F05
:100AB000723B00706572696F643D2564733B006929
:100AC0006E74657276616C3B00616E737765723D22
:100AD0002564733B00616E737765723B00736967D1
:100AE0006E616C3D256464426D3B007369676E61A5
:100AF0006C3B006E6F206576656E74732064757252
:100B0000696E672070617374206D6F6E74683B004E
:100B10006C6173746576656E743D2573202564641D
:100B200025646825646D2564732061676F3B006CE4
:100B30006173746576656E743B0072656C61793DB6
:100B400025753B0072656C61793B007265706F7250
:100B5000743D25753B007265706F72743B00766F53
:100B60006963653D25753B00766F6963653B00747D
:100B70006573746D6F64653D25753B0074657374B2
:100B80006D6F64653B006C6F6E6770726573733D6B
:100B900025753B006C6F6E6770726573733B0073F5
:100BA0006D737265736574636F756E743D25753B07
:100BB00000736D737265736574636F756E743B005B
:100BC000736D73696E74657276616C3D25753B005B
:100BD000736D73696E74657276616C3B00726573D8
:100BE0006574706572696F643D25753B007265734D
:100BF0006574706572696F643B00286C6F77206460
:100C00007572696E672025756425756825756D2573
:100C10007573293B00286F6B293B00286F7665723E
:100C2000766F6C74616765293B00766F6C746167E1
:100C3000653D252E31665600766F6C746167653BA5
:100C400000554E4B4E4F574E3B00444F574E3B00C6
:100C500055503B0073657276657273746174653DBF
:100C60000073657276657273746174653B006D79AB
:100C700070686F6E653D25733B006D7970686F6EAF
:100C8000653B003B0025732C00646576656C6F70D6
:100C9000657270686F6E65733D00646576656C6F34
:100CA00070657270686F6E65733B003B0025732C36
:100CB0000061646D696E70686F6E65733D0061649C
:100CC0006D696E70686F6E65733B003B0025732C19
:100CD000007573657270686F6E65733D007573653E
:100CE0007270686F6E65733B0061646D696E6D6FE5
:100CF00064653D25643B0061646D696E6D6F64657C
:100D00003B00746F6B656E3D25733B00746F6B65C4
:100D10006E3B00756E616D653D25733B00756E61C0
:100D20006D653B007077643D25733B007077643BD5
:100D30000061706E3D25733B0061706E3B006F700B
:100D4000657261746F726E756D6265723D256C754A
:100D50003B006F70657261746F726E756D62657263
:100D60003B00727374636F756E743D256C753B6DDB
:100D7000646D5F727374636F756E743D256C753B43
:100D800000727374636F756E743B00706F72743DA4
:100D900025753B00706F72743B0074657374646FEB
:100DA0006D656E3D25733B0074657374646F6D658E
:100DB0006E3B003D25733B00646F6D656E0069708E
:100DC00000646F6D656E3B003D25733B00646F6D85
:100DD000656E0069700069703B003D25733B706F64
:100DE00072743D25753B746F6B656E3D25733B00DA
:100DF000646F6D656E006970006E6574706172611C
:100E00006D733B003B00302E302E310076657273DF
:100E1000696F6E3D0076657273696F6E3B00696441
:100E20003D25733B0069643B006572726F72733DD0
:100E3000256C753B006572726F72733B0074696D4F
:100E4000653D25756425756825756D2575733B00B1
:100E500074696D653B004163636573732064656EFF
:100E60006965640068656C703B00534D532063688E
:100E7000616E6E656C207465737400526573657481
:100E800020636F6D6D616E6420616363657074656E
:100E9000642E004163636573732064656E696564E5
:100EA0000072657365746D63753B004E6574776F92
:100EB000726B20706172616D73206E6F7420636F4E
:100EC0006E666967757265642E00436F6D6D616E45
:100ED000642061636365707465642E205375636379
:100EE0006573732077696C6C206265207265706F22
:100EF000727465642E005365727665722069732082
:100F0000616C72656164792075702E004163636560
:100F100073732064656E69656400736572766572CB
:100F200075703B006F6B00726573657461646D6909
:100F30006E6D6F6465212100726573756C74696EE6
:100F40006720534D53207465787420697320746F43
:100F50006F206C6F6E67006572726F720041636321
:100F60006573732064656E696564006765743A0033
:100F70006572726F72006F6B0041636365737320FB
:100F800064656E696564007365743A0073657276B2
:100F9000657275703B0D0A6765743A7365743A0D36
:100FA0000A7573657270686F6E65733B61646D6915
:100FB0006E70686F6E65733B61646D696E6D6F64B2
:100FC000653B73657276657273746174653B7665B3
:100FD0007273696F6E3B69703B646F6D656E3B70D9
:100FE0006F72743B746F6B656E3B6C6F6E67707283
:100FF0006573733B6C6173746576656E743B766F75
:101000006C746167653B6E6574706172616D733B92
:1010100069643B00000000000000000000000000C8
:10102000000000000000000000000000000011248B
:101030001FBECFE5D8E0DEBFCDBF10E0A0E6B0E038
:10104000E0E4F0E602C005900D92A636B107D9F7AC
:1010500026E0A6E6B0E001C01D92A330B207E1F79A
:101060000E94E1170C941E300C94000083E487B9B1
:1010700086EC86B90895CF93DF9300D0CDB7DEB765
:1010800084B1898385B183708A8386EC86B9409167
:101090006C0050916D009A0184E0369527958A95F1
:1010A000E1F730936B0020936A0089819A81840F65
:1010B000951F821B930B90936D0080936C000F9093
:1010C0000F90DF91CF9108958FB7F89420916A0027
:1010D00030916B008FBF81E0293F310508F480E03B
:1010E00008958FB7F89460916A0070916B008FBF7C
:1010F00080E090E00E94E92720E030E044E05DE3FA
:101100000E942B2808950E946408882349F01092B9
:1011100066001092670010926800109269000895AE
:101120008091660090916700A0916800B09169007D
:101130000196A11DB11D8093660090936700A09356
:101140006800B0936900089508950F931F93CF939B
:10115000DF938B010E940B2FEC01892B69F1C801F1
:101160000E94F72E8C0F9D1FFC0120E030E0419182
:10117000442311F123363105F9F0403211F04930A2
:1011800019F42F5F3F4FF3CF4A33B1F42F5F3F4F36
:10119000280F391F50E0C901F90140812F5F3F4FEF
:1011A000442351F0533641F0403211F0493011F4EC
:1011B0005F5FF1CF423211F080E090E0DF91CF919C
:1011C0001F910F9108951F93CF93DF931092760094
:1011D000109277006BE770E00E94422F009789F130
:1011E00062E474E00E94A508EC01009751F144E02C
:1011F00050E06DE374E00E94E32E892B11F511E0BD
:101200001093770062E374E0CE010E94A508EC0120
:101210000097B9F044E050E06DE274E00E94E32EE4
:10122000892B19F4109376000CC046E050E066E27A
:1012300074E0CE010E94E32E892B19F482E08093A2
:101240007600DF91CF911F910895EF92FF920F9357
:101250001F93CF93DF93CDB7DEB7C15AD1090FB635
:10126000F894DEBF0FBECDBF8091F2048F938091C2
:10127000F1048F938FEA94E09F938F9389E694E033
:101280009F938F939E012F5F3F4F79013F932F9341
:101290000E949B2F8701080F191F83EF94E00FB660
:1012A000F894DEBF0FBECDBF2091F304222391F04E
:1012B0009F938F938EE494E09F938F931F930F934C
:1012C0000E949B2F080F191F0F900F900F900F90E7
:1012D0000F900F908BE494E09F938F931F930F9345
:1012E0000E949B2F4091F1045091F20423EE38E0CC
:1012F0006FEA74E0C7010E94A5150F900F900F9040
:101300000F90813051F490917600909374009093F7
:101310008C00911110C080E00EC09091740091116A
:1013200006C020917500211102C010928C0090938C
:10133000750010927400CF55DF4F0FB6F894DEBFE2
:101340000FBECDBFDF91CF911F910F91FF90EF9016
:101350000895FF920F931F93CF93DF93CDB7DEB71E
:10136000C15AD1090FB6F894DEBF0FBECDBF882396
:1013700011F1813009F076C08091F2048F93809151
:10138000F1048F938FEA94E09F938F9384EE93E020
:101390009F938F938E010F5F1F4F1F930F930E9498
:1013A0009B2F080F191F0FB6F894DEBF0FBECDBFDD
:1013B000FF24F3941EC08091F2048F938091F10476
:1013C0008F938FEA94E09F938F9384E094E09F93B0
:1013D0008F938E010F5F1F4F1F930F930E949B2FC0
:1013E000080F191F0FB6F894DEBF0FBECDBF82E005
:1013F000F82E83EF94E02091F304222391F09F9341
:101400008F9389EC93E09F938F931F930F930E9488
:101410009B2F080F191F0F900F900F900F900F9098
:101420000F9086EC93E09F938F931F930F930E94EE
:101430009B2F4091F1045091F20423EE38E06FEAC3
:1014400074E0CE0101960E94A5150F900F900F90A9
:101450000F90813039F480917700813019F4F09247
:101460008C0001C080E0CF55DF4F0FB6F894DEBF8F
:101470000FBECDBFDF91CF911F910F91FF900895C7
:101480008091AF04882361F08091F1049091F2047F
:10149000892B29F081E090918A00911101C080E0B0
:1014A00008950F931F93CF93DF93CDB7DEB7C15A43
:1014B000D1090FB6F894DEBF0FBECDBF87E691E02D
:1014C0009F938F938E010F5F1F4F1F930F930E9467
:1014D0009B2F20E030E040E550E060ED74E0C80173
:1014E0000E94A51591E00F900F900F900F90813002
:1014F00009F090E0892FCF55DF4F0FB6F894DEBF8B
:101500000FBECDBFDF91CF911F910F910895209114
:1015100095042B3289F42091C705222369F065E9EF
:1015200074E00E9475148091C70581508093C705AF
:101530000E94270E81E0089580E00895CF92DF9207
:10154000EF92FF920F931F93CF93DF9390916D03D0
:1015500080918B00911103C0882309F4D1C08823A6
:1015600021F08AE090E00E9475270E9450268C5757
:101570009C4F6C0100E213E0C5E5D5E088E4E82E5D
:1015800083E0F82E80E00E94A90981115CC00E94CE
:1015900050268C199D09181619060CF04EC0809122
:1015A0008B00882341F164EF75E08BEA93E00E94A1
:1015B0007514882321F081E793E00E94870A84EF65
:1015C00095E09F938F93FF92EF92DF93CF930E94CA
:1015D0009B2F8FB7F89410926E0310926F031092A6
:1015E0007003109271038FBF0F900F900F900F90A8
:1015F0000F900F901DC080916D038823C9F01F9339
:101600000F93DF93CF930E949B2F8FB7F894109284
:101610006E0310926F0310927003109271038FBFCC
:1016200084EE92E00E94870A0F900F900F900F9027
:101630000E94840D81E00E94C1178091CC0590E04A
:101640000E94A0269FCF88E893E10E948726809180
:101650008B00882361F110928B0010928E00109203
:101660008D0064EF75E08EEB92E00E94751484EFBC
:1016700095E09F938F9382E992E09F938F9385E506
:1016800095E09F938F930E949B2F8FB7F8941092B1
:101690006E0310926F0310927003109271038FBF4C
:1016A0000F900F900F900F900F900F901FC0809190
:1016B0006D038823D9F010926D0387E692E09F9323
:1016C0008F9385E595E09F938F930E949B2F8FB713
:1016D000F89410926E0310926F03109270031092A0
:1016E00071038FBF0F900F900F900F90DF91CF91EC
:1016F0001F910F91FF90EF90DF90CF900C94840D8D
:10170000DF91CF911F910F91FF90EF90DF90CF90DD
:101710000895EF92FF920F931F93CF93DF938091E1
:101720006A03813009F07AC00E9450268C579C4F82
:101730007C01C8EED1E005E515E081E00E94A90931
:101740008130C9F10E9450268E199F09181619067A
:1017500064F565EE75E08CE492E00E9475148823D0
:1017600021F080E192E00E94870A85EE95E09F9348
:101770008F93DF93CF931F930F930E949B2F8FB76D
:10178000F89410926E0310926F03109270031092EF
:1017900071038FBF0E94840D81E00E94C1170F90DA
:1017A0000F900F900F900F900F908091CC0590E0CC
:1017B0000E94A026C2CF88EE93E00E948726109256
:1017C0006A0365EE75E084EC91E00E94751485EE85
:1017D00095E09F938F9389E991E09F938F9385E59F
:1017E00095E09F938F930E949B2F8FB7F894109250
:1017F0006E0310926F0310927003109271038FBFEB
:101800000F900F900F900F900F900F90DF91CF914E
:101810001F910F91FF90EF900C94840DDF91CF9169
:101820001F910F91FF90EF900895CF9380916100E9
:10183000882369F0109261000E9450262091CC0507
:10184000821B9109059690937300809372000E9409
:1018500050262091720030917300821B930B2091CF
:10186000CC0530E0281739070CF05EC00E94B51394
:1018700080917100863060F50E942509C82F813063
:1018800039F4109271001092700010926F0046C0EF
:101890000E94400A882309F441C0809171008F5F43
:1018A0008093710080917A0090917B00A0917C00E0
:1018B000B0917D000196A11DB11D80937A00909397
:1018C0007B00A0937C00B0937D00C093780026C07D
:1018D00080916F00909170000196909370008093BA
:1018E0006F008835924018F081E00E94C1170E9475
:1018F000510A811106C0809171008F5F8093710041
:1019000002C01092710080917100883038F08CE62E
:1019100091E00E94870A81E00E94C1170E94502630
:101920009093730080937200CF910895CF9380912C
:10193000E1059091E205892B09F462C08091D00500
:101940008B3209F05DC080916000882341F01092D5
:1019500060000E94582690937F0080937E000E9432
:10196000582620917E0030917F00821B930B40917E
:10197000E1055091E205CCE3C49F9001C59F300D75
:10198000112428173907C8F580916E0081110EC007
:101990008091D0058B3231F460ED75E086E591E001
:1019A0000E94751481E080936E002DC00E9458261D
:1019B00020917E0030917F00821B930B4091E105C6
:1019C0005091E205C49F9001C59F300D1124215F05
:1019D0003F4F28173907B8F48091DF059091E00553
:1019E00080362AEE920728F401969093E0058093C2
:1019F000DF0581E0CF910C94C11710926E0003C0F7
:101A000081E080936000CF910895CF92DF92EF92B2
:101A1000FF928091DD059091DE05892BF9F08FB75B
:101A2000F894C0907203D0907303E0907403F09028
:101A300075038FBF2091DD053091DE05A0E1BEE08A
:101A40000E94BC2C6C157D058E059F0538F480E046
:101A5000FF90EF90DF90CF900C94C117FF90EF9024
:101A6000DF90CF9008959C019FB7F894E199FECF45
:101A70003FBB2EBB6DBB84E08CBB82E08CBB9FBFA9
:101A80000895E199FECF9FBB8EBBE09A8DB3089578
:101A9000EF92FF920F931F93CF93DF938C01060F6A
:101AA000171FEC017A01E81AF90AC7018C0F9D1F74
:101AB000C017D10721F069910E94330DF6CFDF9155
:101AC000CF911F910F91FF90EF900895EF92FF92A9
:101AD0000F931F93CF93DF938C01060F171FEC0119
:101AE0007A01E81AF90AC7018C0F9D1FC017D107A8
:101AF00021F00E94410D8993F6CFDF91CF911F9184
:101B00000F91FF90EF9008952FB7F89480916E0396
:101B100090916F03A0917003B09171032FBF8093D8
:101B2000B9059093BA05A093BB05B093BC0540E0FE
:101B300050E060E272E083EC93E00C94480D40E0EA
:101B400050E060E272E083EC93E00E94660D8091C9
:101B5000C9058F3F71F580E292E0E3ECF3E0DF012D
:101B60009C011D9221503040E1F781E08093C9052E
:101B70008093C8058093CA0589E18093CB0598E7D7
:101B80009093CC059FE09093CD058093CE058093F4
:101B9000CF058FE994E09F938F9380ED94E09F931E
:101BA0008F930E949B2F0E94840D0F900F900F9097
:101BB0000F908091DF059091E005019621F410923D
:101BC000E0051092DF058FB7F89440916E035091B5
:101BD0006F0360917003709171038FBF8091B9059D
:101BE0009091BA05A091BB05B091BC054817590763
:101BF0006A077B0798F48FB7F8944091B905509124
:101C0000BA056091BB057091BC0540936E0350937B
:101C10006F0360937003709371038FBF08954CEF4F
:101C200051E064E070E08FEB95E00E94480D40E0E9
:101C300052E064E070E083EC95E00E94480D4CE1D6
:101C400052E062E070E08FED95E00C94480D44E0C6
:101C500052E061E070E087EC95E00C94480D2FB7FE
:101C6000F89480916E0390916F03A0917003B091EE
:101C700071032FBF4091B9055091BA056091BB0522
:101C80007091BC0584179507A607B70781F080936C
:101C9000B9059093BA05A093BB05B093BC0546EF78
:101CA00051E064E070E089EB95E00C94480D0895F4
:101CB00004B603FC20C0E5E5F5E084E6DF011D92F3
:101CC0008A95E9F78DE894E09F938F93FF93EF93C4
:101CD0000E949B2F8FB7F89410926E0310926F039F
:101CE00010927003109271038FBF0E94840D0F90A9
:101CF0000F900F900F908FE184BF0895EF92FF92A5
:101D00000F931F93CF93DF931F92CDB7DEB77C0164
:101D10000E9448268C010E0D1F1D0E944826801B24
:101D2000910B1816190654F00E94CA278823A9F3AC
:101D30000E94BE27898389818983EACF0F90DF9132
:101D4000CF911F910F91FF90EF900895CF92DF9266
:101D5000EF92FF920E9450262091880030918900D6
:101D6000821B930B0B9744F080918700882321F00E
:101D700080937900109287000E94CA27882309F473
:101D8000D6C00E94502690938900809388000E94BC
:101D9000BE2790918700933029F118F4992341F0E0
:101DA000C6C0943009F457C0953009F4A1C0BFC033
:101DB000882309F4BCC08D3009F4B9C08A3009F415
:101DC000B6C08093940021E030E0309386002093E9
:101DD000850093E0909387008E3309F0A8C010929D
:101DE0009500A0C02091850030918600F901EC5645
:101DF000FF4F8083A9014F5F5F4F50938600409350
:101E00008500403D92E0590728F01092860010921C
:101E1000850032C04230510508F489C0F901ED5601
:101E2000FF4F90819D3021F48A3011F410827AC0E6
:101E30004530510509F07BC044E050E068E377E0AD
:101E400084E990E00E94E32E892B09F070C084E0C1
:101E5000809387006CC02091850030918600F90145
:101E6000EC56FF4F80832F5F3F4F309386002093C7
:101E700085002930310518F01092870058C08A3348
:101E800009F055C08091980090E0C0970A97A0F79C
:101E90004AE050E060E070E088E990E00E940D2D9B
:101EA00020918500309186006B017C01C20ED31E0B
:101EB000E11CF11C40EDC41642E0D406E104F1043B
:101EC000D8F67093F3056093F205620F731F709359
:101ED0008400609383002C563F4F3093E405209399
:101EE000E30585E080938700603D724028F61FC0BF
:101EF0002091850030918600F901EC56FF4F8083D8
:101F0000C90101969093860080938500803D22E070
:101F1000920708F07ACF20918300309184008217D5
:101F2000930728F01092870084E990E002C080E0D7
:101F300090E0FF90EF90DF90CF9008950E946C1892
:101F400080E00E9470188CED95E00E9487260C942A
:101F50006E18CF93DF930E94A60EEC01009759F103
:101F600061EF75E00E940B2F892B21F081E08093B7
:101F7000630024C06AEE75E0CE010E940B2F00972B
:101F8000E1F06BE270E006960E94422FEC0160E007
:101F90000E94DE19882359F081E080938E008CE046
:101FA000FE01A4EFB5E001900D928A95E1F781E082
:101FB00080938D0003C080E001C081E0DF91CF916C
:101FC0000895CF93DF93EC010E944826C80FD91FD4
:101FD0000E94A90F81110AC00E9448268C1B9D0BEC
:101FE00018161906ACF780E090E002C084E990E092
:101FF000DF91CF910895CF93DF93EC010E944826A3
:10200000C80FD91F0E94A90F811109C00E9448263C
:102010008C1B9D0B18161906ACF780E012C068EAFD
:1020200076E084E990E00E940B2F892B49F462EA64
:1020300076E084E990E00E940B2F892B19F3EDCF15
:1020400081E0DF91CF910895CF93DF93C82F0E9455
:1020500050268C0F911DEC010E94A90F811109C01F
:102060000E9450268C1B9D0B18161906ACF780E0B9
:102070000EC0809194008E3349F06CE976E084E9DB
:1020800090E00E940B2F892B39F3F1CF81E0DF9193
:10209000CF910895CF93DF93C82F0E9450268C0FC5
:1020A000911DEC010E94A90F811109C00E945026C8
:1020B0008C1B9D0B18161906ACF780E012C069E95D
:1020C00076E084E990E00E940B2F892B49F463E9C4
:1020D00076E084E990E00E940B2F892B19F3EDCF75
:1020E00081E0DF91CF910895CF93DF93EC010E94BF
:1020F0004826C80FD91F0E94A90F811109C00E944C
:1021000048268C1B9D0B18161906ACF780E012C0F0
:1021100060E976E084E990E00E940B2F892B49F476
:102120006AE876E084E990E00E940B2F892B19F38E
:10213000EDCF81E0DF91CF9108957F928F929F92B2
:10214000AF92BF92CF92DF92EF92FF920F931F93C5
:10215000CF93DF93CDB7DEB7CB54D1090FB6F89448
:10216000DEBF0FBECDBF4091C4035091C503609147
:10217000C6037091C7038091900090919100A09147
:102180009200B0919300481759076A077B0749F4FA
:10219000452B462B472B09F479C02091C803211108
:1021A00023C0893A21E69207A105B10509F472C05E
:1021B0008A3A31E69307A105B10509F46DC08C3B5D
:1021C00021E69207A105B10509F468C08B3032E61B
:1021D0009307A105B10509F463C0833B9146A105AE
:1021E000B10509F053C05EC02091E9032223C9F272
:1021F00068EC73E0CE0101960E944D2F69EE73E00A
:10220000CE01C7960E944D2F6EEF73E0CE018296ED
:102210000E944D2F83E0782E8E010E5D1F4F7E01B0
:1022200037E3E30EF11CCE0101964C019DE3C92E6C
:1022300097E0D92E24E9A22E20E0B22E84E690E089
:102240000E9487261F930F93FF92EF929F928F9287
:10225000DF92CF92BF92AF920E949B2F84E990E0D1
:102260000E94D32788E893E10E9474100FB6F89477
:10227000DEBF0FBECDBF813029F07A947110DECF62
:10228000882331F091E090938A0027C08FEF25C01A
:1022900080E023C000E007C001E005C002E003C009
:1022A00003E001C004E03FE4039F80011124B80172
:1022B000625A784FCE0101960E94F02EB801615803
:1022C000784FCE01C7960E94F02EB8016C56784F19
:1022D000CE0182960E94F02E9DCFC55BDF4F0FB6D8
:1022E000F894DEBF0FBECDBFDF91CF911F910F914C
:1022F000FF90EF90DF90CF90BF90AF909F908F9026
:102300007F9008950F931F93CF93DF9300D000D059
:102310001F92CDB7DEB784EF91E00E9487268EE250
:1023200097E00E94DC2788E893E10E94E10F8C018E
:10233000009709F443C068E277E00E940B2F892BD5
:10234000E9F562E277E0C8010E940B2F892BA1F525
:102350006AE177E0C8010E940B2F892B79F188E8A8
:1023600093E10E94741084EF91E00E94872685E13A
:1023700097E09F938F938E010F5F1F4F1F930F93D3
:102380000E949B2F1F930F9387E097E09F938F935B
:1023900084E990E09F938F930E949B2F84E990E0C3
:1023A0000E94D32788E893E10E9474100FB6F89436
:1023B000DEBF0FBECDBF03C081E001C080E00F9043
:1023C0000F900F900F900F90DF91CF911F910F9171
:1023D00008950F931F93CF930E9450268C01085AA3
:1023E0001D4F8091CA058823C1F00E94951882E391
:1023F00090E00E9487260E94911880EA9FE00E9448
:1024000087260E94931882E390E00E9487260E940C
:10241000971880EA9FE00E9487260E945026801B22
:10242000910B181619060CF49FC00E949E0F8FE0A6
:1024300090E00E94A02683E097E00E94DC2780EDD8
:1024400097E00E947410882341F388EE93E00E9485
:1024500087268DEF96E00E94DC2788E893E10E94B2
:1024600074108823D1F288EE93E00E94872687EFCC
:1024700096E00E94DC2788E893E10E94741088238C
:1024800061F2C3E088EE93E00E9487260E948211E9
:10249000813029F0C150B1F7882309F4BECFC3E0E1
:1024A00088EE93E00E9487268CEE96E00E94DC275F
:1024B00088E893E10E947410813029F0C15081F7BF
:1024C000882309F4AACFC3E088EE93E00E94872610
:1024D00089ED96E00E94DC2788E893E10E94741061
:1024E000813029F0C15081F7882309F496CFC3E0E9
:1024F00088EE93E00E9487268EEC96E00E94DC270F
:1025000088E893E10E947410813029F0C15081F76E
:10251000882309F482CFC3E088EE93E00E948726E7
:1025200082EC96E00E94DC2788E893E10E94741018
:10253000813029F0C15081F7882309F46ECFC3E0C0
:1025400088EE93E00E94872684EB96E00E94DC27C9
:1025500088E893E10E947410813041F0C15081F706
:10256000882309F45ACF02C080E001C081E0CF91F6
:102570001F910F910895CF93C3E084E690E00E94ED
:1025800087268FEA96E00E94DC2788E893E10E9484
:102590007410811102C0C15081F7CF910895CF937B
:1025A000DF93C82F0E9450268C0F911DEC010E94D2
:1025B000A90F811109C00E9450268C1B9D0B181673
:1025C0001906ACF780E012C06FE776E084E990E08E
:1025D0000E940B2F892B49F462E776E084E990E0B2
:1025E0000E940B2F892B19F3EDCF81E0DF91CF9162
:1025F0000895CF93DF93C82F0E9450268C0F911D12
:10260000EC010E94A90F811109C00E9450268C1B69
:102610009D0B18161906ACF780E012C06AE676E04A
:1026200084E990E00E940B2F892B49F460E676E064
:1026300084E990E00E940B2F892B19F3EDCF81E004
:10264000DF91CF9108950F931F93CF93C82F0E94CE
:1026500050268C010C0F111D0E94A90FC82F81114B
:1026600008C00E945026801B910B18161906A4F76B
:102670000BC044E050E06BE576E084E990E00E9416
:10268000E32E892B49F7C1E08C2FCF911F910F9139
:1026900008950F931F93CF938C010E944826080F33
:1026A000191F0E94A90FC82F811108C00E94482637
:1026B000801B910B18161906A4F701C0C1E08C2FDE
:1026C000CF911F910F910895CF93DF930E945026D1
:1026D000EC0164960E9450268C1B9D0B181619065F
:1026E00014F480E03FC084E690E00E9487268EE4E8
:1026F00096E00E94DC2788E893E10E947410813004
:1027000049F784E690E00E94872684E496E00E94E0
:10271000DC2788E893E10E9449138130D9F66DE304
:1027200076E084E990E00E940B2F009791F362E23B
:1027300070E00E94422F009761F34AE050E060E0B1
:1027400070E001960E940D2D6115710581059105BE
:1027500041F2609390007093910080939200909367
:10276000930081E0DF91CF91089584E690E00E948C
:1027700087268AE196E00E94DC2788EB9BE00E9496
:102780004913811104C08FEF80936200089564E1C2
:1027900076E084E990E00E940B2F009771F36AE3E2
:1027A00070E00E94422F009771F3FC01228130E01B
:1027B000205331092A30310530F74AE050E060E01B
:1027C00070E002960E940D2D603271058105910521
:1027D000D0F6660F6157609362000895CF93DF9340
:1027E000EC010E944826C80FD91F0E94A90F811131
:1027F00008C00E9448268C1B9D0B18161906ACF7C2
:102800001CC066E376E084E990E00E940B2F0097FD
:1028100061F36CE270E00E94422F009731F34AE0CE
:1028200050E060E070E001960E940D2DDC01CB01CC
:102830008B7F0197A105B10511F080E001C081E017
:10284000DF91CF91089584E690E00E9487268CE284
:1028500096E00E94DC2788E893E10E94EE13813025
:1028600019F480938F00089510928F0080E00895EE
:102870000F931F93CF93DF93EC01162F072F0E9426
:102880002314882361F184E690E00E9487260F9349
:102890001F9386E096E09F938F9384E990E09F9347
:1028A0008F930E949B2F84E990E00E94D32784E1BC
:1028B0000E9424100F900F900F900F900F900F9088
:1028C000882369F0CE010E94D3278AE10E94E52780
:1028D0008BE0DF91CF911F910F910C944A1080E013
:1028E000DF91CF911F910F9108950F931F93CF9375
:1028F000DF93EC01162F072F0E942314882361F128
:1029000084E690E00E9487260F931F9388EF95E05E
:102910009F938F9384E990E09F938F930E949B2FC6
:1029200084E990E00E94D32784E10E9424100F9054
:102930000F900F900F900F900F90882369F0CE01A9
:102940000E94DC278AE10E94E5278BE0DF91CF918E
:102950001F910F910C944A1080E0DF91CF911F914D
:102960000F910895CF93DF93EC010E945026C80F7A
:10297000D91F88EE93E00E94872682E296E00E94AB
:10298000DC2788E893E10E94EE13813049F00E9431
:1029900050268C1B9D0B181619065CF780E001C0B1
:1029A00081E0DF91CF910895FC0120812B3271F4F9
:1029B00031960C96219130E0205331092A303105AF
:1029C00028F4E817F907B1F781E0089580E0089549
:1029D00084E690E00E9487268BEB95E00E94DC273E
:1029E0008AE00C944A10AF92BF92CF92DF92EF929E
:1029F000FF920F931F93CF93DF93809163008823FF
:102A000061F184E690E00E9487268BED95E00E94BC
:102A1000DC2788E893E10E94FB0F8130D1F46AE360
:102A200070E084E990E00E94422F009791F3AC019E
:102A30004F5F5F4F0696EA014F5F5F4F288130E09E
:102A4000205331092A30310550F04817590799F7BA
:102A5000E0CF0E94E8141092630080E06BC04AE06F
:102A600050E060E070E0CE010E940D2D6B017C0112
:102A7000C114D10481E0E806F10458F66CE270E07C
:102A8000CE010E94422F009721F26CE270E00E947A
:102A9000422F009709F4BDCF6BE270E00E94422FF5
:102AA000EC01009779F00E94D414882309F4B1CF87
:102AB0008CE0FE01A5EEB5E001900D928A95E1F75C
:102AC0001092F10588E893E10E944913813009F6DC
:102AD00088EE93E00E947E0E84E990E00E94C72475
:102AE000C3E00FEC15E084E9A82E80E0B82E84E660
:102AF00090E00E948726DF92CF921F930F93BF92A0
:102B0000AF920E949B2F84E990E00E94D32788E82F
:102B100093E10E9474100F900F900F900F900F9000
:102B20000F90813011F0C15011F784E690E00E94BF
:102B3000872681E0DF91CF911F910F91FF90EF9059
:102B4000DF90CF90BF90AF9008957F928F929F9229
:102B5000AF92BF92CF92DF92EF92FF920F931F93AB
:102B6000CF93DF937C01FB018081882309F4FBC1B3
:102B70004115510509F491C18901EA014B010E94F7
:102B80002314882309F48BC1F3E0DF2E84E690E060
:102B90000E9487268DEA95E00E94DC2788EB9BE067
:102BA0000E947410813031F0DA94D110EFCF882375
:102BB00009F477C188EB9BE00E944913882309F44C
:102BC00072C163EA75E084E990E00E940B2F892BC3
:102BD00009F06BC16CE975E084E990E00E940B2F6D
:102BE000892B09F062C161E975E084E990E00E94F7
:102BF0000B2F892B09F05BC166E875E084E990E052
:102C00000E940B2F892B09F449C0E3E0DE2E84E6F5
:102C100090E00E9487268DE795E00E94DC2780E700
:102C200097E10E947410813019F0DA94D110EFCF3F
:102C30000E9450260A965C0188EE93E00E94872647
:102C400073E0D72E84E690E00E9487268FE695E019
:102C50000E94DC2788EB9BE00E947410813031F0E9
:102C6000DA94D110EFCF882309F423C188EB9BE0DD
:102C70000E944913882309F41EC166E675E084E9C1
:102C800090E00E940B2F892B49F40E9450268A194C
:102C90009B091816190684F686E065C16DE575E096
:102CA00084E990E00E940B2F892B09F44CC063E06B
:102CB000D62E84E690E00E94872683E595E00E9468
:102CC000DC2780E797E10E947410813031F0DA94BC
:102CD000D110EFCF882309F4F0C00E9450260A9645
:102CE0005C0188EE93E00E94872653E0D52E84E6AF
:102CF00090E00E94872685E495E00E94DC2788E822
:102D000093E10E947410813031F0DA94D110EFCF4A
:102D1000882309F4D4C088E893E10E9449138823EA
:102D200009F4CFC06AE375E084E990E00E940B2FBC
:102D3000892B49F40E9450268A199B0918161906F6
:102D400084F68AE010C16FE275E084E990E00E94A9
:102D50000B2F892B61F46AE175E084E990E00E9411
:102D60000B2F892B09F0B3C043E0D42E24C033E0ED
:102D7000D32E84E690E00E94872685E295E00E94AB
:102D8000DC2788E893E10E944913813021F3DA942B
:102D9000D110EFCF8111DFCF8BE0E5C08CEF94E055
:102DA0000E94DC2788E893E10E947410813099F03A
:102DB000DA94DD2069F084E690E00E948726809115
:102DC000AF0490E0C0970A9748F78BE095E0E8CF12
:102DD000882309F478C083E0782E9FEDC92E94E013
:102DE000D92E24E9A22E20E0B22E84E690E00E94A3
:102DF0008726DF93CF939F928F92DF92CF92BF92DD
:102E0000AF920E949B2F84E990E00E94D32788E82C
:102E100093E10E947410EDB7FEB738960FB6F894A0
:102E2000FEBF0FBEEDBF813031F07A947110DDCF5F
:102E3000882309F44AC08091CE050E94CF128823CE
:102E400009F447C084E690E00E94872683ED94E071
:102E50000E94DC278091CD050E9424108130D9F595
:102E6000C7010E94D3278AE10E94E5278091CF0500
:102E70000E94F912813089F58091CB050E942313BD
:102E8000813069F50115110509F45FC08091E305F2
:102E90009091E405F801099558C080E064C083E191
:102EA00062C082E060C083E05EC08CE05CC084E110
:102EB0005AC084E058C085E056C087E054C088E01E
:102EC00052C089E050C08DE04EC08EE04CC0C3E1DE
:102ED00007C0CFE005C0C2E103C0C1E101C0C0E14D
:102EE000809182008F3F19F08F5F809382008091E4
:102EF0008200813031F40E945026909381008093AB
:102F000080000E9450262091800030918100821B19
:102F1000930B2091CC0530E0821793074CF0109270
:102F2000820084E690E00E94872687EC94E006C049
:102F300084E690E00E9487268AEB94E00E94DC27DA
:102F40008AE00E944A108C2F0EC01092820084E604
:102F500090E00E9487268DEA94E00E94DC278AE0B8
:102F60000E944A1081E0DF91CF911F910F91FF9055
:102F7000EF90DF90CF90BF90AF909F908F907F9019
:102F800008954091C3055091C4056091C5057091A5
:102F9000C6054F5F5F4F6F4F7F4F4093C305509300
:102FA000C4056093C5057093C60540385843614019
:102FB000710518F481110E940F0E0E942F0EF894D3
:102FC000FFCFA8958FE081BD0E94F2180E943F2696
:102FD0000E94B92681E00E9489270E9436087894D1
:102FE00084E690E00E9487260E949F0D0E94580E62
:102FF0000E94EA188AE090E00E9475278AE090E03B
:103000000E9475278AE090E00E9475270E94E911CE
:1030100081111DC08091BF059091C005A091C1058F
:10302000B091C205803828E3920721E0A207B105DC
:1030300058F40196A11DB11D8093BF059093C00562
:10304000A093C105B093C20581E00E94C1170E9400
:10305000602688E592E00E94B2148823A9F30E94BA
:1030600060260E946413882379F30E949D108823B0
:1030700059F30E9460268AE090E00E9475278AE05A
:1030800090E00E94752788EC90E00E9475270E94CE
:10309000F3140E94E814809169038111D5CF0E9436
:1030A0009E0A0E94890B0E94150C0E9460260E94B5
:1030B000EA180E94F3140E9413260E94A4080E949A
:1030C000050D0E94960C0E94CA27882319F00E94C1
:1030D000A90FF9CF8895DFCFD29A0895D298089595
:1030E000882311F0DA9A0895DA98089580B385FB61
:1030F000882780F908958B98939A089588B38F71E3
:1031000088BB87B3806E87BB0895C59A0895C5981C
:103110000895C69A0895C6980895C79A0895C798BD
:103120000895AF9A0895AF980895AE9A0895AE980D
:1031300008958091680381110AC083990FC0839913
:103140000DC083990BC081E08093680307C0839B07
:1031500005C0839B03C08399109268038091680324
:103160000895CF930E947618882349F00E9476181C
:10317000882329F00E947618C1E0811101C0C0E0C7
:1031800080916400C81719F1C13091F480E00E9469
:1031900089278BB38F708BBB8AB38F708ABB82B346
:1031A0008C7B82BB81B38C7B81BBC298BA980DC0EB
:1031B000C298BA9A8BB38F758BBB8AB3806A8ABB6D
:1031C000909881E081BB0E948927C09364008C2F76
:1031D000CF9108950E94B118882319F00E946026AB
:1031E000F9CF089518BA84E087BB1BBA80EA8ABB7E
:1031F00012BA82E181BB85B38F7385BB84B3806CC7
:1032000084BB0E947B180C947E18809167038F5FAB
:103210008B3418F48093670302C010926703809187
:103220008C00813031F0823049F480916703811144
:1032300003C00E94851804C0883011F40E948718CA
:103240000E946408882319F00E948D180AC00E9409
:103250008F1880916703811102C00C9489188830FF
:1032600011F40C948B1808950E949918882339F151
:1032700080916503909166032091BD053091BE0554
:103280002817390730F00A969093660380936503F8
:10329000089580916403811118C080918C00823060
:1032A00039F00E94400A882319F081E080936D0371
:1032B00081E08093640384E690E00C94C926109228
:1032C000660310926503109264030895CF92DF9213
:1032D000EF92FF920F931F93CF93DF93EC017B014B
:1032E000142F6C0100E0C6010E94D414882369F0F9
:1032F0000F5F1017A8F1F60184858B3331F08C3203
:1033000079F5FDE0CF0ED11CEECFC701AE0120E074
:10331000021771F03CE0FA01DC0101900D923A9540
:10332000E1F7FC011486435F5F4F2F5F0D96F0CFEE
:10333000FDE00F9FC0011124C80FD91F212F30E0DD
:10334000201B31096DE0629FA001639F500D112485
:1033500060E070E08E0D9F1D0E943B2FCE0102C0E9
:1033600080E090E0DF91CF911F910F91FF90EF905F
:10337000DF90CF900895CF93DF93EC018091950477
:103380008B3249F44CE050E065E974E0CE010E94D4
:10339000252F892B79F08091A2048B3249F44CE0DF
:1033A00050E062EA74E0CE010E94252F892B11F0D3
:1033B00080E001C081E0DF91CF910895EF92FF920C
:1033C0000F931F93CF937C01C62F6130A9F403E1C3
:1033D00014E0F80180818B3241F44CE050E0B801F8
:1033E000C7010E94252F892B41F1035F1F4FF4E095
:1033F00004351F0771F716C0611114C004E514E00D
:10340000F80180818B3241F44CE050E0B801C701F3
:103410000E94252F892B89F0035F1F4FF4E00539A7
:103420001F0771F7C150C23050F4C701CF911F91EF
:103430000F91FF90EF900C94BB1981E001C080E0E8
:10344000CF911F910F91FF90EF9008956F927F920F
:103450008F929F92AF92BF92CF92DF92EF92FF92A4
:103460000F931F93CF93DF93EC018B0145E050E066
:1034700060E57EE00E94E32E892B09F05DC0259671
:103480008FB7F894C0907203D0907303E0907403E8
:10349000F09075038FBFC701B60120E831E541E028
:1034A00050E00E949A2C722E632E60E871E581E054
:1034B00090E00E948A2CC61AD70AE80AF90AC701C6
:1034C000B60120E13EE040E050E00E949A2C490124
:1034D0005A0144275527A0E1BEE00E94CB2CC61A12
:1034E000D70AE80AF90AC701B6012CE330E040E048
:1034F00050E00E949A2C6CE3629FC001639F900D84
:103500001124C81AD90ADF92CF923F932F939F922A
:103510008F926F927F928DE39EE09F938F931F9384
:103520000F930E949B2F8DB79EB70C960FB6F89401
:103530009EBF0FBE8DBF1CC547E050E065E37EE037
:10354000CE010E94E32E892BF1F4279680917D0015
:103550008F9380917C008F9380917B008F938091DB
:103560007A008F9389E29EE09F938F931F930F932E
:103570000E949B2FEDB7FEB738960FB6F894FEBFAA
:103580000FBEEDBFF5C443E050E065E27EE0CE0142
:103590000E94E32E892B41F4239684E195E09F93CA
:1035A0008F938EE19EE0D8C448E050E065E17EE074
:1035B000CE010E94E32E892B31F528968CE09EE007
:1035C0009F938F931F930F930E949B2F080F191F98
:1035D00086E09EE09F938F931F930F930E949B2FF3
:1035E00024E03EE03F932F93800F911F9F938F9392
:1035F0000E949B2F8DB79EB70C960FB6F8949EBF76
:103600000FBE8DBFB5C44AE050E069EF7DE0CE014A
:103610000E94E32E892BB9F52A968091AF0490E0A1
:10362000C0970A9718F486EF9DE002C080EF9DE0F6
:103630009F938F931F930F930E949B2F800F911F37
:103640000F900F900F900F9023EF34E03F932F9344
:103650002091F2042F932091F1042F932FEA34E06C
:103660003F932F932AED3DE03F932F939F938F93AA
:103670000E949B2FEDB7FEB73A960FB6F894FEBFA7
:103680000FBEEDBF75C443E050E066ED7DE0CE01B6
:103690000E94E32E892BF9F423968091AF0490E0E9
:1036A000C0970A9718F483ED9DE002C08DEC9DE071
:1036B0009F938F931F930F930E949B2F800F911FB7
:1036C0000F900F900F900F902FEA34E03F932F93BD
:1036D00028EC3DE027C046E050E061EC7DE0CE0103
:1036E0000E94E32E892B19F526968091AF0490E075
:1036F000C0970A9718F48EEB9DE002C088EB9DE01E
:103700009F938F931F930F930E949B2F800F911F66
:103710000F900F900F900F902FEA34E03F932F936C
:1037200023EB3DE03F932F939F938F9319C44AE07F
:1037300050E068EA7DE0CE010E94E32E892B41F43F
:103740002A9680ED94E09F938F938AE99DE004C4CC
:1037500045E050E064E97DE0CE010E94E32E892B34
:1037600051F425968091F2048F938091F1048F9308
:103770008BE89DE0F1C349E050E061E87DE0CE01D7
:103780000E94E32E892B51F529968091C2058F93D3
:103790008091C1058F938091C0058F938091BF0563
:1037A0008F938091C6058F938091C5058F938091EB
:1037B000C4058F938091C3058F9382E69DE09F930C
:1037C0008F931F930F930E949B2F8DB79EB70C96DC
:1037D0000FB6F8949EBF0FBE8DBFCAC34FE050E036
:1037E00062E57DE0CE010E94E32E892BF1F42F9655
:1037F0008091C7038F938091C6038F938091C503F7
:103800008F938091C4038F938EE39DE09F938F935A
:103810001F930F930E949B2FEDB7FEB738960FB6FC
:10382000F894FEBF0FBEEDBFA3C344E050E069E3D0
:103830007DE0CE010E94E32E892B41F4249688EC92
:1038400093E09F938F9381E39DE086C344E050E033
:103850006CE27DE0CE010E94E32E892B41F4249698
:103860008EEF93E09F938F9384E29DE075C346E0D3
:1038700050E06DE17DE0CE010E94E32E892B41F402
:10388000269689EE93E09F938F9383E19DE064C336
:1038900046E050E06CE07DE0CE010E94E32E892BF3
:1038A00041F4269683EF94E09F938F9382E09DE00E
:1038B00053C34AE050E067EF7CE0CE010E94E32E64
:1038C000892B41F42A968091C3031F928F9389EE2E
:1038D0009CE042C34BE050E06DED7CE0CE010E94E5
:1038E000E32E892BD9F52B9681ED9CE09F938F9346
:1038F0001F930F930E949B2F080F191F34E5E32E8F
:1039000034E0F32E0F900F900F900F90D12C4DECD0
:10391000A42E4CE0B42EF70180818B3219F0DD200B
:10392000D1F017C0FF92EF92BF92AF921F930F9307
:103930000E949B2F080F191FD394FDE0EF0EF11C7E
:103940000F900F900F900F900F900F9025E0D212D4
:10395000E2CF015011098BEC9CE067C24CE050E0D3
:103960006EEB7CE0CE010E94E32E892BD9F52C96DC
:1039700081EB9CE09F938F931F930F930E949B2F4B
:10398000080F191F93E1E92E94E0F92E0F900F9084
:103990000F900F90D12C2DEAA22E2CE0B22EF70121
:1039A00080818B3219F0DD20D1F017C0FF92EF92A9
:1039B000BF92AF921F930F930E949B2F080F191F66
:1039C000D394FDE0EF0EF11C0F900F900F900F902D
:1039D0000F900F9025E0D212E2CF015011098BEA2F
:1039E0009CE023C240E150E06AE97CE0CE010E9405
:1039F000E32E892B09F044C0609689E89CE09F93F0
:103A00008F931F930F930E949B2F080F191F0F90E6
:103A10000F900F900F90809195048B3271F585E98E
:103A200094E09F938F9385E8E82E8CE0F82EFF9228
:103A3000EF921F930F930E949B2F080F191F82EA8A
:103A400094E00F900F900F900F900F900F90209197
:103A5000A2042B3281F49F938F93FF92EF921F93D6
:103A60000F930E949B2F080F191F0F900F900F901C
:103A70000F900F900F900150110983E89CE0D5C181
:103A800048E050E06AE77CE0CE010E94E32E892BFB
:103A900041F4289680ED95E09F938F938EE69CE00D
:103AA0005BC24CE050E061E67CE0CE010E94E32E78
:103AB000892B11F52C9684E59CE09F938F931F939F
:103AC0000F930E949B2F800F911F0F900F900F90CC
:103AD0000F9020918C00213029F0223031F42AE41B
:103AE0003CE005C020E53CE002C021E43CE03F931F
:103AF0002F939F938F939DC148E050E068E37CE053
:103B0000CE010E94E32E892B09F08DC028960E94D9
:103B100071086B017C01FF928F93DF926F938AE2B1
:103B20009CE09F938F931F930F930E949B2F080FEE
:103B3000191F8DB79EB708960FB6F8949EBF0FBE9B
:103B40008DBF20E030E048E651E46C2D7D2D8E2DB8
:103B50009F2D0E94262818161CF48BE19CE065C15D
:103B60000E946408882319F085E19CE05EC18FB74C
:103B7000F894C0906600D0906700E0906800F090E4
:103B800069008FBFC701B60120E831E541E050E090
:103B90000E949A2C722E632E60E871E581E090E01D
:103BA0000E948A2CC61AD70AE80AF90AC701B60188
:103BB00020E13EE040E050E00E949A2C49015A0189
:103BC00044275527A0E1BEE00E94CB2CC61AD70A95
:103BD000E80AF90AC701B6012CE330E040E050E002
:103BE0000E949A2C6CE3629FC001639F900D112488
:103BF000C81AD90ADF92CF923F932F939F928F9248
:103C00006F927F928AEF9BE09F938F931F930F9306
:103C10000E949B2FEDB7FEB73C960FB6F894FEBFFF
:103C20000FBEEDBFA5C14CE050E06DEE7BE0CE01D4
:103C30000E94E32E892B51F42C968091DE058F9300
:103C40008091DD058F938DED9BE086C14CE050E0C7
:103C500060ED7BE0CE010E94E32E892B51F42C967F
:103C60008091E2058F938091E1058F9380EC9BE03A
:103C700073C14EE050E061EB7BE0CE010E94E32E89
:103C8000892B51F42E968091E0058F938091DF056A
:103C90008F938FE99BE060C14AE050E064E97BE0EC
:103CA000CE010E94E32E892B51F42A968091BE0505
:103CB0008F938091BD058F9386E89BE04DC149E0CD
:103CC00050E06CE77BE0CE010E94E32E892B41F4AB
:103CD00029968091C9051F928F938FE69BE03CC186
:103CE00046E050E068E67BE0CE010E94E32E892B9F
:103CF00041F426968091C8051F928F938EE59BE034
:103D00002BC147E050E066E57BE0CE010E94E32E48
:103D1000892B41F427968091C7051F928F938BE4DE
:103D20009BE01AC146E050E064E47BE0CE010E94D3
:103D3000E32E892B41F426968091CA051F928F931A
:103D40008AE39BE009C14AE050E06FE27BE0CE01EC
:103D50000E94E32E892B09F073C08FB7F894C090AE
:103D60006E03D0906F03E0907003F09071038FBFEB
:103D70002A96D701C6010197A109B1098F379E4D37
:103D8000A842B10508F04FC0C701B60120E831E5EF
:103D900041E050E00E949A2CB22EA32E60E871E51B
:103DA00081E090E00E948A2CC61AD70AE80AF90A34
:103DB000C701B60120E13EE040E050E00E949A2CAD
:103DC000922E30E0A0E1BEE00E94BC2CC61AD70AB9
:103DD000E80AF90AC701B6012CE330E040E050E000
:103DE0000E949A2C8CE3289FC01811241F92CF9216
:103DF0001F922F931F929F92AF92BF9285E595E0FD
:103E00009F938F9380E19BE09F938F931F930F93DA
:103E10000E949B2FEDB7FEB73E960FB6F894FEBFFB
:103E20000FBEEDBFA5C083EF9AE09F938F931F93C2
:103E30000F930E949B2F0F900F900F900F9098C0A0
:103E400047E050E06BEE7AE0CE010E94E32E892B32
:103E500061F4279680916200282F082E000C330B06
:103E60003F938F938DED9AE077C047E050E065ED8A
:103E70007AE0CE010E94E32E892B41F427968091AF
:103E8000CB051F928F9389EC9AE066C049E050E021
:103E90006FEB7AE0CE010E94E32E892B41F4299644
:103EA0008091CC051F928F9383EB9AE055C046E03A
:103EB00050E06CEA7AE0CE010E94E32E892BD1F427
:103EC0002696809178001F928F93809179001F929F
:103ED0008F9387E99AE09F938F931F930F930E948C
:103EE0009B2F8DB79EB708960FB6F8949EBF0FBE56
:103EF0008DBF3EC047E050E06FE87AE0CE010E94FF
:103F0000E32E892B41F427968091CD051F928F9344
:103F100084E89AE021C048E050E06BE77AE0CE0107
:103F20000E94E32E892B41F428968091CE051F92A2
:103F30008F938FE69AE010C045E050E069E67AE0A2
:103F4000CE010E94E32E892BA9F425968091CF05FE
:103F50001F928F9380E69AE09F938F931F930F9306
:103F60000E949B2F0F900F900F900F900F900F902B
:103F7000CE0102C080E090E0DF91CF911F910F91C0
:103F8000FF90EF90DF90CF90BF90AF909F908F9079
:103F90007F906F900895CF92DF92EF92FF920F93F0
:103FA0001F93CF93DF9300D000D000D0CDB7DEB702
:103FB0009E838D838C0146E050E069E57AE00E94A3
:103FC000E32E892B71F5680126E0C20ED11CDE823A
:103FD000CD8244E050E064E57AE0C6010E94E32E21
:103FE000892B51F044E050E06FE47AE0C6010E9472
:103FF000E32E892B09F0FEC1F8013A9604E010E0A7
:1040000020E09191903209F4F5C19E3219F09B3372
:1040100011F48EC421E00F5F1F4F0F31110589F796
:10402000E9C14AE050E064E47AE0C8010E94E32E6E
:10403000892B71F568013AE0C30ED11CDE82CD8276
:1040400044E050E06FE37AE0C6010E94E32E892B42
:1040500051F044E050E06AE37AE0C6010E94E32EAA
:10406000892B09F0C7C1F8013E9604E010E020E07A
:104070009191903209F4BEC19E3219F09B3311F434
:1040800065C421E00F5F1F4F0F31110589F7B2C1E1
:1040900045E050E064E37AE0C8010E94E32E892BFA
:1040A00031F5C80105969E838D83F801258130E0A6
:1040B000205331092A30310508F09CC14AE050E014
:1040C000BE016B5F7F4F0E940D2D61157105F1E000
:1040D0008F07910508F08EC1ED81FE8120812B3381
:1040E00009F088C17093F2046093F104F0C34AE0D0
:1040F00050E069E27AE0C8010E94E32E892B31F595
:10410000C8010A969E838D83F801228530E02053F2
:1041100031092A30310508F06DC14AE050E0BE0196
:104120006B5F7F4F0E940D2D6131F7E27F078105A4
:10413000910508F05FC1ED81FE8120812B3309F0EC
:1041400059C17093BE056093BD05C1C34CE050E0FA
:104150006CE17AE0C8010E94E32E892B31F5C80199
:104160000C969E838D83F801248530E0205331091D
:104170002A30310508F03EC14AE050E0BE016B5FD5
:104180007F4F0E940D2D6136FAEE7F078105910564
:1041900008F030C1ED81FE8120812B3309F02AC166
:1041A0007093DE056093DD0592C34CE050E06FE054
:1041B0007AE0C8010E94E32E892B31F5C8010C96E4
:1041C0009E838D83F801248530E0205331092A3005
:1041D000310508F00FC14AE050E0BE016B5F7F4F30
:1041E0000E940D2D6136FAEE7F078105910508F0DA
:1041F00001C1ED81FE8120812B3309F0FBC070935A
:10420000E2056093E10563C34FE050E06FEF79E0B2
:10421000C8010E94E32E892B59F5C8010F969E8391
:104220008D83F801278530E0205331092A3031058C
:1042300008F0E0C04AE050E0BE016B5F7F4F0E9493
:104240000D2D603AF6E87F07F1E08F07910508F041
:10425000D1C0ED81FE8120812B3309F0CBC060936A
:10426000C4037093C5038093C6039093C7032FC301
:1042700044E050E06AEF79E0C8010E94E32E892B08
:1042800011F5680124E0C20ED11CDE82CD826BE301
:1042900070E0C6010E94422F8C01009709F4AAC069
:1042A0007C01EC18FD0831E2E316F10408F0A2C02D
:1042B000A701B60188EC93E00E94322FF701ED537D
:1042C000FC4F158273C146E050E063EF79E0C8010E
:1042D0000E94E32E892B11F5680186E0C80ED11CDF
:1042E000DE82CD826BE370E0C6010E94422F8C011A
:1042F000009709F47FC07C01EC18FD0895E1E916F0
:10430000F10408F077C0A701B60189EE93E00E949E
:10431000322FF701ED53FC4F16A248C144E050E0A4
:104320006EEE79E0C8010E94E32E892B11F5680139
:10433000E4E0CE0ED11CDE82CD826BE370E0C601DC
:104340000E94422F8C01009709F454C07C01EC18A4
:10435000FD08F5E1EF16F10408F04CC0A701B60125
:104360008EEF93E00E94322FF701ED53FC4F13AE16
:104370001DC14AE050E063EE79E0C8010E94E32EDF
:10438000892BD9F4C8010A969E838D83F801828512
:10439000803321F0813371F581E001C080E0980124
:1043A000255F3F4F3E832D83F80193859B3311F5A5
:1043B0008093C303C8010C96DBC243E050E06FED6D
:1043C00079E0C8010E94E32E892B09F055C0C8018D
:1043D00003969E838D839E012F5F3F4F790110E0EE
:1043E0008D819E81FC01208130E0205331092A30EB
:1043F000310518F080E090E0BBC24AE050E0BE0119
:104400006B5F7F4F0E940D2D6F3F710581059105F8
:1044100009F080F7F70161937F01ED81FE81133090
:1044200019F080818E3231F7CF0101969E838D8302
:104430001F5F1430A9F680818B33E1F68C811F92C7
:104440008F938B811F928F938A811F928F93898183
:104450001F928F9383ED99E09F938F938FEA94E05F
:104460009F938F930E949B2F8D819E810FB6F8940E
:10447000DEBF0FBECDBF7CC24BE050E067EC79E001
:10448000C8010E94E32E892B41F4C8010B969E833C
:104490008D8345E064E574E032C04CE050E06AEBA7
:1044A00079E0C8010E94E32E892B41F4C8010C96E3
:1044B0009E838D8345E063E174E021C040E150E0DC
:1044C00069EA79E0C8010E94E32E892B41F4C80112
:1044D00040969E838D8342E065E974E010C048E019
:1044E00050E060EA79E0C8010E94E32E892B51F484
:1044F000C80108969E838D8341E060ED75E00E94BF
:10450000661936C246E050E069E979E0C8010E94C8
:10451000E32E892B09F5680136E0C30ED11CDE823B
:10452000CD826BE370E0C6010E94422F8C010097A0
:1045300009F460CF7C01EC18FD0881E2E816F10473
:1045400008F058CFA701B60183EF94E00E94322F04
:10455000F701ED50FB4F29C043E050E065E979E0F9
:10456000C8010E94E32E892B19F5680193E0C90E5A
:10457000D11CDE82CD826BE370E0C6010E94422F27
:104580008C01009709F436CF7C01EC18FD08E1E4BA
:10459000EE16F10408F02ECFA701B60184E195E0F4
:1045A0000E94322FF701EC5EFA4F1082C80190C1D1
:1045B00049E050E06BE879E0C8010E94E32E892BC6
:1045C00021F585EE95E00E94BB19882309F412CFEE
:1045D000C80109969E838D83F8018185803329F077
:1045E000813309F007CF81E001C080E09801265FA8
:1045F0003F4F3E832D83F80192859B3309F0FACE1D
:104600008093C905C8010B96B3C146E050E064E849
:1046100079E0C8010E94E32E892B11F585EE95E023
:104620000E94BB19882309F4E5CEC80106969E8333
:104630008D83F8018681803329F0813309F0DACE49
:1046400081E001C080E09801295F3F4F3E832D83C8
:10465000F80197819B3309F0CDCE8093C80565C1E1
:1046600047E050E06CE779E0C8010E94E32E892B17
:1046700059F585EE95E00E94BB19882309F4BACE5E
:10468000C80107969E838D83F801278130E020536F
:1046900031092A30310508F0ADCE4AE050E0BE01C4
:1046A0006B5F7F4F0E940D2D6F3F71058105910556
:1046B00011F008F09FCEED81FE8120812B3309F0AF
:1046C00099CE6093C70503C149E050E062E779E005
:1046D000C8010E94E32E892B59F585EE95E00E94D2
:1046E000BB19882309F486CEC80109969E838D8361
:1046F000F801218530E0205331092A30310508F0D6
:1047000079CE4AE050E0BE016B5F7F4F0E940D2DD5
:104710006F3F71058105910511F008F06BCEED81B9
:10472000FE8120812B3309F065CE6093CC05CFC08C
:1047300047E050E06AE679E0C8010E94E32E892B49
:1047400059F585EE95E00E94BB19882309F452CEF5
:10475000C80107969E838D83F801278130E020539E
:1047600031092A30310508F045CE4AE050E0BE015B
:104770006B5F7F4F0E940D2D6F3F71058105910585
:1047800011F008F037CEED81FE8120812B3309F046
:1047900031CE6093CB059BC047E050E062E679E004
:1047A000C8010E94E32E892B59F585EE95E00E9401
:1047B000BB19882309F41ECEC80107969E838D83FA
:1047C000F801278130E0205331092A30310508F003
:1047D00011CE4AE050E0BE016B5F7F4F0E940D2D6D
:1047E0006F3F71058105910511F008F003CEED8151
:1047F000FE8120812B3309F0FDCD6093CD0567C08C
:1048000048E050E069E579E0C8010E94E32E892B79
:1048100059F585EE95E00E94BB19882309F4EACD8D
:10482000C80108969E838D83F801208530E02053CF
:1048300031092A30310508F0DDCD4AE050E0BE01F3
:104840006B5F7F4F0E940D2D6F3F710581059105B4
:1048500011F008F0CFCDED81FE8120812B3309F0DE
:10486000C9CD6093CE0533C045E050E063E579E003
:10487000C8010E94E32E892B69F585EE95E00E9420
:10488000BB19882309F4B6CDC80105969E838D8394
:10489000F801258130E0205331092A30310508F034
:1048A000A9CD4AE050E0BE016B5F7F4F0E940D2D05
:1048B0006F3F71058105910511F008F09BCDED81E9
:1048C000FE8120812B3309F095CD6093CF05CF0178
:1048D00001964EC046E050E06CE479E0C8010E94C9
:1048E000E32E892B09F086CD85EE95E00E94BB1959
:1048F000882309F47FCDC80106969E838D83F80135
:104900008681803329F0813309F074CD81E001C0C4
:1049100080E09801295F3F4F3E832D83F801978106
:104920009B3309F067CD8093CA05C801089620C063
:10493000222309F45FCDA801B6018FEA94E00E941A
:10494000322FF801FF27E155FB4F0DC0222309F458
:1049500051CDA801B60180ED94E00E94322FF801FC
:10496000FF27E053FB4F1082C80101968C0D9D1D5F
:1049700026960FB6F894DEBF0FBECDBFDF91CF9164
:104980001F910F91FF90EF90DF90CF900895EF92DD
:10499000FF920F931F93CF93DF93CDB7DEB7C05431
:1049A000D1400FB6F894DEBF0FBECDBF8C018AE0B8
:1049B00090E00E94752744E050E067E87FE0C8017E
:1049C0000E94E32E892BA9F561E085EE95E00E9417
:1049D000DE19811109C08091C303813029F465EE8D
:1049E00075E089E79FE00FC1C801049600E010E080
:1049F000009719F411110DC015C0FC01208122236C
:104A0000C9F30E94CB1F009711F01F5FF1CF01E0A7
:104A1000EFCF011107C00E94840D65EE75E086E7B7
:104A20009FE0F1C00E949F0D65EE75E080E79FE07A
:104A3000EAC044E050E06BE67FE0C8010E94E32E4C
:104A4000892BE1F561E085EE95E00E94DE19811188
:104A500009C08091C303813029F465EE75E08DE5CE
:104A60009FE0D1C0C8010496198210E09E012F5F1B
:104A70003F4F7901009709F4B9C0FC01208122233E
:104A800009F4B4C0F70101900020E9F7BF016150BB
:104A900071090E94261A009709F4B1C01F5FF7013F
:104AA00001900020E9F73197EE19FF09E13AF1058D
:104AB00008F365EE75E088E39FE0A5C040E150E0B3
:104AC00067E27FE0C8010E94E32E892B49F410922F
:104AD000C3030E94840D65EE75E084E29FE093C0FD
:104AE00049E050E06AE17FE0C8010E94E32E892B93
:104AF00031F561E085EE95E00E94DE19811105C077
:104B000065EE75E08CE09FE07EC080918C00813086
:104B100029F465EE75E086EF9EE075C00E94400ABC
:104B200065EE75E0882341F08AEC9EE00E947514E2
:104B300081E080936A0369C08BEA9EE064C049E02B
:104B400050E061EA7EE0C8010E94E32E892BC1F4A7
:104B500061E085EE95E00E94DE1965EE75E0811159
:104B600007C08091C303813019F483E99EE04BC0F4
:104B70008BE79EE00E94751481E08093690345C035
:104B800040E150E06AE67EE0C8010E94E32E892BF6
:104B900089F44CE050E060ED75E085EE95E00E9410
:104BA000252F892B91F50E94582690937F008093A2
:104BB0007E002BC045E050E064E67EE0C8010E9424
:104BC000E32E892B11F561E085EE95E00E94DE1958
:104BD00065EE75E0811107C08091C303813019F43F
:104BE00086E59EE010C08CE89FE00DC0112369F0BF
:104BF00065EE75E0CE0101960E94381406C065EEA0
:104C000075E087E59FE00E947514C05CDE4F0FB62B
:104C1000F894DEBF0FBECDBFDF91CF911F910F91F2
:104C2000FF90EF90089580918D00882339F10E94C4
:104C3000BB1210928D0080918E008823F9F0809134
:104C40008C00823049F464EF75E084E399E00E94BF
:104C5000751410928E0008950E94400A882341F036
:104C600081E080938B0064EF75E084E099E004C0FC
:104C700064EF75E085EE98E00C94751408958DE06E
:104C800083BF12BE88E48CBF89B7826089BF089554
:104C90002FB7F89480917F03909180032FBF0895E0
:104CA0002FB7F89480917D0390917E032FBF0895D4
:104CB0002FB7F89480917B0390917C032FBF0895C8
:104CC0008FB7F89410927703109276038FBF0895F0
:104CD000809155058823D1F080916E0390916F03E8
:104CE000A0917003B091710380382EED920728E2F5
:104CF000A207B10558F40196A11DB11D80936E0362
:104D000090936F03A0937003B09371030895CF93B2
:104D1000DF93EC010E944826C80FD91F0E94482645
:104D20008C1B9D0B1816190644F088950E94CA2703
:104D30008823A1F30E94A90FF9CFDF91CF910895A5
:104D4000CF93DF93EC010E945026C80FD91F0E9419
:104D500050268C1B9D0B1816190644F088950E944E
:104D6000CA278823A1F30E94A90FF9CFDF91CF9121
:104D7000089580E18FBD88E08EBD93E09BBD88EEF5
:104D80008ABD99BD88BD08958EB582608EBD8C9A0E
:104D90000895F89421E020937A0390937903809307
:104DA00078030E94C426789408958EB5887F8EBDBE
:104DB0008C98089580917A038823A9F080917803D4
:104DC000909179038A30910530F00A979093790396
:104DD00080937803089510927903109278031092CB
:104DE0007A030C94D52608951F920F920FB60F9256
:104DF00011242F933F934F935F936F937F938F93E0
:104E00009F93AF93BF93EF93FF930E943B080E9441
:104E100005190E9434190E94DA2680917F0390912F
:104E200080030A969093800380937F0380916C03A4
:104E30008F5F843618F480936C0345C010926C0326
:104E400080917D0390917E03019690937E038093E1
:104E50007D038091720390917303A0917403B091CC
:104E600075030196A11DB11D809372039093730386
:104E7000A0937403B09375038091760390917703A8
:104E80000196909377038093760320916B032F5FB5
:104E90002C3318F420936B030CC010926B032091F9
:104EA0007B0330917C032F5F3F4F30937C03209333
:104EB0007B03813B944018F081E00E94C1170E945F
:104EC00083080E946826A895FF91EF91BF91AF914A
:104ED0009F918F917F916F915F914F913F912F9112
:104EE0000F900FBE0F901F901895CF93DF93EC019A
:104EF0008091C805813011F40E94C426CE010E9421
:104F000087260E94D5268EE190E0DF91CF910C9408
:104F100087261BB8882341F088E98AB986E880BDD6
:104F200010BC83E089B904C01AB810BC10BC19B811
:104F3000109281031092820308951F920F920FB670
:104F40000F9211248F939F93EF93FF938BB19CB19A
:104F50008C7159F480918203E82FF0E0ED57FC4FFB
:104F600090838F5F8F7380938203FF91EF919F9166
:104F70008F910F900FBE0F901F9018959091810305
:104F8000E92FF0E0ED57FC4F80819F5F9F73909376
:104F90008103089581E02091820390918103291378
:104FA00001C080E00895FC019191992321F05D9B5F
:104FB000FECF9CB9F9CF0895FC019591992321F07A
:104FC0005D9BFECF9CB9F9CF08955D9BFECF8CB958
:104FD0000895E89409C097FB3EF4909580957095EC
:104FE00061957F4F8F4F9F4F9923A9F0F92F96E935
:104FF000BB279395F695879577956795B795F111AA
:10500000F8CFFAF4BB0F11F460FF1BC06F5F7F4F46
:105010008F4F9F4F16C0882311F096E911C0772358
:1050200021F09EE8872F762F05C0662371F096E861
:10503000862F70E060E02AF09A95660F771F881F30
:10504000DAF7880F9695879597F908950E94982822
:1050500008F48FEF08950E943E280C94D3280E94F4
:10506000C52838F00E94CC2820F0952311F00C942C
:10507000BC280C94C22811240C9407290E94E4280F
:1050800070F3959FC1F3950F50E0551F629FF0019B
:10509000729FBB27F00DB11D639FAA27F00DB11DB4
:1050A000AA1F649F6627B00DA11D661F829F22273D
:1050B000B00DA11D621F739FB00DA11D621F839FC4
:1050C000A00D611D221F749F3327A00D611D231F9A
:1050D000849F600D211D822F762F6A2F11249F57E8
:1050E00050409AF0F1F088234AF0EE0FFF1FBB1FEB
:1050F000661F771F881F91505040A9F79E3F5105AA
:1051000080F00C94BC280C9407295F3FE4F3983E90
:10511000D4F3869577956795B795F795E7959F5F53
:10512000C1F7FE2B880F911D9695879597F90895E5
:10513000990F0008550FAA0BE0E8FEEF16161706A8
:10514000E807F907C0F012161306E407F50798F010
:10515000621B730B840B950B39F40A2661F0232B29
:10516000242B252B21F408950A2609F4A140A695A5
:105170008FEF811D811D089597F99F6780E870E08A
:1051800060E008959FEF80EC089500240A941616BD
:10519000170618060906089500240A941216130625
:1051A000140605060895092E0394000C11F48823B3
:1051B00052F0BB0F40F4BF2B11F460FF04C06F5FCF
:1051C0007F4F8F4F9F4F089557FD9058440F551FA5
:1051D00059F05F3F71F04795880F97FB991F61F079
:1051E0009F3F79F087950895121613061406551FF0
:1051F000F2CF4695F1DF08C0161617061806991F5C
:10520000F1CF86957105610508940895E894BB2750
:1052100066277727CB0197F90895A0E1B0E0E3E195
:10522000F9E20C94D62C7C011B016A01FC01178267
:105230001682838181FF44C39E012F5F3F4F390156
:10524000F7019381F10193FD859193FF81911F01F6
:10525000882309F431C3853239F493FD859193FF96
:1052600081911F01853239F4B70190E00E945F2FD0
:1052700056016501E5CF10E0512C912CFFE1F915A5
:10528000D8F08B3279F038F4803279F08332A1F49F
:10529000F92DF0612EC08D3261F0803369F4292D33
:1052A00021602DC0392D3260932E892D8460982E77
:1052B0002AC0E92DE86015C097FC2DC020ED280F0D
:1052C0002A3088F496FE06C03AE0139F200D112480
:1052D000122F19C08AE0589E200D1124522EE92D5C
:1052E000E0629E2E10C08E3231F496FCE5C2F92D9C
:1052F000F0649F2E08C08C3621F4292D2068922E50
:1053000002C0883641F4F10193FD859193FF8191AC
:105310001F018111B3CF9BEB980F933020F4992D8F
:105320009061805E07C09BE9980F933008F066C1DA
:10533000992D9F7E96FF16E09F73992E853619F45E
:105340009064992E08C0863621F4392F3068932E48
:1053500002C01111115097FE07C01C3350F44424B1
:105360004394410E27E00BC0183038F027E017E0D7
:1053700005C027E09CE3492E02C0212F412C560195
:1053800084E0A80EB11CF601608171818281938155
:10539000042DA3010E94022E6C01F981FC87F0FF0D
:1053A00002C0F3FF06C091FC06C092FE06C000E2F8
:1053B00005C00DE203C00BE201C000E08C858C70DB
:1053C00019F001115AC29BC297FE10C04C0CFC850B
:1053D000F4FF04C08A81813309F44A94141474F5EB
:1053E00028E0241578F588E0482E2CC096FC2AC0C9
:1053F000812F90E08C159D059CF03CEFC3163FEF8C
:10540000D30674F0892D8068982E0AC0E2E0F0E09F
:10541000EC0FFD1FE10FF11D8081803319F4115055
:105420001111F4CF97FE0EC044244394410E812FF6
:1054300090E0C816D9062CF41C1904C044244394E7
:1054400001C010E097FE06C01C141D0434F4C60110
:10545000019605C085E090E002C081E090E0011176
:105460000196112331F0212F30E02F5F3F4F820F43
:10547000931F252D30E08217930714F4581A01C0AA
:10548000512C892D897049F4552039F0B70180E2FB
:1054900090E00E945F2F5A94F7CF002329F0B701C4
:1054A000802F90E00E945F2F93FC09C0552039F0B7
:1054B000B70180E390E00E945F2F5A94F7CF97FEE8
:1054C0004CC04601D7FE02C0812C912CC601881920
:1054D0009909F301E80FF91FFE87ED87960124195A
:1054E0003109388B2F87012F10E011950195110993
:1054F0003FEF8316930629F4B7018EE290E00E94F5
:105500005F2FC814D9044CF08F85988988159905A8
:1055100024F4ED85FE85818101C080E3F1E08F1ADE
:1055200091082D853E852F5F3F4F3E872D87801642
:1055300091062CF0B70190E00E945F2FD9CFC814DC
:10554000D90441F49A81963320F4953319F43C85BB
:1055500034FF81E3B70190E04EC08A81813319F0B6
:105560009C859F7E9C87B70190E00E945F2F111160
:1055700005C094FC18C085E690E017C0B7018EE224
:1055800090E00E945F2F1E5F82E001E0080FF301B0
:10559000E80FF11D8081B70190E00E945F2F802FFE
:1055A0000113F3CFE6CF85E490E0B7010E945F2FAF
:1055B000D7FC06C0C114D10441F4EC85E4FF05C05A
:1055C000D194C194D1088DE201C08BE2B70190E083
:1055D0000E945F2F80E32AE0C216D1042CF08F5F77
:1055E000FAE0CF1AD108F7CFB70190E00E945F2F01
:1055F000B701C601C0960E945F2F54C1833631F0B7
:10560000833779F0833509F056C020C0560132E067
:10561000A30EB11CF6018081898301E010E06301D3
:1056200012C05601F2E0AF0EB11CF601C080D1806D
:1056300096FE03C0612F70E002C06FEF7FEFC601DE
:105640000E94542F8C01F92DFF7714C0560122E0DF
:10565000A20EB11CF601C080D18096FE03C0612F5E
:1056600070E002C06FEF7FEFC6010E94002F8C0137
:10567000F92DF0689F2EF3FD1AC0852D90E00817D4
:105680001907A8F4B70180E290E00E945F2F5A94B6
:10569000F4CFF60197FC859197FE81916F01B701D8
:1056A00090E00E945F2F51105A940150110901158A
:1056B000110579F7F7C0843611F0893661F5560186
:1056C00097FE09C024E0A20EB11CF6016081718131
:1056D000828193810AC0F2E0AF0EB11CF6016081B5
:1056E0007181072E000C880B990BF92DFF769F2EE8
:1056F00097FF09C090958095709561957F4F8F4F6A
:105700009F4FF0689F2E2AE030E0A3010E94BD2F3A
:10571000C82EC6183FC0092D853721F40F7E2AE018
:1057200030E01DC0097F8F3691F018F4883559F0AC
:10573000C3C0803719F0883711F0BEC0006104FF84
:1057400009C0046007C094FE08C0066006C028E0D7
:1057500030E005C020E130E002C020E132E0560137
:1057600007FF09C084E0A80EB11CF60160817181B9
:105770008281938108C0F2E0AF0EB11CF601608116
:10578000718180E090E0A3010E94BD2FC82EC61851
:105790000F77902E96FE0BC0092D0E7FC11650F488
:1057A00094FE0AC092FC08C0092D0E7E05C0DC2CB8
:1057B000092D03C0DC2C01C0D12E04FF0DC0FE0159
:1057C000EC0DF11D8081803311F4097E09C002FFC8
:1057D00006C0D394D39404C0802F867809F0D39464
:1057E00003FD11C000FF06C01C2DD51480F4150D5B
:1057F0001D190DC0D51458F4B70180E290E00E9445
:105800005F2FD394F7CFD51410F45D1801C0512C3D
:1058100004FF10C0B70180E390E00E945F2F02FFF9
:1058200017C001FD03C088E790E002C088E590E062
:10583000B7010CC0802F867859F001FF02C08BE2BF
:1058400001C080E207FD8DE2B70190E00E945F2F6A
:10585000C11638F4B70180E390E00E945F2F115029
:10586000F7CFCA94F301EC0DF11D8081B70190E0F0
:105870000E945F2FC110F5CF15C0F4E0F51560F55B
:1058800084E0581A93FE1FC0011127C02C8523FF06
:105890002AC004E510E0392D3071932EF80184916F
:1058A000811124C0552009F4E4CCB70180E290E0D6
:1058B0000E945F2F5A94F6CFF7018681978126C008
:1058C0008FEF9FEF23C0B70180E290E00E945F2F2F
:1058D0005A945110F8CFD8CF512CB701802F90E0B7
:1058E0000E945F2FD3CF08E510E0D5CF91108052F2
:1058F000B70190E00E945F2F0F5F1F4FCFCF23E0D3
:10590000251510F483E0BDCF512CC0CF6096E2E1A5
:105910000C94F22CDB018F939F930E94CB2CBF91B0
:10592000AF91A29F800D911DA39F900DB29F900DEE
:1059300011240895A1E21A2EAA1BBB1BFD010DC064
:10594000AA1FBB1FEE1FFF1FA217B307E407F5072F
:1059500020F0A21BB30BE40BF50B661F771F881F0B
:10596000991F1A9469F760957095809590959B01A1
:10597000AC01BD01CF010895A29FB001B39FC0014A
:10598000A39F700D811D1124911DB29F700D811D6B
:105990001124911D08950E94BC2CA59F900DB49FC9
:1059A000900DA49F800D911D112408952F923F9278
:1059B0004F925F926F927F928F929F92AF92BF921F
:1059C000CF92DF92EF92FF920F931F93CF93DF93CB
:1059D000CDB7DEB7CA1BDB0B0FB6F894DEBF0FBE28
:1059E000CDBF09942A88398848885F846E847D8475
:1059F0008C849B84AA84B984C884DF80EE80FD8077
:105A00000C811B81AA81B981CE0FD11D0FB6F894EC
:105A1000DEBF0FBECDBFED010895A0E0B0E0E3E131
:105A2000FDE20C94D72C5C016B017A0161157105C4
:105A300019F0FB0191838083E114F10429F0C7017F
:105A40000297839708F0C9C0E5012196F5011081FE
:105A5000812F90E00E94DA2E892B11F05E01F4CFA5
:105A60001D3229F42196F501118101E007C01B3296
:105A700021F4E5012296F501118100E0E114F10421
:105A8000B1F0F0E1EF16F10429F4B0C010E3E11435
:105A9000F10401F12AE0E216F104B1F180E1E81627
:105AA000F10471F0E8E0EE16F104F1F413C01033E4
:105AB00041F588818F7D883549F7198122960260EA
:105AC000F0E1EF2EF12C88248A94982CA82CAFE0DA
:105AD000BA2E20C078E0E72EF12C88248A94982CE6
